{
	"trustScore2-2.sol": {
		"ReputationStateMachine": {
			"abi": [
				{
					"anonymous": false,
					"inputs": [
						{
							"indexed": false,
							"internalType": "uint256",
							"name": "transactionId",
							"type": "uint256"
						},
						{
							"indexed": false,
							"internalType": "enum ReputationStateMachine.State",
							"name": "newState",
							"type": "uint8"
						}
					],
					"name": "PhaseUpdated",
					"type": "event"
				},
				{
					"anonymous": false,
					"inputs": [
						{
							"indexed": false,
							"internalType": "uint256",
							"name": "transactionId",
							"type": "uint256"
						},
						{
							"indexed": false,
							"internalType": "bool",
							"name": "success",
							"type": "bool"
						}
					],
					"name": "TransactionFinalized",
					"type": "event"
				},
				{
					"anonymous": false,
					"inputs": [
						{
							"indexed": false,
							"internalType": "uint256",
							"name": "transactionId",
							"type": "uint256"
						},
						{
							"indexed": false,
							"internalType": "address",
							"name": "buyer",
							"type": "address"
						},
						{
							"indexed": false,
							"internalType": "address",
							"name": "seller",
							"type": "address"
						},
						{
							"indexed": false,
							"internalType": "address",
							"name": "marketplace",
							"type": "address"
						}
					],
					"name": "TransactionInitiated",
					"type": "event"
				},
				{
					"inputs": [
						{
							"internalType": "uint256",
							"name": "transactionId",
							"type": "uint256"
						},
						{
							"internalType": "bool",
							"name": "goodsOk",
							"type": "bool"
						}
					],
					"name": "BuyerConfirmGoods",
					"outputs": [],
					"stateMutability": "nonpayable",
					"type": "function"
				},
				{
					"inputs": [
						{
							"internalType": "uint256",
							"name": "transactionId",
							"type": "uint256"
						}
					],
					"name": "cancelTransaction",
					"outputs": [],
					"stateMutability": "nonpayable",
					"type": "function"
				},
				{
					"inputs": [
						{
							"internalType": "uint256",
							"name": "transactionId",
							"type": "uint256"
						},
						{
							"internalType": "uint256",
							"name": "phase2Duration",
							"type": "uint256"
						}
					],
					"name": "confirmShipping",
					"outputs": [],
					"stateMutability": "nonpayable",
					"type": "function"
				},
				{
					"inputs": [],
					"name": "getAllUsers",
					"outputs": [
						{
							"internalType": "address[]",
							"name": "",
							"type": "address[]"
						}
					],
					"stateMutability": "view",
					"type": "function"
				},
				{
					"inputs": [
						{
							"internalType": "address",
							"name": "buyer",
							"type": "address"
						},
						{
							"internalType": "address",
							"name": "seller",
							"type": "address"
						}
					],
					"name": "initiateTransaction",
					"outputs": [],
					"stateMutability": "nonpayable",
					"type": "function"
				},
				{
					"inputs": [],
					"name": "registerUser",
					"outputs": [],
					"stateMutability": "nonpayable",
					"type": "function"
				},
				{
					"inputs": [
						{
							"internalType": "address",
							"name": "",
							"type": "address"
						}
					],
					"name": "reputations",
					"outputs": [
						{
							"internalType": "uint256",
							"name": "score",
							"type": "uint256"
						},
						{
							"internalType": "bool",
							"name": "exists",
							"type": "bool"
						}
					],
					"stateMutability": "view",
					"type": "function"
				},
				{
					"inputs": [],
					"name": "transactionCount",
					"outputs": [
						{
							"internalType": "uint256",
							"name": "",
							"type": "uint256"
						}
					],
					"stateMutability": "view",
					"type": "function"
				},
				{
					"inputs": [
						{
							"internalType": "uint256",
							"name": "",
							"type": "uint256"
						}
					],
					"name": "transactions",
					"outputs": [
						{
							"internalType": "address",
							"name": "buyer",
							"type": "address"
						},
						{
							"internalType": "address",
							"name": "seller",
							"type": "address"
						},
						{
							"internalType": "address",
							"name": "marketplace",
							"type": "address"
						},
						{
							"internalType": "uint256",
							"name": "startTime",
							"type": "uint256"
						},
						{
							"internalType": "uint256",
							"name": "phase1EndTime",
							"type": "uint256"
						},
						{
							"internalType": "uint256",
							"name": "phase2EndTime",
							"type": "uint256"
						},
						{
							"internalType": "uint256",
							"name": "phase3EndTime",
							"type": "uint256"
						},
						{
							"internalType": "enum ReputationStateMachine.State",
							"name": "currentState",
							"type": "uint8"
						},
						{
							"internalType": "enum ReputationStateMachine.DeliveryState",
							"name": "deliveryState",
							"type": "uint8"
						},
						{
							"internalType": "bool",
							"name": "finalized",
							"type": "bool"
						}
					],
					"stateMutability": "view",
					"type": "function"
				},
				{
					"inputs": [
						{
							"internalType": "uint256",
							"name": "transactionId",
							"type": "uint256"
						},
						{
							"internalType": "enum ReputationStateMachine.DeliveryState",
							"name": "deliveryState",
							"type": "uint8"
						},
						{
							"internalType": "uint256",
							"name": "phase3Duration",
							"type": "uint256"
						}
					],
					"name": "updateDeliveryState",
					"outputs": [],
					"stateMutability": "nonpayable",
					"type": "function"
				}
			],
			"devdoc": {
				"kind": "dev",
				"methods": {},
				"version": 1
			},
			"evm": {
				"assembly": "    /* \"trustScore2-2.sol\":57:6613  contract ReputationStateMachine {... */\n  mstore(0x40, 0x80)\n  callvalue\n  dup1\n  iszero\n  tag_1\n  jumpi\n  0x00\n  dup1\n  revert\ntag_1:\n  pop\n  dataSize(sub_0)\n  dup1\n  dataOffset(sub_0)\n  0x00\n  codecopy\n  0x00\n  return\nstop\n\nsub_0: assembly {\n        /* \"trustScore2-2.sol\":57:6613  contract ReputationStateMachine {... */\n      mstore(0x40, 0x80)\n      callvalue\n      dup1\n      iszero\n      tag_1\n      jumpi\n      0x00\n      dup1\n      revert\n    tag_1:\n      pop\n      jumpi(tag_2, lt(calldatasize, 0x04))\n      shr(0xe0, calldataload(0x00))\n      dup1\n      0x8cc4df45\n      gt\n      tag_13\n      jumpi\n      dup1\n      0x8cc4df45\n      eq\n      tag_8\n      jumpi\n      dup1\n      0x9ace38c2\n      eq\n      tag_9\n      jumpi\n      dup1\n      0xa54be1ef\n      eq\n      tag_10\n      jumpi\n      dup1\n      0xb77bf600\n      eq\n      tag_11\n      jumpi\n      dup1\n      0xe2842d79\n      eq\n      tag_12\n      jumpi\n      jump(tag_2)\n    tag_13:\n      dup1\n      0x06fa15a7\n      eq\n      tag_3\n      jumpi\n      dup1\n      0x2e2ed75e\n      eq\n      tag_4\n      jumpi\n      dup1\n      0x3380c0d8\n      eq\n      tag_5\n      jumpi\n      dup1\n      0x4d3820eb\n      eq\n      tag_6\n      jumpi\n      dup1\n      0x51fe3f3d\n      eq\n      tag_7\n      jumpi\n    tag_2:\n      0x00\n      dup1\n      revert\n        /* \"trustScore2-2.sol\":1220:1269  mapping(address => Reputation) public reputations */\n    tag_3:\n      tag_14\n      0x04\n      dup1\n      calldatasize\n      sub\n      dup2\n      add\n      swap1\n      tag_15\n      swap2\n      swap1\n      tag_16\n      jump\t// in\n    tag_15:\n      tag_17\n      jump\t// in\n    tag_14:\n      mload(0x40)\n      tag_18\n      swap3\n      swap2\n      swap1\n      tag_19\n      jump\t// in\n    tag_18:\n      mload(0x40)\n      dup1\n      swap2\n      sub\n      swap1\n      return\n        /* \"trustScore2-2.sol\":3853:4495  function updateDeliveryState(uint256 transactionId, DeliveryState deliveryState, uint256 phase3Duration)... */\n    tag_4:\n      tag_20\n      0x04\n      dup1\n      calldatasize\n      sub\n      dup2\n      add\n      swap1\n      tag_21\n      swap2\n      swap1\n      tag_22\n      jump\t// in\n    tag_21:\n      tag_23\n      jump\t// in\n    tag_20:\n      stop\n        /* \"trustScore2-2.sol\":5556:5931  function cancelTransaction(uint256 transactionId) public {... */\n    tag_5:\n      tag_24\n      0x04\n      dup1\n      calldatasize\n      sub\n      dup2\n      add\n      swap1\n      tag_25\n      swap2\n      swap1\n      tag_26\n      jump\t// in\n    tag_25:\n      tag_27\n      jump\t// in\n    tag_24:\n      stop\n        /* \"trustScore2-2.sol\":2006:2246  function registerUser() public {... */\n    tag_6:\n      tag_28\n      tag_29\n      jump\t// in\n    tag_28:\n      stop\n        /* \"trustScore2-2.sol\":3254:3789  function confirmShipping(uint256 transactionId, uint256 phase2Duration) ... */\n    tag_7:\n      tag_30\n      0x04\n      dup1\n      calldatasize\n      sub\n      dup2\n      add\n      swap1\n      tag_31\n      swap2\n      swap1\n      tag_32\n      jump\t// in\n    tag_31:\n      tag_33\n      jump\t// in\n    tag_30:\n      stop\n        /* \"trustScore2-2.sol\":2455:3202  function initiateTransaction(address buyer, address seller ) public {... */\n    tag_8:\n      tag_34\n      0x04\n      dup1\n      calldatasize\n      sub\n      dup2\n      add\n      swap1\n      tag_35\n      swap2\n      swap1\n      tag_36\n      jump\t// in\n    tag_35:\n      tag_37\n      jump\t// in\n    tag_34:\n      stop\n        /* \"trustScore2-2.sol\":1124:1175  mapping(uint256 => Transaction) public transactions */\n    tag_9:\n      tag_38\n      0x04\n      dup1\n      calldatasize\n      sub\n      dup2\n      add\n      swap1\n      tag_39\n      swap2\n      swap1\n      tag_26\n      jump\t// in\n    tag_39:\n      tag_40\n      jump\t// in\n    tag_38:\n      mload(0x40)\n      tag_41\n      swap11\n      swap10\n      swap9\n      swap8\n      swap7\n      swap6\n      swap5\n      swap4\n      swap3\n      swap2\n      swap1\n      tag_42\n      jump\t// in\n    tag_41:\n      mload(0x40)\n      dup1\n      swap2\n      sub\n      swap1\n      return\n        /* \"trustScore2-2.sol\":4553:5348  function BuyerConfirmGoods(uint256 transactionId, bool goodsOk) ... */\n    tag_10:\n      tag_43\n      0x04\n      dup1\n      calldatasize\n      sub\n      dup2\n      add\n      swap1\n      tag_44\n      swap2\n      swap1\n      tag_45\n      jump\t// in\n    tag_44:\n      tag_46\n      jump\t// in\n    tag_43:\n      stop\n        /* \"trustScore2-2.sol\":1314:1345  uint256 public transactionCount */\n    tag_11:\n      tag_47\n      tag_48\n      jump\t// in\n    tag_47:\n      mload(0x40)\n      tag_49\n      swap2\n      swap1\n      tag_50\n      jump\t// in\n    tag_49:\n      mload(0x40)\n      dup1\n      swap2\n      sub\n      swap1\n      return\n        /* \"trustScore2-2.sol\":2308:2407  function getAllUsers() public view returns (address[] memory) {... */\n    tag_12:\n      tag_51\n      tag_52\n      jump\t// in\n    tag_51:\n      mload(0x40)\n      tag_53\n      swap2\n      swap1\n      tag_54\n      jump\t// in\n    tag_53:\n      mload(0x40)\n      dup1\n      swap2\n      sub\n      swap1\n      return\n        /* \"trustScore2-2.sol\":1220:1269  mapping(address => Reputation) public reputations */\n    tag_17:\n      mstore(0x20, 0x03)\n      dup1\n      0x00\n      mstore\n      keccak256(0x00, 0x40)\n      0x00\n      swap2\n      pop\n      swap1\n      pop\n      dup1\n      0x00\n      add\n      sload\n      swap1\n      dup1\n      0x01\n      add\n      0x00\n      swap1\n      sload\n      swap1\n      0x0100\n      exp\n      swap1\n      div\n      0xff\n      and\n      swap1\n      pop\n      dup3\n      jump\t// out\n        /* \"trustScore2-2.sol\":3853:4495  function updateDeliveryState(uint256 transactionId, DeliveryState deliveryState, uint256 phase3Duration)... */\n    tag_23:\n        /* \"trustScore2-2.sol\":3989:4002  transactionId */\n      dup3\n        /* \"trustScore2-2.sol\":4004:4018  State.Shipping */\n      0x01\n        /* \"trustScore2-2.sol\":1760:1773  requiredState */\n      dup1\n        /* \"trustScore2-2.sol\":1716:1773  transactions[transactionId].currentState == requiredState */\n      0x03\n      dup2\n      gt\n      iszero\n      tag_56\n      jumpi\n      tag_57\n      tag_58\n      jump\t// in\n    tag_57:\n    tag_56:\n        /* \"trustScore2-2.sol\":1716:1728  transactions */\n      0x02\n        /* \"trustScore2-2.sol\":1716:1743  transactions[transactionId] */\n      0x00\n        /* \"trustScore2-2.sol\":1729:1742  transactionId */\n      dup5\n        /* \"trustScore2-2.sol\":1716:1743  transactions[transactionId] */\n      dup2\n      mstore\n      0x20\n      add\n      swap1\n      dup2\n      mstore\n      0x20\n      add\n      0x00\n      keccak256\n        /* \"trustScore2-2.sol\":1716:1756  transactions[transactionId].currentState */\n      0x07\n      add\n      0x00\n      swap1\n      sload\n      swap1\n      0x0100\n      exp\n      swap1\n      div\n      0xff\n      and\n        /* \"trustScore2-2.sol\":1716:1773  transactions[transactionId].currentState == requiredState */\n      0x03\n      dup2\n      gt\n      iszero\n      tag_59\n      jumpi\n      tag_60\n      tag_58\n      jump\t// in\n    tag_60:\n    tag_59:\n      eq\n        /* \"trustScore2-2.sol\":1708:1807  require(transactions[transactionId].currentState == requiredState, \"Invalid state for this action\") */\n      tag_61\n      jumpi\n      mload(0x40)\n      0x08c379a000000000000000000000000000000000000000000000000000000000\n      dup2\n      mstore\n      0x04\n      add\n      tag_62\n      swap1\n      tag_63\n      jump\t// in\n    tag_62:\n      mload(0x40)\n      dup1\n      swap2\n      sub\n      swap1\n      revert\n    tag_61:\n        /* \"trustScore2-2.sol\":4121:4133  transactions */\n      0x02\n        /* \"trustScore2-2.sol\":4121:4148  transactions[transactionId] */\n      0x00\n        /* \"trustScore2-2.sol\":4134:4147  transactionId */\n      dup7\n        /* \"trustScore2-2.sol\":4121:4148  transactions[transactionId] */\n      dup2\n      mstore\n      0x20\n      add\n      swap1\n      dup2\n      mstore\n      0x20\n      add\n      0x00\n      keccak256\n        /* \"trustScore2-2.sol\":4121:4160  transactions[transactionId].marketplace */\n      0x02\n      add\n      0x00\n      swap1\n      sload\n      swap1\n      0x0100\n      exp\n      swap1\n      div\n      0xffffffffffffffffffffffffffffffffffffffff\n      and\n        /* \"trustScore2-2.sol\":4107:4160  msg.sender == transactions[transactionId].marketplace */\n      0xffffffffffffffffffffffffffffffffffffffff\n      and\n        /* \"trustScore2-2.sol\":4107:4117  msg.sender */\n      caller\n        /* \"trustScore2-2.sol\":4107:4160  msg.sender == transactions[transactionId].marketplace */\n      0xffffffffffffffffffffffffffffffffffffffff\n      and\n      eq\n        /* \"trustScore2-2.sol\":4099:4207  require(msg.sender == transactions[transactionId].marketplace, \"Only marketplace can update delivery state\") */\n      tag_65\n      jumpi\n      mload(0x40)\n      0x08c379a000000000000000000000000000000000000000000000000000000000\n      dup2\n      mstore\n      0x04\n      add\n      tag_66\n      swap1\n      tag_67\n      jump\t// in\n    tag_66:\n      mload(0x40)\n      dup1\n      swap2\n      sub\n      swap1\n      revert\n    tag_65:\n        /* \"trustScore2-2.sol\":4261:4274  deliveryState */\n      dup4\n        /* \"trustScore2-2.sol\":4217:4229  transactions */\n      0x02\n        /* \"trustScore2-2.sol\":4217:4244  transactions[transactionId] */\n      0x00\n        /* \"trustScore2-2.sol\":4230:4243  transactionId */\n      dup8\n        /* \"trustScore2-2.sol\":4217:4244  transactions[transactionId] */\n      dup2\n      mstore\n      0x20\n      add\n      swap1\n      dup2\n      mstore\n      0x20\n      add\n      0x00\n      keccak256\n        /* \"trustScore2-2.sol\":4217:4258  transactions[transactionId].deliveryState */\n      0x07\n      add\n      0x01\n        /* \"trustScore2-2.sol\":4217:4274  transactions[transactionId].deliveryState = deliveryState */\n      0x0100\n      exp\n      dup2\n      sload\n      dup2\n      0xff\n      mul\n      not\n      and\n      swap1\n      dup4\n      0x02\n      dup2\n      gt\n      iszero\n      tag_68\n      jumpi\n      tag_69\n      tag_58\n      jump\t// in\n    tag_69:\n    tag_68:\n      mul\n      or\n      swap1\n      sstore\n      pop\n        /* \"trustScore2-2.sol\":4327:4342  State.Delivered */\n      0x02\n        /* \"trustScore2-2.sol\":4284:4296  transactions */\n      dup1\n        /* \"trustScore2-2.sol\":4284:4311  transactions[transactionId] */\n      0x00\n        /* \"trustScore2-2.sol\":4297:4310  transactionId */\n      dup8\n        /* \"trustScore2-2.sol\":4284:4311  transactions[transactionId] */\n      dup2\n      mstore\n      0x20\n      add\n      swap1\n      dup2\n      mstore\n      0x20\n      add\n      0x00\n      keccak256\n        /* \"trustScore2-2.sol\":4284:4324  transactions[transactionId].currentState */\n      0x07\n      add\n      0x00\n        /* \"trustScore2-2.sol\":4284:4342  transactions[transactionId].currentState = State.Delivered */\n      0x0100\n      exp\n      dup2\n      sload\n      dup2\n      0xff\n      mul\n      not\n      and\n      swap1\n      dup4\n      0x03\n      dup2\n      gt\n      iszero\n      tag_70\n      jumpi\n      tag_71\n      tag_58\n      jump\t// in\n    tag_71:\n    tag_70:\n      mul\n      or\n      swap1\n      sstore\n      pop\n        /* \"trustScore2-2.sol\":4414:4428  phase3Duration */\n      dup3\n        /* \"trustScore2-2.sol\":4396:4411  block.timestamp */\n      timestamp\n        /* \"trustScore2-2.sol\":4396:4428  block.timestamp + phase3Duration */\n      tag_72\n      swap2\n      swap1\n      tag_73\n      jump\t// in\n    tag_72:\n        /* \"trustScore2-2.sol\":4352:4364  transactions */\n      0x02\n        /* \"trustScore2-2.sol\":4352:4379  transactions[transactionId] */\n      0x00\n        /* \"trustScore2-2.sol\":4365:4378  transactionId */\n      dup8\n        /* \"trustScore2-2.sol\":4352:4379  transactions[transactionId] */\n      dup2\n      mstore\n      0x20\n      add\n      swap1\n      dup2\n      mstore\n      0x20\n      add\n      0x00\n      keccak256\n        /* \"trustScore2-2.sol\":4352:4393  transactions[transactionId].phase3EndTime */\n      0x06\n      add\n        /* \"trustScore2-2.sol\":4352:4428  transactions[transactionId].phase3EndTime = block.timestamp + phase3Duration */\n      dup2\n      swap1\n      sstore\n      pop\n        /* \"trustScore2-2.sol\":4444:4488  PhaseUpdated(transactionId, State.Delivered) */\n      0x3c2a09acd9b0d181128682f8a6f57cf164c482311208ecdcd6e65e33a8a98fd5\n        /* \"trustScore2-2.sol\":4457:4470  transactionId */\n      dup6\n        /* \"trustScore2-2.sol\":4472:4487  State.Delivered */\n      0x02\n        /* \"trustScore2-2.sol\":4444:4488  PhaseUpdated(transactionId, State.Delivered) */\n      mload(0x40)\n      tag_74\n      swap3\n      swap2\n      swap1\n      tag_75\n      jump\t// in\n    tag_74:\n      mload(0x40)\n      dup1\n      swap2\n      sub\n      swap1\n      log1\n        /* \"trustScore2-2.sol\":3853:4495  function updateDeliveryState(uint256 transactionId, DeliveryState deliveryState, uint256 phase3Duration)... */\n      pop\n      pop\n      pop\n      pop\n      pop\n      jump\t// out\n        /* \"trustScore2-2.sol\":5556:5931  function cancelTransaction(uint256 transactionId) public {... */\n    tag_27:\n        /* \"trustScore2-2.sol\":5623:5646  Transaction storage txn */\n      0x00\n        /* \"trustScore2-2.sol\":5649:5661  transactions */\n      0x02\n        /* \"trustScore2-2.sol\":5649:5676  transactions[transactionId] */\n      0x00\n        /* \"trustScore2-2.sol\":5662:5675  transactionId */\n      dup4\n        /* \"trustScore2-2.sol\":5649:5676  transactions[transactionId] */\n      dup2\n      mstore\n      0x20\n      add\n      swap1\n      dup2\n      mstore\n      0x20\n      add\n      0x00\n      keccak256\n        /* \"trustScore2-2.sol\":5623:5676  Transaction storage txn = transactions[transactionId] */\n      swap1\n      pop\n        /* \"trustScore2-2.sol\":5821:5836  State.Cancelled */\n      0x03\n        /* \"trustScore2-2.sol\":5802:5805  txn */\n      dup2\n        /* \"trustScore2-2.sol\":5802:5818  txn.currentState */\n      0x07\n      add\n      0x00\n        /* \"trustScore2-2.sol\":5802:5836  txn.currentState = State.Cancelled */\n      0x0100\n      exp\n      dup2\n      sload\n      dup2\n      0xff\n      mul\n      not\n      and\n      swap1\n      dup4\n      0x03\n      dup2\n      gt\n      iszero\n      tag_77\n      jumpi\n      tag_78\n      tag_58\n      jump\t// in\n    tag_78:\n    tag_77:\n      mul\n      or\n      swap1\n      sstore\n      pop\n        /* \"trustScore2-2.sol\":5862:5866  true */\n      0x01\n        /* \"trustScore2-2.sol\":5846:5849  txn */\n      dup2\n        /* \"trustScore2-2.sol\":5846:5859  txn.finalized */\n      0x07\n      add\n      0x02\n        /* \"trustScore2-2.sol\":5846:5866  txn.finalized = true */\n      0x0100\n      exp\n      dup2\n      sload\n      dup2\n      0xff\n      mul\n      not\n      and\n      swap1\n      dup4\n      iszero\n      iszero\n      mul\n      or\n      swap1\n      sstore\n      pop\n        /* \"trustScore2-2.sol\":5882:5924  TransactionFinalized(transactionId, false) */\n      0x19bf9ce0b6f41c705c17ecad634e22187a9c311d4ea093b2a979703ce52ac86d\n        /* \"trustScore2-2.sol\":5903:5916  transactionId */\n      dup3\n        /* \"trustScore2-2.sol\":5918:5923  false */\n      0x00\n        /* \"trustScore2-2.sol\":5882:5924  TransactionFinalized(transactionId, false) */\n      mload(0x40)\n      tag_79\n      swap3\n      swap2\n      swap1\n      tag_19\n      jump\t// in\n    tag_79:\n      mload(0x40)\n      dup1\n      swap2\n      sub\n      swap1\n      log1\n        /* \"trustScore2-2.sol\":5613:5931  {... */\n      pop\n        /* \"trustScore2-2.sol\":5556:5931  function cancelTransaction(uint256 transactionId) public {... */\n      pop\n      jump\t// out\n        /* \"trustScore2-2.sol\":2006:2246  function registerUser() public {... */\n    tag_29:\n        /* \"trustScore2-2.sol\":2052:2057  users */\n      0x00\n        /* \"trustScore2-2.sol\":2052:2069  users[msg.sender] */\n      dup1\n        /* \"trustScore2-2.sol\":2058:2068  msg.sender */\n      caller\n        /* \"trustScore2-2.sol\":2052:2069  users[msg.sender] */\n      0xffffffffffffffffffffffffffffffffffffffff\n      and\n      0xffffffffffffffffffffffffffffffffffffffff\n      and\n      dup2\n      mstore\n      0x20\n      add\n      swap1\n      dup2\n      mstore\n      0x20\n      add\n      0x00\n      keccak256\n        /* \"trustScore2-2.sol\":2052:2076  users[msg.sender].exists */\n      0x01\n      add\n      0x00\n      swap1\n      sload\n      swap1\n      0x0100\n      exp\n      swap1\n      div\n      0xff\n      and\n        /* \"trustScore2-2.sol\":2051:2076  !users[msg.sender].exists */\n      iszero\n        /* \"trustScore2-2.sol\":2043:2104  require(!users[msg.sender].exists, \"User already registered\") */\n      tag_81\n      jumpi\n      mload(0x40)\n      0x08c379a000000000000000000000000000000000000000000000000000000000\n      dup2\n      mstore\n      0x04\n      add\n      tag_82\n      swap1\n      tag_83\n      jump\t// in\n    tag_82:\n      mload(0x40)\n      dup1\n      swap2\n      sub\n      swap1\n      revert\n    tag_81:\n        /* \"trustScore2-2.sol\":2130:2149  Reputation(0, true) */\n      mload(0x40)\n      dup1\n      0x40\n      add\n      0x40\n      mstore\n      dup1\n        /* \"trustScore2-2.sol\":2141:2142  0 */\n      0x00\n        /* \"trustScore2-2.sol\":2130:2149  Reputation(0, true) */\n      dup2\n      mstore\n      0x20\n      add\n        /* \"trustScore2-2.sol\":2144:2148  true */\n      0x01\n        /* \"trustScore2-2.sol\":2130:2149  Reputation(0, true) */\n      iszero\n      iszero\n      dup2\n      mstore\n      pop\n        /* \"trustScore2-2.sol\":2110:2115  users */\n      0x00\n        /* \"trustScore2-2.sol\":2110:2127  users[msg.sender] */\n      dup1\n        /* \"trustScore2-2.sol\":2116:2126  msg.sender */\n      caller\n        /* \"trustScore2-2.sol\":2110:2127  users[msg.sender] */\n      0xffffffffffffffffffffffffffffffffffffffff\n      and\n      0xffffffffffffffffffffffffffffffffffffffff\n      and\n      dup2\n      mstore\n      0x20\n      add\n      swap1\n      dup2\n      mstore\n      0x20\n      add\n      0x00\n      keccak256\n        /* \"trustScore2-2.sol\":2110:2149  users[msg.sender] = Reputation(0, true) */\n      0x00\n      dup3\n      add\n      mload\n      dup2\n      0x00\n      add\n      sstore\n      0x20\n      dup3\n      add\n      mload\n      dup2\n      0x01\n      add\n      exp(0x0100, 0x00)\n      dup2\n      sload\n      dup2\n      0xff\n      mul\n      not\n      and\n      swap1\n      dup4\n      iszero\n      iszero\n      mul\n      or\n      swap1\n      sstore\n      pop\n      swap1\n      pop\n      pop\n        /* \"trustScore2-2.sol\":2177:2190  userAddresses */\n      0x01\n        /* \"trustScore2-2.sol\":2196:2206  msg.sender */\n      caller\n        /* \"trustScore2-2.sol\":2177:2207  userAddresses.push(msg.sender) */\n      swap1\n      dup1\n      0x01\n      dup2\n      sload\n      add\n      dup1\n      dup3\n      sstore\n      dup1\n      swap2\n      pop\n      pop\n      0x01\n      swap1\n      sub\n      swap1\n      0x00\n      mstore\n      keccak256(0x00, 0x20)\n      add\n      0x00\n      swap1\n      swap2\n      swap1\n      swap2\n      swap1\n      swap2\n      0x0100\n      exp\n      dup2\n      sload\n      dup2\n      0xffffffffffffffffffffffffffffffffffffffff\n      mul\n      not\n      and\n      swap1\n      dup4\n      0xffffffffffffffffffffffffffffffffffffffff\n      and\n      mul\n      or\n      swap1\n      sstore\n      pop\n        /* \"trustScore2-2.sol\":2006:2246  function registerUser() public {... */\n      jump\t// out\n        /* \"trustScore2-2.sol\":3254:3789  function confirmShipping(uint256 transactionId, uint256 phase2Duration) ... */\n    tag_33:\n        /* \"trustScore2-2.sol\":3359:3372  transactionId */\n      dup2\n        /* \"trustScore2-2.sol\":3374:3387  State.Pending */\n      0x00\n        /* \"trustScore2-2.sol\":1760:1773  requiredState */\n      dup1\n        /* \"trustScore2-2.sol\":1716:1773  transactions[transactionId].currentState == requiredState */\n      0x03\n      dup2\n      gt\n      iszero\n      tag_86\n      jumpi\n      tag_87\n      tag_58\n      jump\t// in\n    tag_87:\n    tag_86:\n        /* \"trustScore2-2.sol\":1716:1728  transactions */\n      0x02\n        /* \"trustScore2-2.sol\":1716:1743  transactions[transactionId] */\n      0x00\n        /* \"trustScore2-2.sol\":1729:1742  transactionId */\n      dup5\n        /* \"trustScore2-2.sol\":1716:1743  transactions[transactionId] */\n      dup2\n      mstore\n      0x20\n      add\n      swap1\n      dup2\n      mstore\n      0x20\n      add\n      0x00\n      keccak256\n        /* \"trustScore2-2.sol\":1716:1756  transactions[transactionId].currentState */\n      0x07\n      add\n      0x00\n      swap1\n      sload\n      swap1\n      0x0100\n      exp\n      swap1\n      div\n      0xff\n      and\n        /* \"trustScore2-2.sol\":1716:1773  transactions[transactionId].currentState == requiredState */\n      0x03\n      dup2\n      gt\n      iszero\n      tag_88\n      jumpi\n      tag_89\n      tag_58\n      jump\t// in\n    tag_89:\n    tag_88:\n      eq\n        /* \"trustScore2-2.sol\":1708:1807  require(transactions[transactionId].currentState == requiredState, \"Invalid state for this action\") */\n      tag_90\n      jumpi\n      mload(0x40)\n      0x08c379a000000000000000000000000000000000000000000000000000000000\n      dup2\n      mstore\n      0x04\n      add\n      tag_91\n      swap1\n      tag_63\n      jump\t// in\n    tag_91:\n      mload(0x40)\n      dup1\n      swap2\n      sub\n      swap1\n      revert\n    tag_90:\n        /* \"trustScore2-2.sol\":3409:3421  transactions */\n      0x02\n        /* \"trustScore2-2.sol\":3409:3436  transactions[transactionId] */\n      0x00\n        /* \"trustScore2-2.sol\":3422:3435  transactionId */\n      dup6\n        /* \"trustScore2-2.sol\":3409:3436  transactions[transactionId] */\n      dup2\n      mstore\n      0x20\n      add\n      swap1\n      dup2\n      mstore\n      0x20\n      add\n      0x00\n      keccak256\n        /* \"trustScore2-2.sol\":3409:3450  transactions[transactionId].phase1EndTime */\n      0x04\n      add\n      sload\n        /* \"trustScore2-2.sol\":1942:1950  deadline */\n      dup1\n        /* \"trustScore2-2.sol\":1923:1938  block.timestamp */\n      timestamp\n        /* \"trustScore2-2.sol\":1923:1950  block.timestamp <= deadline */\n      gt\n      iszero\n        /* \"trustScore2-2.sol\":1915:1982  require(block.timestamp <= deadline, \"Action is no longer allowed\") */\n      tag_93\n      jumpi\n      mload(0x40)\n      0x08c379a000000000000000000000000000000000000000000000000000000000\n      dup2\n      mstore\n      0x04\n      add\n      tag_94\n      swap1\n      tag_95\n      jump\t// in\n    tag_94:\n      mload(0x40)\n      dup1\n      swap2\n      sub\n      swap1\n      revert\n    tag_93:\n        /* \"trustScore2-2.sol\":3489:3501  transactions */\n      0x02\n        /* \"trustScore2-2.sol\":3489:3516  transactions[transactionId] */\n      0x00\n        /* \"trustScore2-2.sol\":3502:3515  transactionId */\n      dup7\n        /* \"trustScore2-2.sol\":3489:3516  transactions[transactionId] */\n      dup2\n      mstore\n      0x20\n      add\n      swap1\n      dup2\n      mstore\n      0x20\n      add\n      0x00\n      keccak256\n        /* \"trustScore2-2.sol\":3489:3528  transactions[transactionId].marketplace */\n      0x02\n      add\n      0x00\n      swap1\n      sload\n      swap1\n      0x0100\n      exp\n      swap1\n      div\n      0xffffffffffffffffffffffffffffffffffffffff\n      and\n        /* \"trustScore2-2.sol\":3475:3528  msg.sender == transactions[transactionId].marketplace */\n      0xffffffffffffffffffffffffffffffffffffffff\n      and\n        /* \"trustScore2-2.sol\":3475:3485  msg.sender */\n      caller\n        /* \"trustScore2-2.sol\":3475:3528  msg.sender == transactions[transactionId].marketplace */\n      0xffffffffffffffffffffffffffffffffffffffff\n      and\n      eq\n        /* \"trustScore2-2.sol\":3467:3570  require(msg.sender == transactions[transactionId].marketplace, \"Only marketplace can confirm shipping\") */\n      tag_97\n      jumpi\n      mload(0x40)\n      0x08c379a000000000000000000000000000000000000000000000000000000000\n      dup2\n      mstore\n      0x04\n      add\n      tag_98\n      swap1\n      tag_99\n      jump\t// in\n    tag_98:\n      mload(0x40)\n      dup1\n      swap2\n      sub\n      swap1\n      revert\n    tag_97:\n        /* \"trustScore2-2.sol\":3623:3637  State.Shipping */\n      0x01\n        /* \"trustScore2-2.sol\":3580:3592  transactions */\n      0x02\n        /* \"trustScore2-2.sol\":3580:3607  transactions[transactionId] */\n      0x00\n        /* \"trustScore2-2.sol\":3593:3606  transactionId */\n      dup8\n        /* \"trustScore2-2.sol\":3580:3607  transactions[transactionId] */\n      dup2\n      mstore\n      0x20\n      add\n      swap1\n      dup2\n      mstore\n      0x20\n      add\n      0x00\n      keccak256\n        /* \"trustScore2-2.sol\":3580:3620  transactions[transactionId].currentState */\n      0x07\n      add\n      0x00\n        /* \"trustScore2-2.sol\":3580:3637  transactions[transactionId].currentState = State.Shipping */\n      0x0100\n      exp\n      dup2\n      sload\n      dup2\n      0xff\n      mul\n      not\n      and\n      swap1\n      dup4\n      0x03\n      dup2\n      gt\n      iszero\n      tag_100\n      jumpi\n      tag_101\n      tag_58\n      jump\t// in\n    tag_101:\n    tag_100:\n      mul\n      or\n      swap1\n      sstore\n      pop\n        /* \"trustScore2-2.sol\":3709:3723  phase2Duration */\n      dup4\n        /* \"trustScore2-2.sol\":3691:3706  block.timestamp */\n      timestamp\n        /* \"trustScore2-2.sol\":3691:3723  block.timestamp + phase2Duration */\n      tag_102\n      swap2\n      swap1\n      tag_73\n      jump\t// in\n    tag_102:\n        /* \"trustScore2-2.sol\":3647:3659  transactions */\n      0x02\n        /* \"trustScore2-2.sol\":3647:3674  transactions[transactionId] */\n      0x00\n        /* \"trustScore2-2.sol\":3660:3673  transactionId */\n      dup8\n        /* \"trustScore2-2.sol\":3647:3674  transactions[transactionId] */\n      dup2\n      mstore\n      0x20\n      add\n      swap1\n      dup2\n      mstore\n      0x20\n      add\n      0x00\n      keccak256\n        /* \"trustScore2-2.sol\":3647:3688  transactions[transactionId].phase2EndTime */\n      0x05\n      add\n        /* \"trustScore2-2.sol\":3647:3723  transactions[transactionId].phase2EndTime = block.timestamp + phase2Duration */\n      dup2\n      swap1\n      sstore\n      pop\n        /* \"trustScore2-2.sol\":3739:3782  PhaseUpdated(transactionId, State.Shipping) */\n      0x3c2a09acd9b0d181128682f8a6f57cf164c482311208ecdcd6e65e33a8a98fd5\n        /* \"trustScore2-2.sol\":3752:3765  transactionId */\n      dup6\n        /* \"trustScore2-2.sol\":3767:3781  State.Shipping */\n      0x01\n        /* \"trustScore2-2.sol\":3739:3782  PhaseUpdated(transactionId, State.Shipping) */\n      mload(0x40)\n      tag_103\n      swap3\n      swap2\n      swap1\n      tag_75\n      jump\t// in\n    tag_103:\n      mload(0x40)\n      dup1\n      swap2\n      sub\n      swap1\n      log1\n        /* \"trustScore2-2.sol\":1817:1818  _ */\n      pop\n        /* \"trustScore2-2.sol\":3254:3789  function confirmShipping(uint256 transactionId, uint256 phase2Duration) ... */\n      pop\n      pop\n      pop\n      pop\n      jump\t// out\n        /* \"trustScore2-2.sol\":2455:3202  function initiateTransaction(address buyer, address seller ) public {... */\n    tag_37:\n        /* \"trustScore2-2.sol\":2533:2549  transactionCount */\n      0x04\n      0x00\n        /* \"trustScore2-2.sol\":2533:2551  transactionCount++ */\n      dup2\n      sload\n      dup1\n      swap3\n      swap2\n      swap1\n      tag_105\n      swap1\n      tag_106\n      jump\t// in\n    tag_105:\n      swap2\n      swap1\n      pop\n      sstore\n      pop\n        /* \"trustScore2-2.sol\":2561:2582  uint256 transactionId */\n      0x00\n        /* \"trustScore2-2.sol\":2585:2601  transactionCount */\n      sload(0x04)\n        /* \"trustScore2-2.sol\":2561:2601  uint256 transactionId = transactionCount */\n      swap1\n      pop\n        /* \"trustScore2-2.sol\":2642:3117  Transaction({... */\n      mload(0x40)\n      dup1\n      0x0140\n      add\n      0x40\n      mstore\n      dup1\n        /* \"trustScore2-2.sol\":2675:2680  buyer */\n      dup5\n        /* \"trustScore2-2.sol\":2642:3117  Transaction({... */\n      0xffffffffffffffffffffffffffffffffffffffff\n      and\n      dup2\n      mstore\n      0x20\n      add\n        /* \"trustScore2-2.sol\":2702:2708  seller */\n      dup4\n        /* \"trustScore2-2.sol\":2642:3117  Transaction({... */\n      0xffffffffffffffffffffffffffffffffffffffff\n      and\n      dup2\n      mstore\n      0x20\n      add\n        /* \"trustScore2-2.sol\":2735:2745  msg.sender */\n      caller\n        /* \"trustScore2-2.sol\":2642:3117  Transaction({... */\n      0xffffffffffffffffffffffffffffffffffffffff\n      and\n      dup2\n      mstore\n      0x20\n      add\n        /* \"trustScore2-2.sol\":2770:2785  block.timestamp */\n      timestamp\n        /* \"trustScore2-2.sol\":2642:3117  Transaction({... */\n      dup2\n      mstore\n      0x20\n      add\n        /* \"trustScore2-2.sol\":2832:2838  8 days */\n      0x0a8c00\n        /* \"trustScore2-2.sol\":2814:2829  block.timestamp */\n      timestamp\n        /* \"trustScore2-2.sol\":2814:2838  block.timestamp + 8 days */\n      tag_107\n      swap2\n      swap1\n      tag_73\n      jump\t// in\n    tag_107:\n        /* \"trustScore2-2.sol\":2642:3117  Transaction({... */\n      dup2\n      mstore\n      0x20\n      add\n        /* \"trustScore2-2.sol\":2867:2868  0 */\n      0x00\n        /* \"trustScore2-2.sol\":2642:3117  Transaction({... */\n      dup2\n      mstore\n      0x20\n      add\n        /* \"trustScore2-2.sol\":2931:2932  0 */\n      0x00\n        /* \"trustScore2-2.sol\":2642:3117  Transaction({... */\n      dup2\n      mstore\n      0x20\n      add\n        /* \"trustScore2-2.sol\":2981:2994  State.Pending */\n      0x00\n        /* \"trustScore2-2.sol\":2642:3117  Transaction({... */\n      0x03\n      dup2\n      gt\n      iszero\n      tag_108\n      jumpi\n      tag_109\n      tag_58\n      jump\t// in\n    tag_109:\n    tag_108:\n      dup2\n      mstore\n      0x20\n      add\n        /* \"trustScore2-2.sol\":3023:3044  DeliveryState.Shipped */\n      0x00\n        /* \"trustScore2-2.sol\":2642:3117  Transaction({... */\n      0x02\n      dup2\n      gt\n      iszero\n      tag_110\n      jumpi\n      tag_111\n      tag_58\n      jump\t// in\n    tag_111:\n    tag_110:\n      dup2\n      mstore\n      0x20\n      add\n        /* \"trustScore2-2.sol\":3101:3106  false */\n      0x00\n        /* \"trustScore2-2.sol\":2642:3117  Transaction({... */\n      iszero\n      iszero\n      dup2\n      mstore\n      pop\n        /* \"trustScore2-2.sol\":2612:2624  transactions */\n      0x02\n        /* \"trustScore2-2.sol\":2612:2639  transactions[transactionId] */\n      0x00\n        /* \"trustScore2-2.sol\":2625:2638  transactionId */\n      dup4\n        /* \"trustScore2-2.sol\":2612:2639  transactions[transactionId] */\n      dup2\n      mstore\n      0x20\n      add\n      swap1\n      dup2\n      mstore\n      0x20\n      add\n      0x00\n      keccak256\n        /* \"trustScore2-2.sol\":2612:3117  transactions[transactionId] = Transaction({... */\n      0x00\n      dup3\n      add\n      mload\n      dup2\n      0x00\n      add\n      exp(0x0100, 0x00)\n      dup2\n      sload\n      dup2\n      0xffffffffffffffffffffffffffffffffffffffff\n      mul\n      not\n      and\n      swap1\n      dup4\n      0xffffffffffffffffffffffffffffffffffffffff\n      and\n      mul\n      or\n      swap1\n      sstore\n      pop\n      0x20\n      dup3\n      add\n      mload\n      dup2\n      0x01\n      add\n      exp(0x0100, 0x00)\n      dup2\n      sload\n      dup2\n      0xffffffffffffffffffffffffffffffffffffffff\n      mul\n      not\n      and\n      swap1\n      dup4\n      0xffffffffffffffffffffffffffffffffffffffff\n      and\n      mul\n      or\n      swap1\n      sstore\n      pop\n      0x40\n      dup3\n      add\n      mload\n      dup2\n      0x02\n      add\n      exp(0x0100, 0x00)\n      dup2\n      sload\n      dup2\n      0xffffffffffffffffffffffffffffffffffffffff\n      mul\n      not\n      and\n      swap1\n      dup4\n      0xffffffffffffffffffffffffffffffffffffffff\n      and\n      mul\n      or\n      swap1\n      sstore\n      pop\n      0x60\n      dup3\n      add\n      mload\n      dup2\n      0x03\n      add\n      sstore\n      0x80\n      dup3\n      add\n      mload\n      dup2\n      0x04\n      add\n      sstore\n      0xa0\n      dup3\n      add\n      mload\n      dup2\n      0x05\n      add\n      sstore\n      0xc0\n      dup3\n      add\n      mload\n      dup2\n      0x06\n      add\n      sstore\n      0xe0\n      dup3\n      add\n      mload\n      dup2\n      0x07\n      add\n      exp(0x0100, 0x00)\n      dup2\n      sload\n      dup2\n      0xff\n      mul\n      not\n      and\n      swap1\n      dup4\n      0x03\n      dup2\n      gt\n      iszero\n      tag_112\n      jumpi\n      tag_113\n      tag_58\n      jump\t// in\n    tag_113:\n    tag_112:\n      mul\n      or\n      swap1\n      sstore\n      pop\n      0x0100\n      dup3\n      add\n      mload\n      dup2\n      0x07\n      add\n      exp(0x0100, 0x01)\n      dup2\n      sload\n      dup2\n      0xff\n      mul\n      not\n      and\n      swap1\n      dup4\n      0x02\n      dup2\n      gt\n      iszero\n      tag_114\n      jumpi\n      tag_115\n      tag_58\n      jump\t// in\n    tag_115:\n    tag_114:\n      mul\n      or\n      swap1\n      sstore\n      pop\n      0x0120\n      dup3\n      add\n      mload\n      dup2\n      0x07\n      add\n      exp(0x0100, 0x02)\n      dup2\n      sload\n      dup2\n      0xff\n      mul\n      not\n      and\n      swap1\n      dup4\n      iszero\n      iszero\n      mul\n      or\n      swap1\n      sstore\n      pop\n      swap1\n      pop\n      pop\n        /* \"trustScore2-2.sol\":3133:3195  TransactionInitiated(transactionId,buyer, seller,  msg.sender) */\n      0xd6fd21a60c3540a4a80a924752f808251aa55566173cfdafcc1eea12e6b3ca88\n        /* \"trustScore2-2.sol\":3154:3167  transactionId */\n      dup2\n        /* \"trustScore2-2.sol\":3168:3173  buyer */\n      dup5\n        /* \"trustScore2-2.sol\":3175:3181  seller */\n      dup5\n        /* \"trustScore2-2.sol\":3184:3194  msg.sender */\n      caller\n        /* \"trustScore2-2.sol\":3133:3195  TransactionInitiated(transactionId,buyer, seller,  msg.sender) */\n      mload(0x40)\n      tag_116\n      swap5\n      swap4\n      swap3\n      swap2\n      swap1\n      tag_117\n      jump\t// in\n    tag_116:\n      mload(0x40)\n      dup1\n      swap2\n      sub\n      swap1\n      log1\n        /* \"trustScore2-2.sol\":2523:3202  {... */\n      pop\n        /* \"trustScore2-2.sol\":2455:3202  function initiateTransaction(address buyer, address seller ) public {... */\n      pop\n      pop\n      jump\t// out\n        /* \"trustScore2-2.sol\":1124:1175  mapping(uint256 => Transaction) public transactions */\n    tag_40:\n      mstore(0x20, 0x02)\n      dup1\n      0x00\n      mstore\n      keccak256(0x00, 0x40)\n      0x00\n      swap2\n      pop\n      swap1\n      pop\n      dup1\n      0x00\n      add\n      0x00\n      swap1\n      sload\n      swap1\n      0x0100\n      exp\n      swap1\n      div\n      0xffffffffffffffffffffffffffffffffffffffff\n      and\n      swap1\n      dup1\n      0x01\n      add\n      0x00\n      swap1\n      sload\n      swap1\n      0x0100\n      exp\n      swap1\n      div\n      0xffffffffffffffffffffffffffffffffffffffff\n      and\n      swap1\n      dup1\n      0x02\n      add\n      0x00\n      swap1\n      sload\n      swap1\n      0x0100\n      exp\n      swap1\n      div\n      0xffffffffffffffffffffffffffffffffffffffff\n      and\n      swap1\n      dup1\n      0x03\n      add\n      sload\n      swap1\n      dup1\n      0x04\n      add\n      sload\n      swap1\n      dup1\n      0x05\n      add\n      sload\n      swap1\n      dup1\n      0x06\n      add\n      sload\n      swap1\n      dup1\n      0x07\n      add\n      0x00\n      swap1\n      sload\n      swap1\n      0x0100\n      exp\n      swap1\n      div\n      0xff\n      and\n      swap1\n      dup1\n      0x07\n      add\n      0x01\n      swap1\n      sload\n      swap1\n      0x0100\n      exp\n      swap1\n      div\n      0xff\n      and\n      swap1\n      dup1\n      0x07\n      add\n      0x02\n      swap1\n      sload\n      swap1\n      0x0100\n      exp\n      swap1\n      div\n      0xff\n      and\n      swap1\n      pop\n      dup11\n      jump\t// out\n        /* \"trustScore2-2.sol\":4553:5348  function BuyerConfirmGoods(uint256 transactionId, bool goodsOk) ... */\n    tag_46:\n        /* \"trustScore2-2.sol\":4650:4663  transactionId */\n      dup2\n        /* \"trustScore2-2.sol\":4665:4680  State.Delivered */\n      0x02\n        /* \"trustScore2-2.sol\":1760:1773  requiredState */\n      dup1\n        /* \"trustScore2-2.sol\":1716:1773  transactions[transactionId].currentState == requiredState */\n      0x03\n      dup2\n      gt\n      iszero\n      tag_119\n      jumpi\n      tag_120\n      tag_58\n      jump\t// in\n    tag_120:\n    tag_119:\n        /* \"trustScore2-2.sol\":1716:1728  transactions */\n      0x02\n        /* \"trustScore2-2.sol\":1716:1743  transactions[transactionId] */\n      0x00\n        /* \"trustScore2-2.sol\":1729:1742  transactionId */\n      dup5\n        /* \"trustScore2-2.sol\":1716:1743  transactions[transactionId] */\n      dup2\n      mstore\n      0x20\n      add\n      swap1\n      dup2\n      mstore\n      0x20\n      add\n      0x00\n      keccak256\n        /* \"trustScore2-2.sol\":1716:1756  transactions[transactionId].currentState */\n      0x07\n      add\n      0x00\n      swap1\n      sload\n      swap1\n      0x0100\n      exp\n      swap1\n      div\n      0xff\n      and\n        /* \"trustScore2-2.sol\":1716:1773  transactions[transactionId].currentState == requiredState */\n      0x03\n      dup2\n      gt\n      iszero\n      tag_121\n      jumpi\n      tag_122\n      tag_58\n      jump\t// in\n    tag_122:\n    tag_121:\n      eq\n        /* \"trustScore2-2.sol\":1708:1807  require(transactions[transactionId].currentState == requiredState, \"Invalid state for this action\") */\n      tag_123\n      jumpi\n      mload(0x40)\n      0x08c379a000000000000000000000000000000000000000000000000000000000\n      dup2\n      mstore\n      0x04\n      add\n      tag_124\n      swap1\n      tag_63\n      jump\t// in\n    tag_124:\n      mload(0x40)\n      dup1\n      swap2\n      sub\n      swap1\n      revert\n    tag_123:\n        /* \"trustScore2-2.sol\":4785:4797  transactions */\n      0x02\n        /* \"trustScore2-2.sol\":4785:4812  transactions[transactionId] */\n      0x00\n        /* \"trustScore2-2.sol\":4798:4811  transactionId */\n      dup6\n        /* \"trustScore2-2.sol\":4785:4812  transactions[transactionId] */\n      dup2\n      mstore\n      0x20\n      add\n      swap1\n      dup2\n      mstore\n      0x20\n      add\n      0x00\n      keccak256\n        /* \"trustScore2-2.sol\":4785:4818  transactions[transactionId].buyer */\n      0x00\n      add\n      0x00\n      swap1\n      sload\n      swap1\n      0x0100\n      exp\n      swap1\n      div\n      0xffffffffffffffffffffffffffffffffffffffff\n      and\n        /* \"trustScore2-2.sol\":4771:4818  msg.sender == transactions[transactionId].buyer */\n      0xffffffffffffffffffffffffffffffffffffffff\n      and\n        /* \"trustScore2-2.sol\":4771:4781  msg.sender */\n      caller\n        /* \"trustScore2-2.sol\":4771:4818  msg.sender == transactions[transactionId].buyer */\n      0xffffffffffffffffffffffffffffffffffffffff\n      and\n      eq\n        /* \"trustScore2-2.sol\":4763:4851  require(msg.sender == transactions[transactionId].buyer, \"Only buyer can confirm goods\") */\n      tag_126\n      jumpi\n      mload(0x40)\n      0x08c379a000000000000000000000000000000000000000000000000000000000\n      dup2\n      mstore\n      0x04\n      add\n      tag_127\n      swap1\n      tag_128\n      jump\t// in\n    tag_127:\n      mload(0x40)\n      dup1\n      swap2\n      sub\n      swap1\n      revert\n    tag_126:\n        /* \"trustScore2-2.sol\":4901:4905  true */\n      0x01\n        /* \"trustScore2-2.sol\":4861:4873  transactions */\n      0x02\n        /* \"trustScore2-2.sol\":4861:4888  transactions[transactionId] */\n      0x00\n        /* \"trustScore2-2.sol\":4874:4887  transactionId */\n      dup7\n        /* \"trustScore2-2.sol\":4861:4888  transactions[transactionId] */\n      dup2\n      mstore\n      0x20\n      add\n      swap1\n      dup2\n      mstore\n      0x20\n      add\n      0x00\n      keccak256\n        /* \"trustScore2-2.sol\":4861:4898  transactions[transactionId].finalized */\n      0x07\n      add\n      0x02\n        /* \"trustScore2-2.sol\":4861:4905  transactions[transactionId].finalized = true */\n      0x0100\n      exp\n      dup2\n      sload\n      dup2\n      0xff\n      mul\n      not\n      and\n      swap1\n      dup4\n      iszero\n      iszero\n      mul\n      or\n      swap1\n      sstore\n      pop\n        /* \"trustScore2-2.sol\":4956:4963  goodsOk */\n      dup3\n        /* \"trustScore2-2.sol\":4952:5285  if (goodsOk) {... */\n      iszero\n      tag_129\n      jumpi\n        /* \"trustScore2-2.sol\":5035:5036  5 */\n      0x05\n        /* \"trustScore2-2.sol\":4979:4990  reputations */\n      0x03\n        /* \"trustScore2-2.sol\":4979:5025  reputations[transactions[transactionId].buyer] */\n      0x00\n        /* \"trustScore2-2.sol\":4991:5003  transactions */\n      0x02\n        /* \"trustScore2-2.sol\":4991:5018  transactions[transactionId] */\n      0x00\n        /* \"trustScore2-2.sol\":5004:5017  transactionId */\n      dup9\n        /* \"trustScore2-2.sol\":4991:5018  transactions[transactionId] */\n      dup2\n      mstore\n      0x20\n      add\n      swap1\n      dup2\n      mstore\n      0x20\n      add\n      0x00\n      keccak256\n        /* \"trustScore2-2.sol\":4991:5024  transactions[transactionId].buyer */\n      0x00\n      add\n      0x00\n      swap1\n      sload\n      swap1\n      0x0100\n      exp\n      swap1\n      div\n      0xffffffffffffffffffffffffffffffffffffffff\n      and\n        /* \"trustScore2-2.sol\":4979:5025  reputations[transactions[transactionId].buyer] */\n      0xffffffffffffffffffffffffffffffffffffffff\n      and\n      0xffffffffffffffffffffffffffffffffffffffff\n      and\n      dup2\n      mstore\n      0x20\n      add\n      swap1\n      dup2\n      mstore\n      0x20\n      add\n      0x00\n      keccak256\n        /* \"trustScore2-2.sol\":4979:5031  reputations[transactions[transactionId].buyer].score */\n      0x00\n      add\n      0x00\n        /* \"trustScore2-2.sol\":4979:5036  reputations[transactions[transactionId].buyer].score += 5 */\n      dup3\n      dup3\n      sload\n      tag_130\n      swap2\n      swap1\n      tag_73\n      jump\t// in\n    tag_130:\n      swap3\n      pop\n      pop\n      dup2\n      swap1\n      sstore\n      pop\n        /* \"trustScore2-2.sol\":5107:5108  5 */\n      0x05\n        /* \"trustScore2-2.sol\":5050:5061  reputations */\n      0x03\n        /* \"trustScore2-2.sol\":5050:5097  reputations[transactions[transactionId].seller] */\n      0x00\n        /* \"trustScore2-2.sol\":5062:5074  transactions */\n      0x02\n        /* \"trustScore2-2.sol\":5062:5089  transactions[transactionId] */\n      0x00\n        /* \"trustScore2-2.sol\":5075:5088  transactionId */\n      dup9\n        /* \"trustScore2-2.sol\":5062:5089  transactions[transactionId] */\n      dup2\n      mstore\n      0x20\n      add\n      swap1\n      dup2\n      mstore\n      0x20\n      add\n      0x00\n      keccak256\n        /* \"trustScore2-2.sol\":5062:5096  transactions[transactionId].seller */\n      0x01\n      add\n      0x00\n      swap1\n      sload\n      swap1\n      0x0100\n      exp\n      swap1\n      div\n      0xffffffffffffffffffffffffffffffffffffffff\n      and\n        /* \"trustScore2-2.sol\":5050:5097  reputations[transactions[transactionId].seller] */\n      0xffffffffffffffffffffffffffffffffffffffff\n      and\n      0xffffffffffffffffffffffffffffffffffffffff\n      and\n      dup2\n      mstore\n      0x20\n      add\n      swap1\n      dup2\n      mstore\n      0x20\n      add\n      0x00\n      keccak256\n        /* \"trustScore2-2.sol\":5050:5103  reputations[transactions[transactionId].seller].score */\n      0x00\n      add\n      0x00\n        /* \"trustScore2-2.sol\":5050:5108  reputations[transactions[transactionId].seller].score += 5 */\n      dup3\n      dup3\n      sload\n      tag_131\n      swap2\n      swap1\n      tag_73\n      jump\t// in\n    tag_131:\n      swap3\n      pop\n      pop\n      dup2\n      swap1\n      sstore\n      pop\n        /* \"trustScore2-2.sol\":5184:5185  5 */\n      0x05\n        /* \"trustScore2-2.sol\":5122:5133  reputations */\n      0x03\n        /* \"trustScore2-2.sol\":5122:5174  reputations[transactions[transactionId].marketplace] */\n      0x00\n        /* \"trustScore2-2.sol\":5134:5146  transactions */\n      0x02\n        /* \"trustScore2-2.sol\":5134:5161  transactions[transactionId] */\n      0x00\n        /* \"trustScore2-2.sol\":5147:5160  transactionId */\n      dup9\n        /* \"trustScore2-2.sol\":5134:5161  transactions[transactionId] */\n      dup2\n      mstore\n      0x20\n      add\n      swap1\n      dup2\n      mstore\n      0x20\n      add\n      0x00\n      keccak256\n        /* \"trustScore2-2.sol\":5134:5173  transactions[transactionId].marketplace */\n      0x02\n      add\n      0x00\n      swap1\n      sload\n      swap1\n      0x0100\n      exp\n      swap1\n      div\n      0xffffffffffffffffffffffffffffffffffffffff\n      and\n        /* \"trustScore2-2.sol\":5122:5174  reputations[transactions[transactionId].marketplace] */\n      0xffffffffffffffffffffffffffffffffffffffff\n      and\n      0xffffffffffffffffffffffffffffffffffffffff\n      and\n      dup2\n      mstore\n      0x20\n      add\n      swap1\n      dup2\n      mstore\n      0x20\n      add\n      0x00\n      keccak256\n        /* \"trustScore2-2.sol\":5122:5180  reputations[transactions[transactionId].marketplace].score */\n      0x00\n      add\n      0x00\n        /* \"trustScore2-2.sol\":5122:5185  reputations[transactions[transactionId].marketplace].score += 5 */\n      dup3\n      dup3\n      sload\n      tag_132\n      swap2\n      swap1\n      tag_73\n      jump\t// in\n    tag_132:\n      swap3\n      pop\n      pop\n      dup2\n      swap1\n      sstore\n      pop\n        /* \"trustScore2-2.sol\":4952:5285  if (goodsOk) {... */\n      jump(tag_133)\n    tag_129:\n        /* \"trustScore2-2.sol\":5273:5274  5 */\n      0x05\n        /* \"trustScore2-2.sol\":5216:5227  reputations */\n      0x03\n        /* \"trustScore2-2.sol\":5216:5263  reputations[transactions[transactionId].seller] */\n      0x00\n        /* \"trustScore2-2.sol\":5228:5240  transactions */\n      0x02\n        /* \"trustScore2-2.sol\":5228:5255  transactions[transactionId] */\n      0x00\n        /* \"trustScore2-2.sol\":5241:5254  transactionId */\n      dup9\n        /* \"trustScore2-2.sol\":5228:5255  transactions[transactionId] */\n      dup2\n      mstore\n      0x20\n      add\n      swap1\n      dup2\n      mstore\n      0x20\n      add\n      0x00\n      keccak256\n        /* \"trustScore2-2.sol\":5228:5262  transactions[transactionId].seller */\n      0x01\n      add\n      0x00\n      swap1\n      sload\n      swap1\n      0x0100\n      exp\n      swap1\n      div\n      0xffffffffffffffffffffffffffffffffffffffff\n      and\n        /* \"trustScore2-2.sol\":5216:5263  reputations[transactions[transactionId].seller] */\n      0xffffffffffffffffffffffffffffffffffffffff\n      and\n      0xffffffffffffffffffffffffffffffffffffffff\n      and\n      dup2\n      mstore\n      0x20\n      add\n      swap1\n      dup2\n      mstore\n      0x20\n      add\n      0x00\n      keccak256\n        /* \"trustScore2-2.sol\":5216:5269  reputations[transactions[transactionId].seller].score */\n      0x00\n      add\n      0x00\n        /* \"trustScore2-2.sol\":5216:5274  reputations[transactions[transactionId].seller].score -= 5 */\n      dup3\n      dup3\n      sload\n      tag_134\n      swap2\n      swap1\n      tag_135\n      jump\t// in\n    tag_134:\n      swap3\n      pop\n      pop\n      dup2\n      swap1\n      sstore\n      pop\n        /* \"trustScore2-2.sol\":4952:5285  if (goodsOk) {... */\n    tag_133:\n        /* \"trustScore2-2.sol\":5300:5341  TransactionFinalized(transactionId, true) */\n      0x19bf9ce0b6f41c705c17ecad634e22187a9c311d4ea093b2a979703ce52ac86d\n        /* \"trustScore2-2.sol\":5321:5334  transactionId */\n      dup5\n        /* \"trustScore2-2.sol\":5336:5340  true */\n      0x01\n        /* \"trustScore2-2.sol\":5300:5341  TransactionFinalized(transactionId, true) */\n      mload(0x40)\n      tag_136\n      swap3\n      swap2\n      swap1\n      tag_19\n      jump\t// in\n    tag_136:\n      mload(0x40)\n      dup1\n      swap2\n      sub\n      swap1\n      log1\n        /* \"trustScore2-2.sol\":4553:5348  function BuyerConfirmGoods(uint256 transactionId, bool goodsOk) ... */\n      pop\n      pop\n      pop\n      pop\n      jump\t// out\n        /* \"trustScore2-2.sol\":1314:1345  uint256 public transactionCount */\n    tag_48:\n      sload(0x04)\n      dup2\n      jump\t// out\n        /* \"trustScore2-2.sol\":2308:2407  function getAllUsers() public view returns (address[] memory) {... */\n    tag_52:\n        /* \"trustScore2-2.sol\":2352:2368  address[] memory */\n      0x60\n        /* \"trustScore2-2.sol\":2387:2400  userAddresses */\n      0x01\n        /* \"trustScore2-2.sol\":2380:2400  return userAddresses */\n      dup1\n      sload\n      dup1\n      0x20\n      mul\n      0x20\n      add\n      mload(0x40)\n      swap1\n      dup2\n      add\n      0x40\n      mstore\n      dup1\n      swap3\n      swap2\n      swap1\n      dup2\n      dup2\n      mstore\n      0x20\n      add\n      dup3\n      dup1\n      sload\n      dup1\n      iszero\n      tag_138\n      jumpi\n      0x20\n      mul\n      dup3\n      add\n      swap2\n      swap1\n      0x00\n      mstore\n      keccak256(0x00, 0x20)\n      swap1\n    tag_139:\n      dup2\n      0x00\n      swap1\n      sload\n      swap1\n      0x0100\n      exp\n      swap1\n      div\n      0xffffffffffffffffffffffffffffffffffffffff\n      and\n      0xffffffffffffffffffffffffffffffffffffffff\n      and\n      dup2\n      mstore\n      0x20\n      add\n      swap1\n      0x01\n      add\n      swap1\n      dup1\n      dup4\n      gt\n      tag_139\n      jumpi\n    tag_138:\n      pop\n      pop\n      pop\n      pop\n      pop\n      swap1\n      pop\n        /* \"trustScore2-2.sol\":2308:2407  function getAllUsers() public view returns (address[] memory) {... */\n      swap1\n      jump\t// out\n        /* \"#utility.yul\":88:205   */\n    tag_141:\n        /* \"#utility.yul\":197:198   */\n      0x00\n        /* \"#utility.yul\":194:195   */\n      dup1\n        /* \"#utility.yul\":187:199   */\n      revert\n        /* \"#utility.yul\":334:460   */\n    tag_143:\n        /* \"#utility.yul\":371:378   */\n      0x00\n        /* \"#utility.yul\":411:453   */\n      0xffffffffffffffffffffffffffffffffffffffff\n        /* \"#utility.yul\":404:409   */\n      dup3\n        /* \"#utility.yul\":400:454   */\n      and\n        /* \"#utility.yul\":389:454   */\n      swap1\n      pop\n        /* \"#utility.yul\":334:460   */\n      swap2\n      swap1\n      pop\n      jump\t// out\n        /* \"#utility.yul\":466:562   */\n    tag_144:\n        /* \"#utility.yul\":503:510   */\n      0x00\n        /* \"#utility.yul\":532:556   */\n      tag_193\n        /* \"#utility.yul\":550:555   */\n      dup3\n        /* \"#utility.yul\":532:556   */\n      tag_143\n      jump\t// in\n    tag_193:\n        /* \"#utility.yul\":521:556   */\n      swap1\n      pop\n        /* \"#utility.yul\":466:562   */\n      swap2\n      swap1\n      pop\n      jump\t// out\n        /* \"#utility.yul\":568:690   */\n    tag_145:\n        /* \"#utility.yul\":641:665   */\n      tag_195\n        /* \"#utility.yul\":659:664   */\n      dup2\n        /* \"#utility.yul\":641:665   */\n      tag_144\n      jump\t// in\n    tag_195:\n        /* \"#utility.yul\":634:639   */\n      dup2\n        /* \"#utility.yul\":631:666   */\n      eq\n        /* \"#utility.yul\":621:684   */\n      tag_196\n      jumpi\n        /* \"#utility.yul\":680:681   */\n      0x00\n        /* \"#utility.yul\":677:678   */\n      dup1\n        /* \"#utility.yul\":670:682   */\n      revert\n        /* \"#utility.yul\":621:684   */\n    tag_196:\n        /* \"#utility.yul\":568:690   */\n      pop\n      jump\t// out\n        /* \"#utility.yul\":696:835   */\n    tag_146:\n        /* \"#utility.yul\":742:747   */\n      0x00\n        /* \"#utility.yul\":780:786   */\n      dup2\n        /* \"#utility.yul\":767:787   */\n      calldataload\n        /* \"#utility.yul\":758:787   */\n      swap1\n      pop\n        /* \"#utility.yul\":796:829   */\n      tag_198\n        /* \"#utility.yul\":823:828   */\n      dup2\n        /* \"#utility.yul\":796:829   */\n      tag_145\n      jump\t// in\n    tag_198:\n        /* \"#utility.yul\":696:835   */\n      swap3\n      swap2\n      pop\n      pop\n      jump\t// out\n        /* \"#utility.yul\":841:1170   */\n    tag_16:\n        /* \"#utility.yul\":900:906   */\n      0x00\n        /* \"#utility.yul\":949:951   */\n      0x20\n        /* \"#utility.yul\":937:946   */\n      dup3\n        /* \"#utility.yul\":928:935   */\n      dup5\n        /* \"#utility.yul\":924:947   */\n      sub\n        /* \"#utility.yul\":920:952   */\n      slt\n        /* \"#utility.yul\":917:1036   */\n      iszero\n      tag_200\n      jumpi\n        /* \"#utility.yul\":955:1034   */\n      tag_201\n      tag_141\n      jump\t// in\n    tag_201:\n        /* \"#utility.yul\":917:1036   */\n    tag_200:\n        /* \"#utility.yul\":1075:1076   */\n      0x00\n        /* \"#utility.yul\":1100:1153   */\n      tag_202\n        /* \"#utility.yul\":1145:1152   */\n      dup5\n        /* \"#utility.yul\":1136:1142   */\n      dup3\n        /* \"#utility.yul\":1125:1134   */\n      dup6\n        /* \"#utility.yul\":1121:1143   */\n      add\n        /* \"#utility.yul\":1100:1153   */\n      tag_146\n      jump\t// in\n    tag_202:\n        /* \"#utility.yul\":1090:1153   */\n      swap2\n      pop\n        /* \"#utility.yul\":1046:1163   */\n      pop\n        /* \"#utility.yul\":841:1170   */\n      swap3\n      swap2\n      pop\n      pop\n      jump\t// out\n        /* \"#utility.yul\":1176:1253   */\n    tag_147:\n        /* \"#utility.yul\":1213:1220   */\n      0x00\n        /* \"#utility.yul\":1242:1247   */\n      dup2\n        /* \"#utility.yul\":1231:1247   */\n      swap1\n      pop\n        /* \"#utility.yul\":1176:1253   */\n      swap2\n      swap1\n      pop\n      jump\t// out\n        /* \"#utility.yul\":1259:1377   */\n    tag_148:\n        /* \"#utility.yul\":1346:1370   */\n      tag_205\n        /* \"#utility.yul\":1364:1369   */\n      dup2\n        /* \"#utility.yul\":1346:1370   */\n      tag_147\n      jump\t// in\n    tag_205:\n        /* \"#utility.yul\":1341:1344   */\n      dup3\n        /* \"#utility.yul\":1334:1371   */\n      mstore\n        /* \"#utility.yul\":1259:1377   */\n      pop\n      pop\n      jump\t// out\n        /* \"#utility.yul\":1383:1473   */\n    tag_149:\n        /* \"#utility.yul\":1417:1424   */\n      0x00\n        /* \"#utility.yul\":1460:1465   */\n      dup2\n        /* \"#utility.yul\":1453:1466   */\n      iszero\n        /* \"#utility.yul\":1446:1467   */\n      iszero\n        /* \"#utility.yul\":1435:1467   */\n      swap1\n      pop\n        /* \"#utility.yul\":1383:1473   */\n      swap2\n      swap1\n      pop\n      jump\t// out\n        /* \"#utility.yul\":1479:1588   */\n    tag_150:\n        /* \"#utility.yul\":1560:1581   */\n      tag_208\n        /* \"#utility.yul\":1575:1580   */\n      dup2\n        /* \"#utility.yul\":1560:1581   */\n      tag_149\n      jump\t// in\n    tag_208:\n        /* \"#utility.yul\":1555:1558   */\n      dup3\n        /* \"#utility.yul\":1548:1582   */\n      mstore\n        /* \"#utility.yul\":1479:1588   */\n      pop\n      pop\n      jump\t// out\n        /* \"#utility.yul\":1594:1914   */\n    tag_19:\n        /* \"#utility.yul\":1709:1713   */\n      0x00\n        /* \"#utility.yul\":1747:1749   */\n      0x40\n        /* \"#utility.yul\":1736:1745   */\n      dup3\n        /* \"#utility.yul\":1732:1750   */\n      add\n        /* \"#utility.yul\":1724:1750   */\n      swap1\n      pop\n        /* \"#utility.yul\":1760:1831   */\n      tag_210\n        /* \"#utility.yul\":1828:1829   */\n      0x00\n        /* \"#utility.yul\":1817:1826   */\n      dup4\n        /* \"#utility.yul\":1813:1830   */\n      add\n        /* \"#utility.yul\":1804:1810   */\n      dup6\n        /* \"#utility.yul\":1760:1831   */\n      tag_148\n      jump\t// in\n    tag_210:\n        /* \"#utility.yul\":1841:1907   */\n      tag_211\n        /* \"#utility.yul\":1903:1905   */\n      0x20\n        /* \"#utility.yul\":1892:1901   */\n      dup4\n        /* \"#utility.yul\":1888:1906   */\n      add\n        /* \"#utility.yul\":1879:1885   */\n      dup5\n        /* \"#utility.yul\":1841:1907   */\n      tag_150\n      jump\t// in\n    tag_211:\n        /* \"#utility.yul\":1594:1914   */\n      swap4\n      swap3\n      pop\n      pop\n      pop\n      jump\t// out\n        /* \"#utility.yul\":1920:2042   */\n    tag_151:\n        /* \"#utility.yul\":1993:2017   */\n      tag_213\n        /* \"#utility.yul\":2011:2016   */\n      dup2\n        /* \"#utility.yul\":1993:2017   */\n      tag_147\n      jump\t// in\n    tag_213:\n        /* \"#utility.yul\":1986:1991   */\n      dup2\n        /* \"#utility.yul\":1983:2018   */\n      eq\n        /* \"#utility.yul\":1973:2036   */\n      tag_214\n      jumpi\n        /* \"#utility.yul\":2032:2033   */\n      0x00\n        /* \"#utility.yul\":2029:2030   */\n      dup1\n        /* \"#utility.yul\":2022:2034   */\n      revert\n        /* \"#utility.yul\":1973:2036   */\n    tag_214:\n        /* \"#utility.yul\":1920:2042   */\n      pop\n      jump\t// out\n        /* \"#utility.yul\":2048:2187   */\n    tag_152:\n        /* \"#utility.yul\":2094:2099   */\n      0x00\n        /* \"#utility.yul\":2132:2138   */\n      dup2\n        /* \"#utility.yul\":2119:2139   */\n      calldataload\n        /* \"#utility.yul\":2110:2139   */\n      swap1\n      pop\n        /* \"#utility.yul\":2148:2181   */\n      tag_216\n        /* \"#utility.yul\":2175:2180   */\n      dup2\n        /* \"#utility.yul\":2148:2181   */\n      tag_151\n      jump\t// in\n    tag_216:\n        /* \"#utility.yul\":2048:2187   */\n      swap3\n      swap2\n      pop\n      pop\n      jump\t// out\n        /* \"#utility.yul\":2193:2308   */\n    tag_153:\n        /* \"#utility.yul\":2282:2283   */\n      0x03\n        /* \"#utility.yul\":2275:2280   */\n      dup2\n        /* \"#utility.yul\":2272:2284   */\n      lt\n        /* \"#utility.yul\":2262:2302   */\n      tag_218\n      jumpi\n        /* \"#utility.yul\":2298:2299   */\n      0x00\n        /* \"#utility.yul\":2295:2296   */\n      dup1\n        /* \"#utility.yul\":2288:2300   */\n      revert\n        /* \"#utility.yul\":2262:2302   */\n    tag_218:\n        /* \"#utility.yul\":2193:2308   */\n      pop\n      jump\t// out\n        /* \"#utility.yul\":2314:2485   */\n    tag_154:\n        /* \"#utility.yul\":2376:2381   */\n      0x00\n        /* \"#utility.yul\":2414:2420   */\n      dup2\n        /* \"#utility.yul\":2401:2421   */\n      calldataload\n        /* \"#utility.yul\":2392:2421   */\n      swap1\n      pop\n        /* \"#utility.yul\":2430:2479   */\n      tag_220\n        /* \"#utility.yul\":2473:2478   */\n      dup2\n        /* \"#utility.yul\":2430:2479   */\n      tag_153\n      jump\t// in\n    tag_220:\n        /* \"#utility.yul\":2314:2485   */\n      swap3\n      swap2\n      pop\n      pop\n      jump\t// out\n        /* \"#utility.yul\":2491:3142   */\n    tag_22:\n        /* \"#utility.yul\":2584:2590   */\n      0x00\n        /* \"#utility.yul\":2592:2598   */\n      dup1\n        /* \"#utility.yul\":2600:2606   */\n      0x00\n        /* \"#utility.yul\":2649:2651   */\n      0x60\n        /* \"#utility.yul\":2637:2646   */\n      dup5\n        /* \"#utility.yul\":2628:2635   */\n      dup7\n        /* \"#utility.yul\":2624:2647   */\n      sub\n        /* \"#utility.yul\":2620:2652   */\n      slt\n        /* \"#utility.yul\":2617:2736   */\n      iszero\n      tag_222\n      jumpi\n        /* \"#utility.yul\":2655:2734   */\n      tag_223\n      tag_141\n      jump\t// in\n    tag_223:\n        /* \"#utility.yul\":2617:2736   */\n    tag_222:\n        /* \"#utility.yul\":2775:2776   */\n      0x00\n        /* \"#utility.yul\":2800:2853   */\n      tag_224\n        /* \"#utility.yul\":2845:2852   */\n      dup7\n        /* \"#utility.yul\":2836:2842   */\n      dup3\n        /* \"#utility.yul\":2825:2834   */\n      dup8\n        /* \"#utility.yul\":2821:2843   */\n      add\n        /* \"#utility.yul\":2800:2853   */\n      tag_152\n      jump\t// in\n    tag_224:\n        /* \"#utility.yul\":2790:2853   */\n      swap4\n      pop\n        /* \"#utility.yul\":2746:2863   */\n      pop\n        /* \"#utility.yul\":2902:2904   */\n      0x20\n        /* \"#utility.yul\":2928:2997   */\n      tag_225\n        /* \"#utility.yul\":2989:2996   */\n      dup7\n        /* \"#utility.yul\":2980:2986   */\n      dup3\n        /* \"#utility.yul\":2969:2978   */\n      dup8\n        /* \"#utility.yul\":2965:2987   */\n      add\n        /* \"#utility.yul\":2928:2997   */\n      tag_154\n      jump\t// in\n    tag_225:\n        /* \"#utility.yul\":2918:2997   */\n      swap3\n      pop\n        /* \"#utility.yul\":2873:3007   */\n      pop\n        /* \"#utility.yul\":3046:3048   */\n      0x40\n        /* \"#utility.yul\":3072:3125   */\n      tag_226\n        /* \"#utility.yul\":3117:3124   */\n      dup7\n        /* \"#utility.yul\":3108:3114   */\n      dup3\n        /* \"#utility.yul\":3097:3106   */\n      dup8\n        /* \"#utility.yul\":3093:3115   */\n      add\n        /* \"#utility.yul\":3072:3125   */\n      tag_152\n      jump\t// in\n    tag_226:\n        /* \"#utility.yul\":3062:3125   */\n      swap2\n      pop\n        /* \"#utility.yul\":3017:3135   */\n      pop\n        /* \"#utility.yul\":2491:3142   */\n      swap3\n      pop\n      swap3\n      pop\n      swap3\n      jump\t// out\n        /* \"#utility.yul\":3148:3477   */\n    tag_26:\n        /* \"#utility.yul\":3207:3213   */\n      0x00\n        /* \"#utility.yul\":3256:3258   */\n      0x20\n        /* \"#utility.yul\":3244:3253   */\n      dup3\n        /* \"#utility.yul\":3235:3242   */\n      dup5\n        /* \"#utility.yul\":3231:3254   */\n      sub\n        /* \"#utility.yul\":3227:3259   */\n      slt\n        /* \"#utility.yul\":3224:3343   */\n      iszero\n      tag_228\n      jumpi\n        /* \"#utility.yul\":3262:3341   */\n      tag_229\n      tag_141\n      jump\t// in\n    tag_229:\n        /* \"#utility.yul\":3224:3343   */\n    tag_228:\n        /* \"#utility.yul\":3382:3383   */\n      0x00\n        /* \"#utility.yul\":3407:3460   */\n      tag_230\n        /* \"#utility.yul\":3452:3459   */\n      dup5\n        /* \"#utility.yul\":3443:3449   */\n      dup3\n        /* \"#utility.yul\":3432:3441   */\n      dup6\n        /* \"#utility.yul\":3428:3450   */\n      add\n        /* \"#utility.yul\":3407:3460   */\n      tag_152\n      jump\t// in\n    tag_230:\n        /* \"#utility.yul\":3397:3460   */\n      swap2\n      pop\n        /* \"#utility.yul\":3353:3470   */\n      pop\n        /* \"#utility.yul\":3148:3477   */\n      swap3\n      swap2\n      pop\n      pop\n      jump\t// out\n        /* \"#utility.yul\":3483:3957   */\n    tag_32:\n        /* \"#utility.yul\":3551:3557   */\n      0x00\n        /* \"#utility.yul\":3559:3565   */\n      dup1\n        /* \"#utility.yul\":3608:3610   */\n      0x40\n        /* \"#utility.yul\":3596:3605   */\n      dup4\n        /* \"#utility.yul\":3587:3594   */\n      dup6\n        /* \"#utility.yul\":3583:3606   */\n      sub\n        /* \"#utility.yul\":3579:3611   */\n      slt\n        /* \"#utility.yul\":3576:3695   */\n      iszero\n      tag_232\n      jumpi\n        /* \"#utility.yul\":3614:3693   */\n      tag_233\n      tag_141\n      jump\t// in\n    tag_233:\n        /* \"#utility.yul\":3576:3695   */\n    tag_232:\n        /* \"#utility.yul\":3734:3735   */\n      0x00\n        /* \"#utility.yul\":3759:3812   */\n      tag_234\n        /* \"#utility.yul\":3804:3811   */\n      dup6\n        /* \"#utility.yul\":3795:3801   */\n      dup3\n        /* \"#utility.yul\":3784:3793   */\n      dup7\n        /* \"#utility.yul\":3780:3802   */\n      add\n        /* \"#utility.yul\":3759:3812   */\n      tag_152\n      jump\t// in\n    tag_234:\n        /* \"#utility.yul\":3749:3812   */\n      swap3\n      pop\n        /* \"#utility.yul\":3705:3822   */\n      pop\n        /* \"#utility.yul\":3861:3863   */\n      0x20\n        /* \"#utility.yul\":3887:3940   */\n      tag_235\n        /* \"#utility.yul\":3932:3939   */\n      dup6\n        /* \"#utility.yul\":3923:3929   */\n      dup3\n        /* \"#utility.yul\":3912:3921   */\n      dup7\n        /* \"#utility.yul\":3908:3930   */\n      add\n        /* \"#utility.yul\":3887:3940   */\n      tag_152\n      jump\t// in\n    tag_235:\n        /* \"#utility.yul\":3877:3940   */\n      swap2\n      pop\n        /* \"#utility.yul\":3832:3950   */\n      pop\n        /* \"#utility.yul\":3483:3957   */\n      swap3\n      pop\n      swap3\n      swap1\n      pop\n      jump\t// out\n        /* \"#utility.yul\":3963:4437   */\n    tag_36:\n        /* \"#utility.yul\":4031:4037   */\n      0x00\n        /* \"#utility.yul\":4039:4045   */\n      dup1\n        /* \"#utility.yul\":4088:4090   */\n      0x40\n        /* \"#utility.yul\":4076:4085   */\n      dup4\n        /* \"#utility.yul\":4067:4074   */\n      dup6\n        /* \"#utility.yul\":4063:4086   */\n      sub\n        /* \"#utility.yul\":4059:4091   */\n      slt\n        /* \"#utility.yul\":4056:4175   */\n      iszero\n      tag_237\n      jumpi\n        /* \"#utility.yul\":4094:4173   */\n      tag_238\n      tag_141\n      jump\t// in\n    tag_238:\n        /* \"#utility.yul\":4056:4175   */\n    tag_237:\n        /* \"#utility.yul\":4214:4215   */\n      0x00\n        /* \"#utility.yul\":4239:4292   */\n      tag_239\n        /* \"#utility.yul\":4284:4291   */\n      dup6\n        /* \"#utility.yul\":4275:4281   */\n      dup3\n        /* \"#utility.yul\":4264:4273   */\n      dup7\n        /* \"#utility.yul\":4260:4282   */\n      add\n        /* \"#utility.yul\":4239:4292   */\n      tag_146\n      jump\t// in\n    tag_239:\n        /* \"#utility.yul\":4229:4292   */\n      swap3\n      pop\n        /* \"#utility.yul\":4185:4302   */\n      pop\n        /* \"#utility.yul\":4341:4343   */\n      0x20\n        /* \"#utility.yul\":4367:4420   */\n      tag_240\n        /* \"#utility.yul\":4412:4419   */\n      dup6\n        /* \"#utility.yul\":4403:4409   */\n      dup3\n        /* \"#utility.yul\":4392:4401   */\n      dup7\n        /* \"#utility.yul\":4388:4410   */\n      add\n        /* \"#utility.yul\":4367:4420   */\n      tag_146\n      jump\t// in\n    tag_240:\n        /* \"#utility.yul\":4357:4420   */\n      swap2\n      pop\n        /* \"#utility.yul\":4312:4430   */\n      pop\n        /* \"#utility.yul\":3963:4437   */\n      swap3\n      pop\n      swap3\n      swap1\n      pop\n      jump\t// out\n        /* \"#utility.yul\":4443:4561   */\n    tag_155:\n        /* \"#utility.yul\":4530:4554   */\n      tag_242\n        /* \"#utility.yul\":4548:4553   */\n      dup2\n        /* \"#utility.yul\":4530:4554   */\n      tag_144\n      jump\t// in\n    tag_242:\n        /* \"#utility.yul\":4525:4528   */\n      dup3\n        /* \"#utility.yul\":4518:4555   */\n      mstore\n        /* \"#utility.yul\":4443:4561   */\n      pop\n      pop\n      jump\t// out\n        /* \"#utility.yul\":4567:4747   */\n    tag_58:\n        /* \"#utility.yul\":4615:4692   */\n      0x4e487b7100000000000000000000000000000000000000000000000000000000\n        /* \"#utility.yul\":4612:4613   */\n      0x00\n        /* \"#utility.yul\":4605:4693   */\n      mstore\n        /* \"#utility.yul\":4712:4716   */\n      0x21\n        /* \"#utility.yul\":4709:4710   */\n      0x04\n        /* \"#utility.yul\":4702:4717   */\n      mstore\n        /* \"#utility.yul\":4736:4740   */\n      0x24\n        /* \"#utility.yul\":4733:4734   */\n      0x00\n        /* \"#utility.yul\":4726:4741   */\n      revert\n        /* \"#utility.yul\":4753:4865   */\n    tag_156:\n        /* \"#utility.yul\":4833:4834   */\n      0x04\n        /* \"#utility.yul\":4826:4831   */\n      dup2\n        /* \"#utility.yul\":4823:4835   */\n      lt\n        /* \"#utility.yul\":4813:4859   */\n      tag_245\n      jumpi\n        /* \"#utility.yul\":4839:4857   */\n      tag_246\n      tag_58\n      jump\t// in\n    tag_246:\n        /* \"#utility.yul\":4813:4859   */\n    tag_245:\n        /* \"#utility.yul\":4753:4865   */\n      pop\n      jump\t// out\n        /* \"#utility.yul\":4871:4996   */\n    tag_157:\n        /* \"#utility.yul\":4915:4922   */\n      0x00\n        /* \"#utility.yul\":4944:4949   */\n      dup2\n        /* \"#utility.yul\":4933:4949   */\n      swap1\n      pop\n        /* \"#utility.yul\":4950:4990   */\n      tag_248\n        /* \"#utility.yul\":4984:4989   */\n      dup3\n        /* \"#utility.yul\":4950:4990   */\n      tag_156\n      jump\t// in\n    tag_248:\n        /* \"#utility.yul\":4871:4996   */\n      swap2\n      swap1\n      pop\n      jump\t// out\n        /* \"#utility.yul\":5002:5127   */\n    tag_158:\n        /* \"#utility.yul\":5057:5066   */\n      0x00\n        /* \"#utility.yul\":5090:5121   */\n      tag_250\n        /* \"#utility.yul\":5115:5120   */\n      dup3\n        /* \"#utility.yul\":5090:5121   */\n      tag_157\n      jump\t// in\n    tag_250:\n        /* \"#utility.yul\":5077:5121   */\n      swap1\n      pop\n        /* \"#utility.yul\":5002:5127   */\n      swap2\n      swap1\n      pop\n      jump\t// out\n        /* \"#utility.yul\":5133:5274   */\n    tag_159:\n        /* \"#utility.yul\":5225:5267   */\n      tag_252\n        /* \"#utility.yul\":5261:5266   */\n      dup2\n        /* \"#utility.yul\":5225:5267   */\n      tag_158\n      jump\t// in\n    tag_252:\n        /* \"#utility.yul\":5220:5223   */\n      dup3\n        /* \"#utility.yul\":5213:5268   */\n      mstore\n        /* \"#utility.yul\":5133:5274   */\n      pop\n      pop\n      jump\t// out\n        /* \"#utility.yul\":5280:5401   */\n    tag_160:\n        /* \"#utility.yul\":5369:5370   */\n      0x03\n        /* \"#utility.yul\":5362:5367   */\n      dup2\n        /* \"#utility.yul\":5359:5371   */\n      lt\n        /* \"#utility.yul\":5349:5395   */\n      tag_254\n      jumpi\n        /* \"#utility.yul\":5375:5393   */\n      tag_255\n      tag_58\n      jump\t// in\n    tag_255:\n        /* \"#utility.yul\":5349:5395   */\n    tag_254:\n        /* \"#utility.yul\":5280:5401   */\n      pop\n      jump\t// out\n        /* \"#utility.yul\":5407:5550   */\n    tag_161:\n        /* \"#utility.yul\":5460:5467   */\n      0x00\n        /* \"#utility.yul\":5489:5494   */\n      dup2\n        /* \"#utility.yul\":5478:5494   */\n      swap1\n      pop\n        /* \"#utility.yul\":5495:5544   */\n      tag_257\n        /* \"#utility.yul\":5538:5543   */\n      dup3\n        /* \"#utility.yul\":5495:5544   */\n      tag_160\n      jump\t// in\n    tag_257:\n        /* \"#utility.yul\":5407:5550   */\n      swap2\n      swap1\n      pop\n      jump\t// out\n        /* \"#utility.yul\":5556:5699   */\n    tag_162:\n        /* \"#utility.yul\":5620:5629   */\n      0x00\n        /* \"#utility.yul\":5653:5693   */\n      tag_259\n        /* \"#utility.yul\":5687:5692   */\n      dup3\n        /* \"#utility.yul\":5653:5693   */\n      tag_161\n      jump\t// in\n    tag_259:\n        /* \"#utility.yul\":5640:5693   */\n      swap1\n      pop\n        /* \"#utility.yul\":5556:5699   */\n      swap2\n      swap1\n      pop\n      jump\t// out\n        /* \"#utility.yul\":5705:5864   */\n    tag_163:\n        /* \"#utility.yul\":5806:5857   */\n      tag_261\n        /* \"#utility.yul\":5851:5856   */\n      dup2\n        /* \"#utility.yul\":5806:5857   */\n      tag_162\n      jump\t// in\n    tag_261:\n        /* \"#utility.yul\":5801:5804   */\n      dup3\n        /* \"#utility.yul\":5794:5858   */\n      mstore\n        /* \"#utility.yul\":5705:5864   */\n      pop\n      pop\n      jump\t// out\n        /* \"#utility.yul\":5870:7115   */\n    tag_42:\n        /* \"#utility.yul\":6228:6232   */\n      0x00\n        /* \"#utility.yul\":6266:6269   */\n      0x0140\n        /* \"#utility.yul\":6255:6264   */\n      dup3\n        /* \"#utility.yul\":6251:6270   */\n      add\n        /* \"#utility.yul\":6243:6270   */\n      swap1\n      pop\n        /* \"#utility.yul\":6280:6351   */\n      tag_263\n        /* \"#utility.yul\":6348:6349   */\n      0x00\n        /* \"#utility.yul\":6337:6346   */\n      dup4\n        /* \"#utility.yul\":6333:6350   */\n      add\n        /* \"#utility.yul\":6324:6330   */\n      dup14\n        /* \"#utility.yul\":6280:6351   */\n      tag_155\n      jump\t// in\n    tag_263:\n        /* \"#utility.yul\":6361:6433   */\n      tag_264\n        /* \"#utility.yul\":6429:6431   */\n      0x20\n        /* \"#utility.yul\":6418:6427   */\n      dup4\n        /* \"#utility.yul\":6414:6432   */\n      add\n        /* \"#utility.yul\":6405:6411   */\n      dup13\n        /* \"#utility.yul\":6361:6433   */\n      tag_155\n      jump\t// in\n    tag_264:\n        /* \"#utility.yul\":6443:6515   */\n      tag_265\n        /* \"#utility.yul\":6511:6513   */\n      0x40\n        /* \"#utility.yul\":6500:6509   */\n      dup4\n        /* \"#utility.yul\":6496:6514   */\n      add\n        /* \"#utility.yul\":6487:6493   */\n      dup12\n        /* \"#utility.yul\":6443:6515   */\n      tag_155\n      jump\t// in\n    tag_265:\n        /* \"#utility.yul\":6525:6597   */\n      tag_266\n        /* \"#utility.yul\":6593:6595   */\n      0x60\n        /* \"#utility.yul\":6582:6591   */\n      dup4\n        /* \"#utility.yul\":6578:6596   */\n      add\n        /* \"#utility.yul\":6569:6575   */\n      dup11\n        /* \"#utility.yul\":6525:6597   */\n      tag_148\n      jump\t// in\n    tag_266:\n        /* \"#utility.yul\":6607:6680   */\n      tag_267\n        /* \"#utility.yul\":6675:6678   */\n      0x80\n        /* \"#utility.yul\":6664:6673   */\n      dup4\n        /* \"#utility.yul\":6660:6679   */\n      add\n        /* \"#utility.yul\":6651:6657   */\n      dup10\n        /* \"#utility.yul\":6607:6680   */\n      tag_148\n      jump\t// in\n    tag_267:\n        /* \"#utility.yul\":6690:6763   */\n      tag_268\n        /* \"#utility.yul\":6758:6761   */\n      0xa0\n        /* \"#utility.yul\":6747:6756   */\n      dup4\n        /* \"#utility.yul\":6743:6762   */\n      add\n        /* \"#utility.yul\":6734:6740   */\n      dup9\n        /* \"#utility.yul\":6690:6763   */\n      tag_148\n      jump\t// in\n    tag_268:\n        /* \"#utility.yul\":6773:6846   */\n      tag_269\n        /* \"#utility.yul\":6841:6844   */\n      0xc0\n        /* \"#utility.yul\":6830:6839   */\n      dup4\n        /* \"#utility.yul\":6826:6845   */\n      add\n        /* \"#utility.yul\":6817:6823   */\n      dup8\n        /* \"#utility.yul\":6773:6846   */\n      tag_148\n      jump\t// in\n    tag_269:\n        /* \"#utility.yul\":6856:6934   */\n      tag_270\n        /* \"#utility.yul\":6929:6932   */\n      0xe0\n        /* \"#utility.yul\":6918:6927   */\n      dup4\n        /* \"#utility.yul\":6914:6933   */\n      add\n        /* \"#utility.yul\":6905:6911   */\n      dup7\n        /* \"#utility.yul\":6856:6934   */\n      tag_159\n      jump\t// in\n    tag_270:\n        /* \"#utility.yul\":6944:7031   */\n      tag_271\n        /* \"#utility.yul\":7026:7029   */\n      0x0100\n        /* \"#utility.yul\":7015:7024   */\n      dup4\n        /* \"#utility.yul\":7011:7030   */\n      add\n        /* \"#utility.yul\":7002:7008   */\n      dup6\n        /* \"#utility.yul\":6944:7031   */\n      tag_163\n      jump\t// in\n    tag_271:\n        /* \"#utility.yul\":7041:7108   */\n      tag_272\n        /* \"#utility.yul\":7103:7106   */\n      0x0120\n        /* \"#utility.yul\":7092:7101   */\n      dup4\n        /* \"#utility.yul\":7088:7107   */\n      add\n        /* \"#utility.yul\":7079:7085   */\n      dup5\n        /* \"#utility.yul\":7041:7108   */\n      tag_150\n      jump\t// in\n    tag_272:\n        /* \"#utility.yul\":5870:7115   */\n      swap12\n      swap11\n      pop\n      pop\n      pop\n      pop\n      pop\n      pop\n      pop\n      pop\n      pop\n      pop\n      pop\n      jump\t// out\n        /* \"#utility.yul\":7121:7237   */\n    tag_164:\n        /* \"#utility.yul\":7191:7212   */\n      tag_274\n        /* \"#utility.yul\":7206:7211   */\n      dup2\n        /* \"#utility.yul\":7191:7212   */\n      tag_149\n      jump\t// in\n    tag_274:\n        /* \"#utility.yul\":7184:7189   */\n      dup2\n        /* \"#utility.yul\":7181:7213   */\n      eq\n        /* \"#utility.yul\":7171:7231   */\n      tag_275\n      jumpi\n        /* \"#utility.yul\":7227:7228   */\n      0x00\n        /* \"#utility.yul\":7224:7225   */\n      dup1\n        /* \"#utility.yul\":7217:7229   */\n      revert\n        /* \"#utility.yul\":7171:7231   */\n    tag_275:\n        /* \"#utility.yul\":7121:7237   */\n      pop\n      jump\t// out\n        /* \"#utility.yul\":7243:7376   */\n    tag_165:\n        /* \"#utility.yul\":7286:7291   */\n      0x00\n        /* \"#utility.yul\":7324:7330   */\n      dup2\n        /* \"#utility.yul\":7311:7331   */\n      calldataload\n        /* \"#utility.yul\":7302:7331   */\n      swap1\n      pop\n        /* \"#utility.yul\":7340:7370   */\n      tag_277\n        /* \"#utility.yul\":7364:7369   */\n      dup2\n        /* \"#utility.yul\":7340:7370   */\n      tag_164\n      jump\t// in\n    tag_277:\n        /* \"#utility.yul\":7243:7376   */\n      swap3\n      swap2\n      pop\n      pop\n      jump\t// out\n        /* \"#utility.yul\":7382:7850   */\n    tag_45:\n        /* \"#utility.yul\":7447:7453   */\n      0x00\n        /* \"#utility.yul\":7455:7461   */\n      dup1\n        /* \"#utility.yul\":7504:7506   */\n      0x40\n        /* \"#utility.yul\":7492:7501   */\n      dup4\n        /* \"#utility.yul\":7483:7490   */\n      dup6\n        /* \"#utility.yul\":7479:7502   */\n      sub\n        /* \"#utility.yul\":7475:7507   */\n      slt\n        /* \"#utility.yul\":7472:7591   */\n      iszero\n      tag_279\n      jumpi\n        /* \"#utility.yul\":7510:7589   */\n      tag_280\n      tag_141\n      jump\t// in\n    tag_280:\n        /* \"#utility.yul\":7472:7591   */\n    tag_279:\n        /* \"#utility.yul\":7630:7631   */\n      0x00\n        /* \"#utility.yul\":7655:7708   */\n      tag_281\n        /* \"#utility.yul\":7700:7707   */\n      dup6\n        /* \"#utility.yul\":7691:7697   */\n      dup3\n        /* \"#utility.yul\":7680:7689   */\n      dup7\n        /* \"#utility.yul\":7676:7698   */\n      add\n        /* \"#utility.yul\":7655:7708   */\n      tag_152\n      jump\t// in\n    tag_281:\n        /* \"#utility.yul\":7645:7708   */\n      swap3\n      pop\n        /* \"#utility.yul\":7601:7718   */\n      pop\n        /* \"#utility.yul\":7757:7759   */\n      0x20\n        /* \"#utility.yul\":7783:7833   */\n      tag_282\n        /* \"#utility.yul\":7825:7832   */\n      dup6\n        /* \"#utility.yul\":7816:7822   */\n      dup3\n        /* \"#utility.yul\":7805:7814   */\n      dup7\n        /* \"#utility.yul\":7801:7823   */\n      add\n        /* \"#utility.yul\":7783:7833   */\n      tag_165\n      jump\t// in\n    tag_282:\n        /* \"#utility.yul\":7773:7833   */\n      swap2\n      pop\n        /* \"#utility.yul\":7728:7843   */\n      pop\n        /* \"#utility.yul\":7382:7850   */\n      swap3\n      pop\n      swap3\n      swap1\n      pop\n      jump\t// out\n        /* \"#utility.yul\":7856:8078   */\n    tag_50:\n        /* \"#utility.yul\":7949:7953   */\n      0x00\n        /* \"#utility.yul\":7987:7989   */\n      0x20\n        /* \"#utility.yul\":7976:7985   */\n      dup3\n        /* \"#utility.yul\":7972:7990   */\n      add\n        /* \"#utility.yul\":7964:7990   */\n      swap1\n      pop\n        /* \"#utility.yul\":8000:8071   */\n      tag_284\n        /* \"#utility.yul\":8068:8069   */\n      0x00\n        /* \"#utility.yul\":8057:8066   */\n      dup4\n        /* \"#utility.yul\":8053:8070   */\n      add\n        /* \"#utility.yul\":8044:8050   */\n      dup5\n        /* \"#utility.yul\":8000:8071   */\n      tag_148\n      jump\t// in\n    tag_284:\n        /* \"#utility.yul\":7856:8078   */\n      swap3\n      swap2\n      pop\n      pop\n      jump\t// out\n        /* \"#utility.yul\":8084:8198   */\n    tag_166:\n        /* \"#utility.yul\":8151:8157   */\n      0x00\n        /* \"#utility.yul\":8185:8190   */\n      dup2\n        /* \"#utility.yul\":8179:8191   */\n      mload\n        /* \"#utility.yul\":8169:8191   */\n      swap1\n      pop\n        /* \"#utility.yul\":8084:8198   */\n      swap2\n      swap1\n      pop\n      jump\t// out\n        /* \"#utility.yul\":8204:8388   */\n    tag_167:\n        /* \"#utility.yul\":8303:8314   */\n      0x00\n        /* \"#utility.yul\":8337:8343   */\n      dup3\n        /* \"#utility.yul\":8332:8335   */\n      dup3\n        /* \"#utility.yul\":8325:8344   */\n      mstore\n        /* \"#utility.yul\":8377:8381   */\n      0x20\n        /* \"#utility.yul\":8372:8375   */\n      dup3\n        /* \"#utility.yul\":8368:8382   */\n      add\n        /* \"#utility.yul\":8353:8382   */\n      swap1\n      pop\n        /* \"#utility.yul\":8204:8388   */\n      swap3\n      swap2\n      pop\n      pop\n      jump\t// out\n        /* \"#utility.yul\":8394:8526   */\n    tag_168:\n        /* \"#utility.yul\":8461:8465   */\n      0x00\n        /* \"#utility.yul\":8484:8487   */\n      dup2\n        /* \"#utility.yul\":8476:8487   */\n      swap1\n      pop\n        /* \"#utility.yul\":8514:8518   */\n      0x20\n        /* \"#utility.yul\":8509:8512   */\n      dup3\n        /* \"#utility.yul\":8505:8519   */\n      add\n        /* \"#utility.yul\":8497:8519   */\n      swap1\n      pop\n        /* \"#utility.yul\":8394:8526   */\n      swap2\n      swap1\n      pop\n      jump\t// out\n        /* \"#utility.yul\":8532:8640   */\n    tag_169:\n        /* \"#utility.yul\":8609:8633   */\n      tag_289\n        /* \"#utility.yul\":8627:8632   */\n      dup2\n        /* \"#utility.yul\":8609:8633   */\n      tag_144\n      jump\t// in\n    tag_289:\n        /* \"#utility.yul\":8604:8607   */\n      dup3\n        /* \"#utility.yul\":8597:8634   */\n      mstore\n        /* \"#utility.yul\":8532:8640   */\n      pop\n      pop\n      jump\t// out\n        /* \"#utility.yul\":8646:8825   */\n    tag_170:\n        /* \"#utility.yul\":8715:8725   */\n      0x00\n        /* \"#utility.yul\":8736:8782   */\n      tag_291\n        /* \"#utility.yul\":8778:8781   */\n      dup4\n        /* \"#utility.yul\":8770:8776   */\n      dup4\n        /* \"#utility.yul\":8736:8782   */\n      tag_169\n      jump\t// in\n    tag_291:\n        /* \"#utility.yul\":8814:8818   */\n      0x20\n        /* \"#utility.yul\":8809:8812   */\n      dup4\n        /* \"#utility.yul\":8805:8819   */\n      add\n        /* \"#utility.yul\":8791:8819   */\n      swap1\n      pop\n        /* \"#utility.yul\":8646:8825   */\n      swap3\n      swap2\n      pop\n      pop\n      jump\t// out\n        /* \"#utility.yul\":8831:8944   */\n    tag_171:\n        /* \"#utility.yul\":8901:8905   */\n      0x00\n        /* \"#utility.yul\":8933:8937   */\n      0x20\n        /* \"#utility.yul\":8928:8931   */\n      dup3\n        /* \"#utility.yul\":8924:8938   */\n      add\n        /* \"#utility.yul\":8916:8938   */\n      swap1\n      pop\n        /* \"#utility.yul\":8831:8944   */\n      swap2\n      swap1\n      pop\n      jump\t// out\n        /* \"#utility.yul\":8980:9712   */\n    tag_172:\n        /* \"#utility.yul\":9099:9102   */\n      0x00\n        /* \"#utility.yul\":9128:9182   */\n      tag_294\n        /* \"#utility.yul\":9176:9181   */\n      dup3\n        /* \"#utility.yul\":9128:9182   */\n      tag_166\n      jump\t// in\n    tag_294:\n        /* \"#utility.yul\":9198:9284   */\n      tag_295\n        /* \"#utility.yul\":9277:9283   */\n      dup2\n        /* \"#utility.yul\":9272:9275   */\n      dup6\n        /* \"#utility.yul\":9198:9284   */\n      tag_167\n      jump\t// in\n    tag_295:\n        /* \"#utility.yul\":9191:9284   */\n      swap4\n      pop\n        /* \"#utility.yul\":9308:9364   */\n      tag_296\n        /* \"#utility.yul\":9358:9363   */\n      dup4\n        /* \"#utility.yul\":9308:9364   */\n      tag_168\n      jump\t// in\n    tag_296:\n        /* \"#utility.yul\":9387:9394   */\n      dup1\n        /* \"#utility.yul\":9418:9419   */\n      0x00\n        /* \"#utility.yul\":9403:9687   */\n    tag_297:\n        /* \"#utility.yul\":9428:9434   */\n      dup4\n        /* \"#utility.yul\":9425:9426   */\n      dup2\n        /* \"#utility.yul\":9422:9435   */\n      lt\n        /* \"#utility.yul\":9403:9687   */\n      iszero\n      tag_299\n      jumpi\n        /* \"#utility.yul\":9504:9510   */\n      dup2\n        /* \"#utility.yul\":9498:9511   */\n      mload\n        /* \"#utility.yul\":9531:9594   */\n      tag_300\n        /* \"#utility.yul\":9590:9593   */\n      dup9\n        /* \"#utility.yul\":9575:9588   */\n      dup3\n        /* \"#utility.yul\":9531:9594   */\n      tag_170\n      jump\t// in\n    tag_300:\n        /* \"#utility.yul\":9524:9594   */\n      swap8\n      pop\n        /* \"#utility.yul\":9617:9677   */\n      tag_301\n        /* \"#utility.yul\":9670:9676   */\n      dup4\n        /* \"#utility.yul\":9617:9677   */\n      tag_171\n      jump\t// in\n    tag_301:\n        /* \"#utility.yul\":9607:9677   */\n      swap3\n      pop\n        /* \"#utility.yul\":9463:9687   */\n      pop\n        /* \"#utility.yul\":9450:9451   */\n      0x01\n        /* \"#utility.yul\":9447:9448   */\n      dup2\n        /* \"#utility.yul\":9443:9452   */\n      add\n        /* \"#utility.yul\":9438:9452   */\n      swap1\n      pop\n        /* \"#utility.yul\":9403:9687   */\n      jump(tag_297)\n    tag_299:\n        /* \"#utility.yul\":9407:9421   */\n      pop\n        /* \"#utility.yul\":9703:9706   */\n      dup6\n        /* \"#utility.yul\":9696:9706   */\n      swap4\n      pop\n        /* \"#utility.yul\":9104:9712   */\n      pop\n      pop\n      pop\n        /* \"#utility.yul\":8980:9712   */\n      swap3\n      swap2\n      pop\n      pop\n      jump\t// out\n        /* \"#utility.yul\":9718:10091   */\n    tag_54:\n        /* \"#utility.yul\":9861:9865   */\n      0x00\n        /* \"#utility.yul\":9899:9901   */\n      0x20\n        /* \"#utility.yul\":9888:9897   */\n      dup3\n        /* \"#utility.yul\":9884:9902   */\n      add\n        /* \"#utility.yul\":9876:9902   */\n      swap1\n      pop\n        /* \"#utility.yul\":9948:9957   */\n      dup2\n        /* \"#utility.yul\":9942:9946   */\n      dup2\n        /* \"#utility.yul\":9938:9958   */\n      sub\n        /* \"#utility.yul\":9934:9935   */\n      0x00\n        /* \"#utility.yul\":9923:9932   */\n      dup4\n        /* \"#utility.yul\":9919:9936   */\n      add\n        /* \"#utility.yul\":9912:9959   */\n      mstore\n        /* \"#utility.yul\":9976:10084   */\n      tag_303\n        /* \"#utility.yul\":10079:10083   */\n      dup2\n        /* \"#utility.yul\":10070:10076   */\n      dup5\n        /* \"#utility.yul\":9976:10084   */\n      tag_172\n      jump\t// in\n    tag_303:\n        /* \"#utility.yul\":9968:10084   */\n      swap1\n      pop\n        /* \"#utility.yul\":9718:10091   */\n      swap3\n      swap2\n      pop\n      pop\n      jump\t// out\n        /* \"#utility.yul\":10097:10266   */\n    tag_173:\n        /* \"#utility.yul\":10181:10192   */\n      0x00\n        /* \"#utility.yul\":10215:10221   */\n      dup3\n        /* \"#utility.yul\":10210:10213   */\n      dup3\n        /* \"#utility.yul\":10203:10222   */\n      mstore\n        /* \"#utility.yul\":10255:10259   */\n      0x20\n        /* \"#utility.yul\":10250:10253   */\n      dup3\n        /* \"#utility.yul\":10246:10260   */\n      add\n        /* \"#utility.yul\":10231:10260   */\n      swap1\n      pop\n        /* \"#utility.yul\":10097:10266   */\n      swap3\n      swap2\n      pop\n      pop\n      jump\t// out\n        /* \"#utility.yul\":10272:10451   */\n    tag_174:\n        /* \"#utility.yul\":10412:10443   */\n      0x496e76616c696420737461746520666f72207468697320616374696f6e000000\n        /* \"#utility.yul\":10408:10409   */\n      0x00\n        /* \"#utility.yul\":10400:10406   */\n      dup3\n        /* \"#utility.yul\":10396:10410   */\n      add\n        /* \"#utility.yul\":10389:10444   */\n      mstore\n        /* \"#utility.yul\":10272:10451   */\n      pop\n      jump\t// out\n        /* \"#utility.yul\":10457:10823   */\n    tag_175:\n        /* \"#utility.yul\":10599:10602   */\n      0x00\n        /* \"#utility.yul\":10620:10687   */\n      tag_307\n        /* \"#utility.yul\":10684:10686   */\n      0x1d\n        /* \"#utility.yul\":10679:10682   */\n      dup4\n        /* \"#utility.yul\":10620:10687   */\n      tag_173\n      jump\t// in\n    tag_307:\n        /* \"#utility.yul\":10613:10687   */\n      swap2\n      pop\n        /* \"#utility.yul\":10696:10789   */\n      tag_308\n        /* \"#utility.yul\":10785:10788   */\n      dup3\n        /* \"#utility.yul\":10696:10789   */\n      tag_174\n      jump\t// in\n    tag_308:\n        /* \"#utility.yul\":10814:10816   */\n      0x20\n        /* \"#utility.yul\":10809:10812   */\n      dup3\n        /* \"#utility.yul\":10805:10817   */\n      add\n        /* \"#utility.yul\":10798:10817   */\n      swap1\n      pop\n        /* \"#utility.yul\":10457:10823   */\n      swap2\n      swap1\n      pop\n      jump\t// out\n        /* \"#utility.yul\":10829:11248   */\n    tag_63:\n        /* \"#utility.yul\":10995:10999   */\n      0x00\n        /* \"#utility.yul\":11033:11035   */\n      0x20\n        /* \"#utility.yul\":11022:11031   */\n      dup3\n        /* \"#utility.yul\":11018:11036   */\n      add\n        /* \"#utility.yul\":11010:11036   */\n      swap1\n      pop\n        /* \"#utility.yul\":11082:11091   */\n      dup2\n        /* \"#utility.yul\":11076:11080   */\n      dup2\n        /* \"#utility.yul\":11072:11092   */\n      sub\n        /* \"#utility.yul\":11068:11069   */\n      0x00\n        /* \"#utility.yul\":11057:11066   */\n      dup4\n        /* \"#utility.yul\":11053:11070   */\n      add\n        /* \"#utility.yul\":11046:11093   */\n      mstore\n        /* \"#utility.yul\":11110:11241   */\n      tag_310\n        /* \"#utility.yul\":11236:11240   */\n      dup2\n        /* \"#utility.yul\":11110:11241   */\n      tag_175\n      jump\t// in\n    tag_310:\n        /* \"#utility.yul\":11102:11241   */\n      swap1\n      pop\n        /* \"#utility.yul\":10829:11248   */\n      swap2\n      swap1\n      pop\n      jump\t// out\n        /* \"#utility.yul\":11254:11483   */\n    tag_176:\n        /* \"#utility.yul\":11394:11428   */\n      0x4f6e6c79206d61726b6574706c6163652063616e207570646174652064656c69\n        /* \"#utility.yul\":11390:11391   */\n      0x00\n        /* \"#utility.yul\":11382:11388   */\n      dup3\n        /* \"#utility.yul\":11378:11392   */\n      add\n        /* \"#utility.yul\":11371:11429   */\n      mstore\n        /* \"#utility.yul\":11463:11475   */\n      0x7665727920737461746500000000000000000000000000000000000000000000\n        /* \"#utility.yul\":11458:11460   */\n      0x20\n        /* \"#utility.yul\":11450:11456   */\n      dup3\n        /* \"#utility.yul\":11446:11461   */\n      add\n        /* \"#utility.yul\":11439:11476   */\n      mstore\n        /* \"#utility.yul\":11254:11483   */\n      pop\n      jump\t// out\n        /* \"#utility.yul\":11489:11855   */\n    tag_177:\n        /* \"#utility.yul\":11631:11634   */\n      0x00\n        /* \"#utility.yul\":11652:11719   */\n      tag_313\n        /* \"#utility.yul\":11716:11718   */\n      0x2a\n        /* \"#utility.yul\":11711:11714   */\n      dup4\n        /* \"#utility.yul\":11652:11719   */\n      tag_173\n      jump\t// in\n    tag_313:\n        /* \"#utility.yul\":11645:11719   */\n      swap2\n      pop\n        /* \"#utility.yul\":11728:11821   */\n      tag_314\n        /* \"#utility.yul\":11817:11820   */\n      dup3\n        /* \"#utility.yul\":11728:11821   */\n      tag_176\n      jump\t// in\n    tag_314:\n        /* \"#utility.yul\":11846:11848   */\n      0x40\n        /* \"#utility.yul\":11841:11844   */\n      dup3\n        /* \"#utility.yul\":11837:11849   */\n      add\n        /* \"#utility.yul\":11830:11849   */\n      swap1\n      pop\n        /* \"#utility.yul\":11489:11855   */\n      swap2\n      swap1\n      pop\n      jump\t// out\n        /* \"#utility.yul\":11861:12280   */\n    tag_67:\n        /* \"#utility.yul\":12027:12031   */\n      0x00\n        /* \"#utility.yul\":12065:12067   */\n      0x20\n        /* \"#utility.yul\":12054:12063   */\n      dup3\n        /* \"#utility.yul\":12050:12068   */\n      add\n        /* \"#utility.yul\":12042:12068   */\n      swap1\n      pop\n        /* \"#utility.yul\":12114:12123   */\n      dup2\n        /* \"#utility.yul\":12108:12112   */\n      dup2\n        /* \"#utility.yul\":12104:12124   */\n      sub\n        /* \"#utility.yul\":12100:12101   */\n      0x00\n        /* \"#utility.yul\":12089:12098   */\n      dup4\n        /* \"#utility.yul\":12085:12102   */\n      add\n        /* \"#utility.yul\":12078:12125   */\n      mstore\n        /* \"#utility.yul\":12142:12273   */\n      tag_316\n        /* \"#utility.yul\":12268:12272   */\n      dup2\n        /* \"#utility.yul\":12142:12273   */\n      tag_177\n      jump\t// in\n    tag_316:\n        /* \"#utility.yul\":12134:12273   */\n      swap1\n      pop\n        /* \"#utility.yul\":11861:12280   */\n      swap2\n      swap1\n      pop\n      jump\t// out\n        /* \"#utility.yul\":12286:12466   */\n    tag_178:\n        /* \"#utility.yul\":12334:12411   */\n      0x4e487b7100000000000000000000000000000000000000000000000000000000\n        /* \"#utility.yul\":12331:12332   */\n      0x00\n        /* \"#utility.yul\":12324:12412   */\n      mstore\n        /* \"#utility.yul\":12431:12435   */\n      0x11\n        /* \"#utility.yul\":12428:12429   */\n      0x04\n        /* \"#utility.yul\":12421:12436   */\n      mstore\n        /* \"#utility.yul\":12455:12459   */\n      0x24\n        /* \"#utility.yul\":12452:12453   */\n      0x00\n        /* \"#utility.yul\":12445:12460   */\n      revert\n        /* \"#utility.yul\":12472:12663   */\n    tag_73:\n        /* \"#utility.yul\":12512:12515   */\n      0x00\n        /* \"#utility.yul\":12531:12551   */\n      tag_319\n        /* \"#utility.yul\":12549:12550   */\n      dup3\n        /* \"#utility.yul\":12531:12551   */\n      tag_147\n      jump\t// in\n    tag_319:\n        /* \"#utility.yul\":12526:12551   */\n      swap2\n      pop\n        /* \"#utility.yul\":12565:12585   */\n      tag_320\n        /* \"#utility.yul\":12583:12584   */\n      dup4\n        /* \"#utility.yul\":12565:12585   */\n      tag_147\n      jump\t// in\n    tag_320:\n        /* \"#utility.yul\":12560:12585   */\n      swap3\n      pop\n        /* \"#utility.yul\":12608:12609   */\n      dup3\n        /* \"#utility.yul\":12605:12606   */\n      dup3\n        /* \"#utility.yul\":12601:12610   */\n      add\n        /* \"#utility.yul\":12594:12610   */\n      swap1\n      pop\n        /* \"#utility.yul\":12629:12632   */\n      dup1\n        /* \"#utility.yul\":12626:12627   */\n      dup3\n        /* \"#utility.yul\":12623:12633   */\n      gt\n        /* \"#utility.yul\":12620:12656   */\n      iszero\n      tag_321\n      jumpi\n        /* \"#utility.yul\":12636:12654   */\n      tag_322\n      tag_178\n      jump\t// in\n    tag_322:\n        /* \"#utility.yul\":12620:12656   */\n    tag_321:\n        /* \"#utility.yul\":12472:12663   */\n      swap3\n      swap2\n      pop\n      pop\n      jump\t// out\n        /* \"#utility.yul\":12669:13011   */\n    tag_75:\n        /* \"#utility.yul\":12795:12799   */\n      0x00\n        /* \"#utility.yul\":12833:12835   */\n      0x40\n        /* \"#utility.yul\":12822:12831   */\n      dup3\n        /* \"#utility.yul\":12818:12836   */\n      add\n        /* \"#utility.yul\":12810:12836   */\n      swap1\n      pop\n        /* \"#utility.yul\":12846:12917   */\n      tag_324\n        /* \"#utility.yul\":12914:12915   */\n      0x00\n        /* \"#utility.yul\":12903:12912   */\n      dup4\n        /* \"#utility.yul\":12899:12916   */\n      add\n        /* \"#utility.yul\":12890:12896   */\n      dup6\n        /* \"#utility.yul\":12846:12917   */\n      tag_148\n      jump\t// in\n    tag_324:\n        /* \"#utility.yul\":12927:13004   */\n      tag_325\n        /* \"#utility.yul\":13000:13002   */\n      0x20\n        /* \"#utility.yul\":12989:12998   */\n      dup4\n        /* \"#utility.yul\":12985:13003   */\n      add\n        /* \"#utility.yul\":12976:12982   */\n      dup5\n        /* \"#utility.yul\":12927:13004   */\n      tag_159\n      jump\t// in\n    tag_325:\n        /* \"#utility.yul\":12669:13011   */\n      swap4\n      swap3\n      pop\n      pop\n      pop\n      jump\t// out\n        /* \"#utility.yul\":13017:13190   */\n    tag_179:\n        /* \"#utility.yul\":13157:13182   */\n      0x5573657220616c72656164792072656769737465726564000000000000000000\n        /* \"#utility.yul\":13153:13154   */\n      0x00\n        /* \"#utility.yul\":13145:13151   */\n      dup3\n        /* \"#utility.yul\":13141:13155   */\n      add\n        /* \"#utility.yul\":13134:13183   */\n      mstore\n        /* \"#utility.yul\":13017:13190   */\n      pop\n      jump\t// out\n        /* \"#utility.yul\":13196:13562   */\n    tag_180:\n        /* \"#utility.yul\":13338:13341   */\n      0x00\n        /* \"#utility.yul\":13359:13426   */\n      tag_328\n        /* \"#utility.yul\":13423:13425   */\n      0x17\n        /* \"#utility.yul\":13418:13421   */\n      dup4\n        /* \"#utility.yul\":13359:13426   */\n      tag_173\n      jump\t// in\n    tag_328:\n        /* \"#utility.yul\":13352:13426   */\n      swap2\n      pop\n        /* \"#utility.yul\":13435:13528   */\n      tag_329\n        /* \"#utility.yul\":13524:13527   */\n      dup3\n        /* \"#utility.yul\":13435:13528   */\n      tag_179\n      jump\t// in\n    tag_329:\n        /* \"#utility.yul\":13553:13555   */\n      0x20\n        /* \"#utility.yul\":13548:13551   */\n      dup3\n        /* \"#utility.yul\":13544:13556   */\n      add\n        /* \"#utility.yul\":13537:13556   */\n      swap1\n      pop\n        /* \"#utility.yul\":13196:13562   */\n      swap2\n      swap1\n      pop\n      jump\t// out\n        /* \"#utility.yul\":13568:13987   */\n    tag_83:\n        /* \"#utility.yul\":13734:13738   */\n      0x00\n        /* \"#utility.yul\":13772:13774   */\n      0x20\n        /* \"#utility.yul\":13761:13770   */\n      dup3\n        /* \"#utility.yul\":13757:13775   */\n      add\n        /* \"#utility.yul\":13749:13775   */\n      swap1\n      pop\n        /* \"#utility.yul\":13821:13830   */\n      dup2\n        /* \"#utility.yul\":13815:13819   */\n      dup2\n        /* \"#utility.yul\":13811:13831   */\n      sub\n        /* \"#utility.yul\":13807:13808   */\n      0x00\n        /* \"#utility.yul\":13796:13805   */\n      dup4\n        /* \"#utility.yul\":13792:13809   */\n      add\n        /* \"#utility.yul\":13785:13832   */\n      mstore\n        /* \"#utility.yul\":13849:13980   */\n      tag_331\n        /* \"#utility.yul\":13975:13979   */\n      dup2\n        /* \"#utility.yul\":13849:13980   */\n      tag_180\n      jump\t// in\n    tag_331:\n        /* \"#utility.yul\":13841:13980   */\n      swap1\n      pop\n        /* \"#utility.yul\":13568:13987   */\n      swap2\n      swap1\n      pop\n      jump\t// out\n        /* \"#utility.yul\":13993:14170   */\n    tag_181:\n        /* \"#utility.yul\":14133:14162   */\n      0x416374696f6e206973206e6f206c6f6e67657220616c6c6f7765640000000000\n        /* \"#utility.yul\":14129:14130   */\n      0x00\n        /* \"#utility.yul\":14121:14127   */\n      dup3\n        /* \"#utility.yul\":14117:14131   */\n      add\n        /* \"#utility.yul\":14110:14163   */\n      mstore\n        /* \"#utility.yul\":13993:14170   */\n      pop\n      jump\t// out\n        /* \"#utility.yul\":14176:14542   */\n    tag_182:\n        /* \"#utility.yul\":14318:14321   */\n      0x00\n        /* \"#utility.yul\":14339:14406   */\n      tag_334\n        /* \"#utility.yul\":14403:14405   */\n      0x1b\n        /* \"#utility.yul\":14398:14401   */\n      dup4\n        /* \"#utility.yul\":14339:14406   */\n      tag_173\n      jump\t// in\n    tag_334:\n        /* \"#utility.yul\":14332:14406   */\n      swap2\n      pop\n        /* \"#utility.yul\":14415:14508   */\n      tag_335\n        /* \"#utility.yul\":14504:14507   */\n      dup3\n        /* \"#utility.yul\":14415:14508   */\n      tag_181\n      jump\t// in\n    tag_335:\n        /* \"#utility.yul\":14533:14535   */\n      0x20\n        /* \"#utility.yul\":14528:14531   */\n      dup3\n        /* \"#utility.yul\":14524:14536   */\n      add\n        /* \"#utility.yul\":14517:14536   */\n      swap1\n      pop\n        /* \"#utility.yul\":14176:14542   */\n      swap2\n      swap1\n      pop\n      jump\t// out\n        /* \"#utility.yul\":14548:14967   */\n    tag_95:\n        /* \"#utility.yul\":14714:14718   */\n      0x00\n        /* \"#utility.yul\":14752:14754   */\n      0x20\n        /* \"#utility.yul\":14741:14750   */\n      dup3\n        /* \"#utility.yul\":14737:14755   */\n      add\n        /* \"#utility.yul\":14729:14755   */\n      swap1\n      pop\n        /* \"#utility.yul\":14801:14810   */\n      dup2\n        /* \"#utility.yul\":14795:14799   */\n      dup2\n        /* \"#utility.yul\":14791:14811   */\n      sub\n        /* \"#utility.yul\":14787:14788   */\n      0x00\n        /* \"#utility.yul\":14776:14785   */\n      dup4\n        /* \"#utility.yul\":14772:14789   */\n      add\n        /* \"#utility.yul\":14765:14812   */\n      mstore\n        /* \"#utility.yul\":14829:14960   */\n      tag_337\n        /* \"#utility.yul\":14955:14959   */\n      dup2\n        /* \"#utility.yul\":14829:14960   */\n      tag_182\n      jump\t// in\n    tag_337:\n        /* \"#utility.yul\":14821:14960   */\n      swap1\n      pop\n        /* \"#utility.yul\":14548:14967   */\n      swap2\n      swap1\n      pop\n      jump\t// out\n        /* \"#utility.yul\":14973:15197   */\n    tag_183:\n        /* \"#utility.yul\":15113:15147   */\n      0x4f6e6c79206d61726b6574706c6163652063616e20636f6e6669726d20736869\n        /* \"#utility.yul\":15109:15110   */\n      0x00\n        /* \"#utility.yul\":15101:15107   */\n      dup3\n        /* \"#utility.yul\":15097:15111   */\n      add\n        /* \"#utility.yul\":15090:15148   */\n      mstore\n        /* \"#utility.yul\":15182:15189   */\n      0x7070696e67000000000000000000000000000000000000000000000000000000\n        /* \"#utility.yul\":15177:15179   */\n      0x20\n        /* \"#utility.yul\":15169:15175   */\n      dup3\n        /* \"#utility.yul\":15165:15180   */\n      add\n        /* \"#utility.yul\":15158:15190   */\n      mstore\n        /* \"#utility.yul\":14973:15197   */\n      pop\n      jump\t// out\n        /* \"#utility.yul\":15203:15569   */\n    tag_184:\n        /* \"#utility.yul\":15345:15348   */\n      0x00\n        /* \"#utility.yul\":15366:15433   */\n      tag_340\n        /* \"#utility.yul\":15430:15432   */\n      0x25\n        /* \"#utility.yul\":15425:15428   */\n      dup4\n        /* \"#utility.yul\":15366:15433   */\n      tag_173\n      jump\t// in\n    tag_340:\n        /* \"#utility.yul\":15359:15433   */\n      swap2\n      pop\n        /* \"#utility.yul\":15442:15535   */\n      tag_341\n        /* \"#utility.yul\":15531:15534   */\n      dup3\n        /* \"#utility.yul\":15442:15535   */\n      tag_183\n      jump\t// in\n    tag_341:\n        /* \"#utility.yul\":15560:15562   */\n      0x40\n        /* \"#utility.yul\":15555:15558   */\n      dup3\n        /* \"#utility.yul\":15551:15563   */\n      add\n        /* \"#utility.yul\":15544:15563   */\n      swap1\n      pop\n        /* \"#utility.yul\":15203:15569   */\n      swap2\n      swap1\n      pop\n      jump\t// out\n        /* \"#utility.yul\":15575:15994   */\n    tag_99:\n        /* \"#utility.yul\":15741:15745   */\n      0x00\n        /* \"#utility.yul\":15779:15781   */\n      0x20\n        /* \"#utility.yul\":15768:15777   */\n      dup3\n        /* \"#utility.yul\":15764:15782   */\n      add\n        /* \"#utility.yul\":15756:15782   */\n      swap1\n      pop\n        /* \"#utility.yul\":15828:15837   */\n      dup2\n        /* \"#utility.yul\":15822:15826   */\n      dup2\n        /* \"#utility.yul\":15818:15838   */\n      sub\n        /* \"#utility.yul\":15814:15815   */\n      0x00\n        /* \"#utility.yul\":15803:15812   */\n      dup4\n        /* \"#utility.yul\":15799:15816   */\n      add\n        /* \"#utility.yul\":15792:15839   */\n      mstore\n        /* \"#utility.yul\":15856:15987   */\n      tag_343\n        /* \"#utility.yul\":15982:15986   */\n      dup2\n        /* \"#utility.yul\":15856:15987   */\n      tag_184\n      jump\t// in\n    tag_343:\n        /* \"#utility.yul\":15848:15987   */\n      swap1\n      pop\n        /* \"#utility.yul\":15575:15994   */\n      swap2\n      swap1\n      pop\n      jump\t// out\n        /* \"#utility.yul\":16000:16233   */\n    tag_106:\n        /* \"#utility.yul\":16039:16042   */\n      0x00\n        /* \"#utility.yul\":16062:16086   */\n      tag_345\n        /* \"#utility.yul\":16080:16085   */\n      dup3\n        /* \"#utility.yul\":16062:16086   */\n      tag_147\n      jump\t// in\n    tag_345:\n        /* \"#utility.yul\":16053:16086   */\n      swap2\n      pop\n        /* \"#utility.yul\":16108:16174   */\n      0xffffffffffffffffffffffffffffffffffffffffffffffffffffffffffffffff\n        /* \"#utility.yul\":16101:16106   */\n      dup3\n        /* \"#utility.yul\":16098:16175   */\n      sub\n        /* \"#utility.yul\":16095:16198   */\n      tag_346\n      jumpi\n        /* \"#utility.yul\":16178:16196   */\n      tag_347\n      tag_178\n      jump\t// in\n    tag_347:\n        /* \"#utility.yul\":16095:16198   */\n    tag_346:\n        /* \"#utility.yul\":16225:16226   */\n      0x01\n        /* \"#utility.yul\":16218:16223   */\n      dup3\n        /* \"#utility.yul\":16214:16227   */\n      add\n        /* \"#utility.yul\":16207:16227   */\n      swap1\n      pop\n        /* \"#utility.yul\":16000:16233   */\n      swap2\n      swap1\n      pop\n      jump\t// out\n        /* \"#utility.yul\":16239:16792   */\n    tag_117:\n        /* \"#utility.yul\":16416:16420   */\n      0x00\n        /* \"#utility.yul\":16454:16457   */\n      0x80\n        /* \"#utility.yul\":16443:16452   */\n      dup3\n        /* \"#utility.yul\":16439:16458   */\n      add\n        /* \"#utility.yul\":16431:16458   */\n      swap1\n      pop\n        /* \"#utility.yul\":16468:16539   */\n      tag_349\n        /* \"#utility.yul\":16536:16537   */\n      0x00\n        /* \"#utility.yul\":16525:16534   */\n      dup4\n        /* \"#utility.yul\":16521:16538   */\n      add\n        /* \"#utility.yul\":16512:16518   */\n      dup8\n        /* \"#utility.yul\":16468:16539   */\n      tag_148\n      jump\t// in\n    tag_349:\n        /* \"#utility.yul\":16549:16621   */\n      tag_350\n        /* \"#utility.yul\":16617:16619   */\n      0x20\n        /* \"#utility.yul\":16606:16615   */\n      dup4\n        /* \"#utility.yul\":16602:16620   */\n      add\n        /* \"#utility.yul\":16593:16599   */\n      dup7\n        /* \"#utility.yul\":16549:16621   */\n      tag_155\n      jump\t// in\n    tag_350:\n        /* \"#utility.yul\":16631:16703   */\n      tag_351\n        /* \"#utility.yul\":16699:16701   */\n      0x40\n        /* \"#utility.yul\":16688:16697   */\n      dup4\n        /* \"#utility.yul\":16684:16702   */\n      add\n        /* \"#utility.yul\":16675:16681   */\n      dup6\n        /* \"#utility.yul\":16631:16703   */\n      tag_155\n      jump\t// in\n    tag_351:\n        /* \"#utility.yul\":16713:16785   */\n      tag_352\n        /* \"#utility.yul\":16781:16783   */\n      0x60\n        /* \"#utility.yul\":16770:16779   */\n      dup4\n        /* \"#utility.yul\":16766:16784   */\n      add\n        /* \"#utility.yul\":16757:16763   */\n      dup5\n        /* \"#utility.yul\":16713:16785   */\n      tag_155\n      jump\t// in\n    tag_352:\n        /* \"#utility.yul\":16239:16792   */\n      swap6\n      swap5\n      pop\n      pop\n      pop\n      pop\n      pop\n      jump\t// out\n        /* \"#utility.yul\":16798:16976   */\n    tag_185:\n        /* \"#utility.yul\":16938:16968   */\n      0x4f6e6c792062757965722063616e20636f6e6669726d20676f6f647300000000\n        /* \"#utility.yul\":16934:16935   */\n      0x00\n        /* \"#utility.yul\":16926:16932   */\n      dup3\n        /* \"#utility.yul\":16922:16936   */\n      add\n        /* \"#utility.yul\":16915:16969   */\n      mstore\n        /* \"#utility.yul\":16798:16976   */\n      pop\n      jump\t// out\n        /* \"#utility.yul\":16982:17348   */\n    tag_186:\n        /* \"#utility.yul\":17124:17127   */\n      0x00\n        /* \"#utility.yul\":17145:17212   */\n      tag_355\n        /* \"#utility.yul\":17209:17211   */\n      0x1c\n        /* \"#utility.yul\":17204:17207   */\n      dup4\n        /* \"#utility.yul\":17145:17212   */\n      tag_173\n      jump\t// in\n    tag_355:\n        /* \"#utility.yul\":17138:17212   */\n      swap2\n      pop\n        /* \"#utility.yul\":17221:17314   */\n      tag_356\n        /* \"#utility.yul\":17310:17313   */\n      dup3\n        /* \"#utility.yul\":17221:17314   */\n      tag_185\n      jump\t// in\n    tag_356:\n        /* \"#utility.yul\":17339:17341   */\n      0x20\n        /* \"#utility.yul\":17334:17337   */\n      dup3\n        /* \"#utility.yul\":17330:17342   */\n      add\n        /* \"#utility.yul\":17323:17342   */\n      swap1\n      pop\n        /* \"#utility.yul\":16982:17348   */\n      swap2\n      swap1\n      pop\n      jump\t// out\n        /* \"#utility.yul\":17354:17773   */\n    tag_128:\n        /* \"#utility.yul\":17520:17524   */\n      0x00\n        /* \"#utility.yul\":17558:17560   */\n      0x20\n        /* \"#utility.yul\":17547:17556   */\n      dup3\n        /* \"#utility.yul\":17543:17561   */\n      add\n        /* \"#utility.yul\":17535:17561   */\n      swap1\n      pop\n        /* \"#utility.yul\":17607:17616   */\n      dup2\n        /* \"#utility.yul\":17601:17605   */\n      dup2\n        /* \"#utility.yul\":17597:17617   */\n      sub\n        /* \"#utility.yul\":17593:17594   */\n      0x00\n        /* \"#utility.yul\":17582:17591   */\n      dup4\n        /* \"#utility.yul\":17578:17595   */\n      add\n        /* \"#utility.yul\":17571:17618   */\n      mstore\n        /* \"#utility.yul\":17635:17766   */\n      tag_358\n        /* \"#utility.yul\":17761:17765   */\n      dup2\n        /* \"#utility.yul\":17635:17766   */\n      tag_186\n      jump\t// in\n    tag_358:\n        /* \"#utility.yul\":17627:17766   */\n      swap1\n      pop\n        /* \"#utility.yul\":17354:17773   */\n      swap2\n      swap1\n      pop\n      jump\t// out\n        /* \"#utility.yul\":17779:17973   */\n    tag_135:\n        /* \"#utility.yul\":17819:17823   */\n      0x00\n        /* \"#utility.yul\":17839:17859   */\n      tag_360\n        /* \"#utility.yul\":17857:17858   */\n      dup3\n        /* \"#utility.yul\":17839:17859   */\n      tag_147\n      jump\t// in\n    tag_360:\n        /* \"#utility.yul\":17834:17859   */\n      swap2\n      pop\n        /* \"#utility.yul\":17873:17893   */\n      tag_361\n        /* \"#utility.yul\":17891:17892   */\n      dup4\n        /* \"#utility.yul\":17873:17893   */\n      tag_147\n      jump\t// in\n    tag_361:\n        /* \"#utility.yul\":17868:17893   */\n      swap3\n      pop\n        /* \"#utility.yul\":17917:17918   */\n      dup3\n        /* \"#utility.yul\":17914:17915   */\n      dup3\n        /* \"#utility.yul\":17910:17919   */\n      sub\n        /* \"#utility.yul\":17902:17919   */\n      swap1\n      pop\n        /* \"#utility.yul\":17941:17942   */\n      dup2\n        /* \"#utility.yul\":17935:17939   */\n      dup2\n        /* \"#utility.yul\":17932:17943   */\n      gt\n        /* \"#utility.yul\":17929:17966   */\n      iszero\n      tag_362\n      jumpi\n        /* \"#utility.yul\":17946:17964   */\n      tag_363\n      tag_178\n      jump\t// in\n    tag_363:\n        /* \"#utility.yul\":17929:17966   */\n    tag_362:\n        /* \"#utility.yul\":17779:17973   */\n      swap3\n      swap2\n      pop\n      pop\n      jump\t// out\n\n    auxdata: 0xa2646970667358221220cefdd7cb45db12915aeeeb69af3d3ac14d22beddd32118b41b9b491b0ca72b4764736f6c634300081a0033\n}\n",
				"bytecode": {
					"linkReferences": {},
					"object": "6080604052348015600e575f80fd5b5061192d8061001c5f395ff3fe608060405234801561000f575f80fd5b506004361061009c575f3560e01c80638cc4df45116100645780638cc4df451461012f5780639ace38c21461014b578063a54be1ef14610184578063b77bf600146101a0578063e2842d79146101be5761009c565b806306fa15a7146100a05780632e2ed75e146100d15780633380c0d8146100ed5780634d3820eb1461010957806351fe3f3d14610113575b5f80fd5b6100ba60048036038101906100b59190611065565b6101dc565b6040516100c89291906110c2565b60405180910390f35b6100eb60048036038101906100e69190611136565b610208565b005b61010760048036038101906101029190611186565b61040e565b005b6101116104a8565b005b61012d600480360381019061012891906111b1565b610614565b005b610149600480360381019061014491906111ef565b610836565b005b61016560048036038101906101609190611186565b610ade565b60405161017b9a999897969594939291906112f5565b60405180910390f35b61019e600480360381019061019991906113b9565b610bb1565b005b6101a8610f76565b6040516101b591906113f7565b60405180910390f35b6101c6610f7c565b6040516101d391906114c7565b60405180910390f35b6003602052805f5260405f205f91509050805f015490806001015f9054906101000a900460ff16905082565b82600180600381111561021e5761021d61123c565b5b60025f8481526020019081526020015f206007015f9054906101000a900460ff1660038111156102515761025061123c565b5b14610291576040517f08c379a000000000000000000000000000000000000000000000000000000000815260040161028890611541565b60405180910390fd5b60025f8681526020019081526020015f206002015f9054906101000a900473ffffffffffffffffffffffffffffffffffffffff1673ffffffffffffffffffffffffffffffffffffffff163373ffffffffffffffffffffffffffffffffffffffff1614610332576040517f08c379a0000000000000000000000000000000000000000000000000000000008152600401610329906115cf565b60405180910390fd5b8360025f8781526020019081526020015f2060070160016101000a81548160ff021916908360028111156103695761036861123c565b5b02179055506002805f8781526020019081526020015f206007015f6101000a81548160ff021916908360038111156103a4576103a361123c565b5b021790555082426103b5919061161a565b60025f8781526020019081526020015f20600601819055507f3c2a09acd9b0d181128682f8a6f57cf164c482311208ecdcd6e65e33a8a98fd58560026040516103ff92919061164d565b60405180910390a15050505050565b5f60025f8381526020019081526020015f2090506003816007015f6101000a81548160ff021916908360038111156104495761044861123c565b5b021790555060018160070160026101000a81548160ff0219169083151502179055507f19bf9ce0b6f41c705c17ecad634e22187a9c311d4ea093b2a979703ce52ac86d825f60405161049c9291906110c2565b60405180910390a15050565b5f803373ffffffffffffffffffffffffffffffffffffffff1673ffffffffffffffffffffffffffffffffffffffff1681526020019081526020015f206001015f9054906101000a900460ff1615610534576040517f08c379a000000000000000000000000000000000000000000000000000000000815260040161052b906116be565b60405180910390fd5b60405180604001604052805f8152602001600115158152505f803373ffffffffffffffffffffffffffffffffffffffff1673ffffffffffffffffffffffffffffffffffffffff1681526020019081526020015f205f820151815f01556020820151816001015f6101000a81548160ff021916908315150217905550905050600133908060018154018082558091505060019003905f5260205f20015f9091909190916101000a81548173ffffffffffffffffffffffffffffffffffffffff021916908373ffffffffffffffffffffffffffffffffffffffff160217905550565b815f8060038111156106295761062861123c565b5b60025f8481526020019081526020015f206007015f9054906101000a900460ff16600381111561065c5761065b61123c565b5b1461069c576040517f08c379a000000000000000000000000000000000000000000000000000000000815260040161069390611541565b60405180910390fd5b60025f8581526020019081526020015f2060040154804211156106f4576040517f08c379a00000000000000000000000000000000000000000000000000000000081526004016106eb90611726565b60405180910390fd5b60025f8681526020019081526020015f206002015f9054906101000a900473ffffffffffffffffffffffffffffffffffffffff1673ffffffffffffffffffffffffffffffffffffffff163373ffffffffffffffffffffffffffffffffffffffff1614610795576040517f08c379a000000000000000000000000000000000000000000000000000000000815260040161078c906117b4565b60405180910390fd5b600160025f8781526020019081526020015f206007015f6101000a81548160ff021916908360038111156107cc576107cb61123c565b5b021790555083426107dd919061161a565b60025f8781526020019081526020015f20600501819055507f3c2a09acd9b0d181128682f8a6f57cf164c482311208ecdcd6e65e33a8a98fd585600160405161082792919061164d565b60405180910390a15050505050565b60045f815480929190610848906117d2565b91905055505f60045490506040518061014001604052808473ffffffffffffffffffffffffffffffffffffffff1681526020018373ffffffffffffffffffffffffffffffffffffffff1681526020013373ffffffffffffffffffffffffffffffffffffffff168152602001428152602001620a8c00426108c8919061161a565b81526020015f81526020015f81526020015f60038111156108ec576108eb61123c565b5b81526020015f60028111156109045761090361123c565b5b81526020015f151581525060025f8381526020019081526020015f205f820151815f015f6101000a81548173ffffffffffffffffffffffffffffffffffffffff021916908373ffffffffffffffffffffffffffffffffffffffff1602179055506020820151816001015f6101000a81548173ffffffffffffffffffffffffffffffffffffffff021916908373ffffffffffffffffffffffffffffffffffffffff1602179055506040820151816002015f6101000a81548173ffffffffffffffffffffffffffffffffffffffff021916908373ffffffffffffffffffffffffffffffffffffffff160217905550606082015181600301556080820151816004015560a0820151816005015560c0820151816006015560e0820151816007015f6101000a81548160ff02191690836003811115610a4257610a4161123c565b5b02179055506101008201518160070160016101000a81548160ff02191690836002811115610a7357610a7261123c565b5b02179055506101208201518160070160026101000a81548160ff0219169083151502179055509050507fd6fd21a60c3540a4a80a924752f808251aa55566173cfdafcc1eea12e6b3ca8881848433604051610ad19493929190611819565b60405180910390a1505050565b6002602052805f5260405f205f91509050805f015f9054906101000a900473ffffffffffffffffffffffffffffffffffffffff1690806001015f9054906101000a900473ffffffffffffffffffffffffffffffffffffffff1690806002015f9054906101000a900473ffffffffffffffffffffffffffffffffffffffff1690806003015490806004015490806005015490806006015490806007015f9054906101000a900460ff16908060070160019054906101000a900460ff16908060070160029054906101000a900460ff1690508a565b816002806003811115610bc757610bc661123c565b5b60025f8481526020019081526020015f206007015f9054906101000a900460ff166003811115610bfa57610bf961123c565b5b14610c3a576040517f08c379a0000000000000000000000000000000000000000000000000000000008152600401610c3190611541565b60405180910390fd5b60025f8581526020019081526020015f205f015f9054906101000a900473ffffffffffffffffffffffffffffffffffffffff1673ffffffffffffffffffffffffffffffffffffffff163373ffffffffffffffffffffffffffffffffffffffff1614610cda576040517f08c379a0000000000000000000000000000000000000000000000000000000008152600401610cd1906118a6565b60405180910390fd5b600160025f8681526020019081526020015f2060070160026101000a81548160ff0219169083151502179055508215610eac57600560035f60025f8881526020019081526020015f205f015f9054906101000a900473ffffffffffffffffffffffffffffffffffffffff1673ffffffffffffffffffffffffffffffffffffffff1673ffffffffffffffffffffffffffffffffffffffff1681526020019081526020015f205f015f828254610d8e919061161a565b92505081905550600560035f60025f8881526020019081526020015f206001015f9054906101000a900473ffffffffffffffffffffffffffffffffffffffff1673ffffffffffffffffffffffffffffffffffffffff1673ffffffffffffffffffffffffffffffffffffffff1681526020019081526020015f205f015f828254610e17919061161a565b92505081905550600560035f60025f8881526020019081526020015f206002015f9054906101000a900473ffffffffffffffffffffffffffffffffffffffff1673ffffffffffffffffffffffffffffffffffffffff1673ffffffffffffffffffffffffffffffffffffffff1681526020019081526020015f205f015f828254610ea0919061161a565b92505081905550610f36565b600560035f60025f8881526020019081526020015f206001015f9054906101000a900473ffffffffffffffffffffffffffffffffffffffff1673ffffffffffffffffffffffffffffffffffffffff1673ffffffffffffffffffffffffffffffffffffffff1681526020019081526020015f205f015f828254610f2e91906118c4565b925050819055505b7f19bf9ce0b6f41c705c17ecad634e22187a9c311d4ea093b2a979703ce52ac86d846001604051610f689291906110c2565b60405180910390a150505050565b60045481565b60606001805480602002602001604051908101604052809291908181526020018280548015610ffd57602002820191905f5260205f20905b815f9054906101000a900473ffffffffffffffffffffffffffffffffffffffff1673ffffffffffffffffffffffffffffffffffffffff1681526020019060010190808311610fb4575b5050505050905090565b5f80fd5b5f73ffffffffffffffffffffffffffffffffffffffff82169050919050565b5f6110348261100b565b9050919050565b6110448161102a565b811461104e575f80fd5b50565b5f8135905061105f8161103b565b92915050565b5f6020828403121561107a57611079611007565b5b5f61108784828501611051565b91505092915050565b5f819050919050565b6110a281611090565b82525050565b5f8115159050919050565b6110bc816110a8565b82525050565b5f6040820190506110d55f830185611099565b6110e260208301846110b3565b9392505050565b6110f281611090565b81146110fc575f80fd5b50565b5f8135905061110d816110e9565b92915050565b6003811061111f575f80fd5b50565b5f8135905061113081611113565b92915050565b5f805f6060848603121561114d5761114c611007565b5b5f61115a868287016110ff565b935050602061116b86828701611122565b925050604061117c868287016110ff565b9150509250925092565b5f6020828403121561119b5761119a611007565b5b5f6111a8848285016110ff565b91505092915050565b5f80604083850312156111c7576111c6611007565b5b5f6111d4858286016110ff565b92505060206111e5858286016110ff565b9150509250929050565b5f806040838503121561120557611204611007565b5b5f61121285828601611051565b925050602061122385828601611051565b9150509250929050565b6112368161102a565b82525050565b7f4e487b71000000000000000000000000000000000000000000000000000000005f52602160045260245ffd5b6004811061127a5761127961123c565b5b50565b5f81905061128a82611269565b919050565b5f6112998261127d565b9050919050565b6112a98161128f565b82525050565b600381106112c0576112bf61123c565b5b50565b5f8190506112d0826112af565b919050565b5f6112df826112c3565b9050919050565b6112ef816112d5565b82525050565b5f610140820190506113095f83018d61122d565b611316602083018c61122d565b611323604083018b61122d565b611330606083018a611099565b61133d6080830189611099565b61134a60a0830188611099565b61135760c0830187611099565b61136460e08301866112a0565b6113726101008301856112e6565b6113806101208301846110b3565b9b9a5050505050505050505050565b611398816110a8565b81146113a2575f80fd5b50565b5f813590506113b38161138f565b92915050565b5f80604083850312156113cf576113ce611007565b5b5f6113dc858286016110ff565b92505060206113ed858286016113a5565b9150509250929050565b5f60208201905061140a5f830184611099565b92915050565b5f81519050919050565b5f82825260208201905092915050565b5f819050602082019050919050565b6114428161102a565b82525050565b5f6114538383611439565b60208301905092915050565b5f602082019050919050565b5f61147582611410565b61147f818561141a565b935061148a8361142a565b805f5b838110156114ba5781516114a18882611448565b97506114ac8361145f565b92505060018101905061148d565b5085935050505092915050565b5f6020820190508181035f8301526114df818461146b565b905092915050565b5f82825260208201905092915050565b7f496e76616c696420737461746520666f72207468697320616374696f6e0000005f82015250565b5f61152b601d836114e7565b9150611536826114f7565b602082019050919050565b5f6020820190508181035f8301526115588161151f565b9050919050565b7f4f6e6c79206d61726b6574706c6163652063616e207570646174652064656c695f8201527f7665727920737461746500000000000000000000000000000000000000000000602082015250565b5f6115b9602a836114e7565b91506115c48261155f565b604082019050919050565b5f6020820190508181035f8301526115e6816115ad565b9050919050565b7f4e487b71000000000000000000000000000000000000000000000000000000005f52601160045260245ffd5b5f61162482611090565b915061162f83611090565b9250828201905080821115611647576116466115ed565b5b92915050565b5f6040820190506116605f830185611099565b61166d60208301846112a0565b9392505050565b7f5573657220616c726561647920726567697374657265640000000000000000005f82015250565b5f6116a86017836114e7565b91506116b382611674565b602082019050919050565b5f6020820190508181035f8301526116d58161169c565b9050919050565b7f416374696f6e206973206e6f206c6f6e67657220616c6c6f77656400000000005f82015250565b5f611710601b836114e7565b915061171b826116dc565b602082019050919050565b5f6020820190508181035f83015261173d81611704565b9050919050565b7f4f6e6c79206d61726b6574706c6163652063616e20636f6e6669726d207368695f8201527f7070696e67000000000000000000000000000000000000000000000000000000602082015250565b5f61179e6025836114e7565b91506117a982611744565b604082019050919050565b5f6020820190508181035f8301526117cb81611792565b9050919050565b5f6117dc82611090565b91507fffffffffffffffffffffffffffffffffffffffffffffffffffffffffffffffff820361180e5761180d6115ed565b5b600182019050919050565b5f60808201905061182c5f830187611099565b611839602083018661122d565b611846604083018561122d565b611853606083018461122d565b95945050505050565b7f4f6e6c792062757965722063616e20636f6e6669726d20676f6f6473000000005f82015250565b5f611890601c836114e7565b915061189b8261185c565b602082019050919050565b5f6020820190508181035f8301526118bd81611884565b9050919050565b5f6118ce82611090565b91506118d983611090565b92508282039050818111156118f1576118f06115ed565b5b9291505056fea2646970667358221220cefdd7cb45db12915aeeeb69af3d3ac14d22beddd32118b41b9b491b0ca72b4764736f6c634300081a0033",
					"opcodes": "PUSH1 0x80 PUSH1 0x40 MSTORE CALLVALUE DUP1 ISZERO PUSH1 0xE JUMPI PUSH0 DUP1 REVERT JUMPDEST POP PUSH2 0x192D DUP1 PUSH2 0x1C PUSH0 CODECOPY PUSH0 RETURN INVALID PUSH1 0x80 PUSH1 0x40 MSTORE CALLVALUE DUP1 ISZERO PUSH2 0xF JUMPI PUSH0 DUP1 REVERT JUMPDEST POP PUSH1 0x4 CALLDATASIZE LT PUSH2 0x9C JUMPI PUSH0 CALLDATALOAD PUSH1 0xE0 SHR DUP1 PUSH4 0x8CC4DF45 GT PUSH2 0x64 JUMPI DUP1 PUSH4 0x8CC4DF45 EQ PUSH2 0x12F JUMPI DUP1 PUSH4 0x9ACE38C2 EQ PUSH2 0x14B JUMPI DUP1 PUSH4 0xA54BE1EF EQ PUSH2 0x184 JUMPI DUP1 PUSH4 0xB77BF600 EQ PUSH2 0x1A0 JUMPI DUP1 PUSH4 0xE2842D79 EQ PUSH2 0x1BE JUMPI PUSH2 0x9C JUMP JUMPDEST DUP1 PUSH4 0x6FA15A7 EQ PUSH2 0xA0 JUMPI DUP1 PUSH4 0x2E2ED75E EQ PUSH2 0xD1 JUMPI DUP1 PUSH4 0x3380C0D8 EQ PUSH2 0xED JUMPI DUP1 PUSH4 0x4D3820EB EQ PUSH2 0x109 JUMPI DUP1 PUSH4 0x51FE3F3D EQ PUSH2 0x113 JUMPI JUMPDEST PUSH0 DUP1 REVERT JUMPDEST PUSH2 0xBA PUSH1 0x4 DUP1 CALLDATASIZE SUB DUP2 ADD SWAP1 PUSH2 0xB5 SWAP2 SWAP1 PUSH2 0x1065 JUMP JUMPDEST PUSH2 0x1DC JUMP JUMPDEST PUSH1 0x40 MLOAD PUSH2 0xC8 SWAP3 SWAP2 SWAP1 PUSH2 0x10C2 JUMP JUMPDEST PUSH1 0x40 MLOAD DUP1 SWAP2 SUB SWAP1 RETURN JUMPDEST PUSH2 0xEB PUSH1 0x4 DUP1 CALLDATASIZE SUB DUP2 ADD SWAP1 PUSH2 0xE6 SWAP2 SWAP1 PUSH2 0x1136 JUMP JUMPDEST PUSH2 0x208 JUMP JUMPDEST STOP JUMPDEST PUSH2 0x107 PUSH1 0x4 DUP1 CALLDATASIZE SUB DUP2 ADD SWAP1 PUSH2 0x102 SWAP2 SWAP1 PUSH2 0x1186 JUMP JUMPDEST PUSH2 0x40E JUMP JUMPDEST STOP JUMPDEST PUSH2 0x111 PUSH2 0x4A8 JUMP JUMPDEST STOP JUMPDEST PUSH2 0x12D PUSH1 0x4 DUP1 CALLDATASIZE SUB DUP2 ADD SWAP1 PUSH2 0x128 SWAP2 SWAP1 PUSH2 0x11B1 JUMP JUMPDEST PUSH2 0x614 JUMP JUMPDEST STOP JUMPDEST PUSH2 0x149 PUSH1 0x4 DUP1 CALLDATASIZE SUB DUP2 ADD SWAP1 PUSH2 0x144 SWAP2 SWAP1 PUSH2 0x11EF JUMP JUMPDEST PUSH2 0x836 JUMP JUMPDEST STOP JUMPDEST PUSH2 0x165 PUSH1 0x4 DUP1 CALLDATASIZE SUB DUP2 ADD SWAP1 PUSH2 0x160 SWAP2 SWAP1 PUSH2 0x1186 JUMP JUMPDEST PUSH2 0xADE JUMP JUMPDEST PUSH1 0x40 MLOAD PUSH2 0x17B SWAP11 SWAP10 SWAP9 SWAP8 SWAP7 SWAP6 SWAP5 SWAP4 SWAP3 SWAP2 SWAP1 PUSH2 0x12F5 JUMP JUMPDEST PUSH1 0x40 MLOAD DUP1 SWAP2 SUB SWAP1 RETURN JUMPDEST PUSH2 0x19E PUSH1 0x4 DUP1 CALLDATASIZE SUB DUP2 ADD SWAP1 PUSH2 0x199 SWAP2 SWAP1 PUSH2 0x13B9 JUMP JUMPDEST PUSH2 0xBB1 JUMP JUMPDEST STOP JUMPDEST PUSH2 0x1A8 PUSH2 0xF76 JUMP JUMPDEST PUSH1 0x40 MLOAD PUSH2 0x1B5 SWAP2 SWAP1 PUSH2 0x13F7 JUMP JUMPDEST PUSH1 0x40 MLOAD DUP1 SWAP2 SUB SWAP1 RETURN JUMPDEST PUSH2 0x1C6 PUSH2 0xF7C JUMP JUMPDEST PUSH1 0x40 MLOAD PUSH2 0x1D3 SWAP2 SWAP1 PUSH2 0x14C7 JUMP JUMPDEST PUSH1 0x40 MLOAD DUP1 SWAP2 SUB SWAP1 RETURN JUMPDEST PUSH1 0x3 PUSH1 0x20 MSTORE DUP1 PUSH0 MSTORE PUSH1 0x40 PUSH0 KECCAK256 PUSH0 SWAP2 POP SWAP1 POP DUP1 PUSH0 ADD SLOAD SWAP1 DUP1 PUSH1 0x1 ADD PUSH0 SWAP1 SLOAD SWAP1 PUSH2 0x100 EXP SWAP1 DIV PUSH1 0xFF AND SWAP1 POP DUP3 JUMP JUMPDEST DUP3 PUSH1 0x1 DUP1 PUSH1 0x3 DUP2 GT ISZERO PUSH2 0x21E JUMPI PUSH2 0x21D PUSH2 0x123C JUMP JUMPDEST JUMPDEST PUSH1 0x2 PUSH0 DUP5 DUP2 MSTORE PUSH1 0x20 ADD SWAP1 DUP2 MSTORE PUSH1 0x20 ADD PUSH0 KECCAK256 PUSH1 0x7 ADD PUSH0 SWAP1 SLOAD SWAP1 PUSH2 0x100 EXP SWAP1 DIV PUSH1 0xFF AND PUSH1 0x3 DUP2 GT ISZERO PUSH2 0x251 JUMPI PUSH2 0x250 PUSH2 0x123C JUMP JUMPDEST JUMPDEST EQ PUSH2 0x291 JUMPI PUSH1 0x40 MLOAD PUSH32 0x8C379A000000000000000000000000000000000000000000000000000000000 DUP2 MSTORE PUSH1 0x4 ADD PUSH2 0x288 SWAP1 PUSH2 0x1541 JUMP JUMPDEST PUSH1 0x40 MLOAD DUP1 SWAP2 SUB SWAP1 REVERT JUMPDEST PUSH1 0x2 PUSH0 DUP7 DUP2 MSTORE PUSH1 0x20 ADD SWAP1 DUP2 MSTORE PUSH1 0x20 ADD PUSH0 KECCAK256 PUSH1 0x2 ADD PUSH0 SWAP1 SLOAD SWAP1 PUSH2 0x100 EXP SWAP1 DIV PUSH20 0xFFFFFFFFFFFFFFFFFFFFFFFFFFFFFFFFFFFFFFFF AND PUSH20 0xFFFFFFFFFFFFFFFFFFFFFFFFFFFFFFFFFFFFFFFF AND CALLER PUSH20 0xFFFFFFFFFFFFFFFFFFFFFFFFFFFFFFFFFFFFFFFF AND EQ PUSH2 0x332 JUMPI PUSH1 0x40 MLOAD PUSH32 0x8C379A000000000000000000000000000000000000000000000000000000000 DUP2 MSTORE PUSH1 0x4 ADD PUSH2 0x329 SWAP1 PUSH2 0x15CF JUMP JUMPDEST PUSH1 0x40 MLOAD DUP1 SWAP2 SUB SWAP1 REVERT JUMPDEST DUP4 PUSH1 0x2 PUSH0 DUP8 DUP2 MSTORE PUSH1 0x20 ADD SWAP1 DUP2 MSTORE PUSH1 0x20 ADD PUSH0 KECCAK256 PUSH1 0x7 ADD PUSH1 0x1 PUSH2 0x100 EXP DUP2 SLOAD DUP2 PUSH1 0xFF MUL NOT AND SWAP1 DUP4 PUSH1 0x2 DUP2 GT ISZERO PUSH2 0x369 JUMPI PUSH2 0x368 PUSH2 0x123C JUMP JUMPDEST JUMPDEST MUL OR SWAP1 SSTORE POP PUSH1 0x2 DUP1 PUSH0 DUP8 DUP2 MSTORE PUSH1 0x20 ADD SWAP1 DUP2 MSTORE PUSH1 0x20 ADD PUSH0 KECCAK256 PUSH1 0x7 ADD PUSH0 PUSH2 0x100 EXP DUP2 SLOAD DUP2 PUSH1 0xFF MUL NOT AND SWAP1 DUP4 PUSH1 0x3 DUP2 GT ISZERO PUSH2 0x3A4 JUMPI PUSH2 0x3A3 PUSH2 0x123C JUMP JUMPDEST JUMPDEST MUL OR SWAP1 SSTORE POP DUP3 TIMESTAMP PUSH2 0x3B5 SWAP2 SWAP1 PUSH2 0x161A JUMP JUMPDEST PUSH1 0x2 PUSH0 DUP8 DUP2 MSTORE PUSH1 0x20 ADD SWAP1 DUP2 MSTORE PUSH1 0x20 ADD PUSH0 KECCAK256 PUSH1 0x6 ADD DUP2 SWAP1 SSTORE POP PUSH32 0x3C2A09ACD9B0D181128682F8A6F57CF164C482311208ECDCD6E65E33A8A98FD5 DUP6 PUSH1 0x2 PUSH1 0x40 MLOAD PUSH2 0x3FF SWAP3 SWAP2 SWAP1 PUSH2 0x164D JUMP JUMPDEST PUSH1 0x40 MLOAD DUP1 SWAP2 SUB SWAP1 LOG1 POP POP POP POP POP JUMP JUMPDEST PUSH0 PUSH1 0x2 PUSH0 DUP4 DUP2 MSTORE PUSH1 0x20 ADD SWAP1 DUP2 MSTORE PUSH1 0x20 ADD PUSH0 KECCAK256 SWAP1 POP PUSH1 0x3 DUP2 PUSH1 0x7 ADD PUSH0 PUSH2 0x100 EXP DUP2 SLOAD DUP2 PUSH1 0xFF MUL NOT AND SWAP1 DUP4 PUSH1 0x3 DUP2 GT ISZERO PUSH2 0x449 JUMPI PUSH2 0x448 PUSH2 0x123C JUMP JUMPDEST JUMPDEST MUL OR SWAP1 SSTORE POP PUSH1 0x1 DUP2 PUSH1 0x7 ADD PUSH1 0x2 PUSH2 0x100 EXP DUP2 SLOAD DUP2 PUSH1 0xFF MUL NOT AND SWAP1 DUP4 ISZERO ISZERO MUL OR SWAP1 SSTORE POP PUSH32 0x19BF9CE0B6F41C705C17ECAD634E22187A9C311D4EA093B2A979703CE52AC86D DUP3 PUSH0 PUSH1 0x40 MLOAD PUSH2 0x49C SWAP3 SWAP2 SWAP1 PUSH2 0x10C2 JUMP JUMPDEST PUSH1 0x40 MLOAD DUP1 SWAP2 SUB SWAP1 LOG1 POP POP JUMP JUMPDEST PUSH0 DUP1 CALLER PUSH20 0xFFFFFFFFFFFFFFFFFFFFFFFFFFFFFFFFFFFFFFFF AND PUSH20 0xFFFFFFFFFFFFFFFFFFFFFFFFFFFFFFFFFFFFFFFF AND DUP2 MSTORE PUSH1 0x20 ADD SWAP1 DUP2 MSTORE PUSH1 0x20 ADD PUSH0 KECCAK256 PUSH1 0x1 ADD PUSH0 SWAP1 SLOAD SWAP1 PUSH2 0x100 EXP SWAP1 DIV PUSH1 0xFF AND ISZERO PUSH2 0x534 JUMPI PUSH1 0x40 MLOAD PUSH32 0x8C379A000000000000000000000000000000000000000000000000000000000 DUP2 MSTORE PUSH1 0x4 ADD PUSH2 0x52B SWAP1 PUSH2 0x16BE JUMP JUMPDEST PUSH1 0x40 MLOAD DUP1 SWAP2 SUB SWAP1 REVERT JUMPDEST PUSH1 0x40 MLOAD DUP1 PUSH1 0x40 ADD PUSH1 0x40 MSTORE DUP1 PUSH0 DUP2 MSTORE PUSH1 0x20 ADD PUSH1 0x1 ISZERO ISZERO DUP2 MSTORE POP PUSH0 DUP1 CALLER PUSH20 0xFFFFFFFFFFFFFFFFFFFFFFFFFFFFFFFFFFFFFFFF AND PUSH20 0xFFFFFFFFFFFFFFFFFFFFFFFFFFFFFFFFFFFFFFFF AND DUP2 MSTORE PUSH1 0x20 ADD SWAP1 DUP2 MSTORE PUSH1 0x20 ADD PUSH0 KECCAK256 PUSH0 DUP3 ADD MLOAD DUP2 PUSH0 ADD SSTORE PUSH1 0x20 DUP3 ADD MLOAD DUP2 PUSH1 0x1 ADD PUSH0 PUSH2 0x100 EXP DUP2 SLOAD DUP2 PUSH1 0xFF MUL NOT AND SWAP1 DUP4 ISZERO ISZERO MUL OR SWAP1 SSTORE POP SWAP1 POP POP PUSH1 0x1 CALLER SWAP1 DUP1 PUSH1 0x1 DUP2 SLOAD ADD DUP1 DUP3 SSTORE DUP1 SWAP2 POP POP PUSH1 0x1 SWAP1 SUB SWAP1 PUSH0 MSTORE PUSH1 0x20 PUSH0 KECCAK256 ADD PUSH0 SWAP1 SWAP2 SWAP1 SWAP2 SWAP1 SWAP2 PUSH2 0x100 EXP DUP2 SLOAD DUP2 PUSH20 0xFFFFFFFFFFFFFFFFFFFFFFFFFFFFFFFFFFFFFFFF MUL NOT AND SWAP1 DUP4 PUSH20 0xFFFFFFFFFFFFFFFFFFFFFFFFFFFFFFFFFFFFFFFF AND MUL OR SWAP1 SSTORE POP JUMP JUMPDEST DUP2 PUSH0 DUP1 PUSH1 0x3 DUP2 GT ISZERO PUSH2 0x629 JUMPI PUSH2 0x628 PUSH2 0x123C JUMP JUMPDEST JUMPDEST PUSH1 0x2 PUSH0 DUP5 DUP2 MSTORE PUSH1 0x20 ADD SWAP1 DUP2 MSTORE PUSH1 0x20 ADD PUSH0 KECCAK256 PUSH1 0x7 ADD PUSH0 SWAP1 SLOAD SWAP1 PUSH2 0x100 EXP SWAP1 DIV PUSH1 0xFF AND PUSH1 0x3 DUP2 GT ISZERO PUSH2 0x65C JUMPI PUSH2 0x65B PUSH2 0x123C JUMP JUMPDEST JUMPDEST EQ PUSH2 0x69C JUMPI PUSH1 0x40 MLOAD PUSH32 0x8C379A000000000000000000000000000000000000000000000000000000000 DUP2 MSTORE PUSH1 0x4 ADD PUSH2 0x693 SWAP1 PUSH2 0x1541 JUMP JUMPDEST PUSH1 0x40 MLOAD DUP1 SWAP2 SUB SWAP1 REVERT JUMPDEST PUSH1 0x2 PUSH0 DUP6 DUP2 MSTORE PUSH1 0x20 ADD SWAP1 DUP2 MSTORE PUSH1 0x20 ADD PUSH0 KECCAK256 PUSH1 0x4 ADD SLOAD DUP1 TIMESTAMP GT ISZERO PUSH2 0x6F4 JUMPI PUSH1 0x40 MLOAD PUSH32 0x8C379A000000000000000000000000000000000000000000000000000000000 DUP2 MSTORE PUSH1 0x4 ADD PUSH2 0x6EB SWAP1 PUSH2 0x1726 JUMP JUMPDEST PUSH1 0x40 MLOAD DUP1 SWAP2 SUB SWAP1 REVERT JUMPDEST PUSH1 0x2 PUSH0 DUP7 DUP2 MSTORE PUSH1 0x20 ADD SWAP1 DUP2 MSTORE PUSH1 0x20 ADD PUSH0 KECCAK256 PUSH1 0x2 ADD PUSH0 SWAP1 SLOAD SWAP1 PUSH2 0x100 EXP SWAP1 DIV PUSH20 0xFFFFFFFFFFFFFFFFFFFFFFFFFFFFFFFFFFFFFFFF AND PUSH20 0xFFFFFFFFFFFFFFFFFFFFFFFFFFFFFFFFFFFFFFFF AND CALLER PUSH20 0xFFFFFFFFFFFFFFFFFFFFFFFFFFFFFFFFFFFFFFFF AND EQ PUSH2 0x795 JUMPI PUSH1 0x40 MLOAD PUSH32 0x8C379A000000000000000000000000000000000000000000000000000000000 DUP2 MSTORE PUSH1 0x4 ADD PUSH2 0x78C SWAP1 PUSH2 0x17B4 JUMP JUMPDEST PUSH1 0x40 MLOAD DUP1 SWAP2 SUB SWAP1 REVERT JUMPDEST PUSH1 0x1 PUSH1 0x2 PUSH0 DUP8 DUP2 MSTORE PUSH1 0x20 ADD SWAP1 DUP2 MSTORE PUSH1 0x20 ADD PUSH0 KECCAK256 PUSH1 0x7 ADD PUSH0 PUSH2 0x100 EXP DUP2 SLOAD DUP2 PUSH1 0xFF MUL NOT AND SWAP1 DUP4 PUSH1 0x3 DUP2 GT ISZERO PUSH2 0x7CC JUMPI PUSH2 0x7CB PUSH2 0x123C JUMP JUMPDEST JUMPDEST MUL OR SWAP1 SSTORE POP DUP4 TIMESTAMP PUSH2 0x7DD SWAP2 SWAP1 PUSH2 0x161A JUMP JUMPDEST PUSH1 0x2 PUSH0 DUP8 DUP2 MSTORE PUSH1 0x20 ADD SWAP1 DUP2 MSTORE PUSH1 0x20 ADD PUSH0 KECCAK256 PUSH1 0x5 ADD DUP2 SWAP1 SSTORE POP PUSH32 0x3C2A09ACD9B0D181128682F8A6F57CF164C482311208ECDCD6E65E33A8A98FD5 DUP6 PUSH1 0x1 PUSH1 0x40 MLOAD PUSH2 0x827 SWAP3 SWAP2 SWAP1 PUSH2 0x164D JUMP JUMPDEST PUSH1 0x40 MLOAD DUP1 SWAP2 SUB SWAP1 LOG1 POP POP POP POP POP JUMP JUMPDEST PUSH1 0x4 PUSH0 DUP2 SLOAD DUP1 SWAP3 SWAP2 SWAP1 PUSH2 0x848 SWAP1 PUSH2 0x17D2 JUMP JUMPDEST SWAP2 SWAP1 POP SSTORE POP PUSH0 PUSH1 0x4 SLOAD SWAP1 POP PUSH1 0x40 MLOAD DUP1 PUSH2 0x140 ADD PUSH1 0x40 MSTORE DUP1 DUP5 PUSH20 0xFFFFFFFFFFFFFFFFFFFFFFFFFFFFFFFFFFFFFFFF AND DUP2 MSTORE PUSH1 0x20 ADD DUP4 PUSH20 0xFFFFFFFFFFFFFFFFFFFFFFFFFFFFFFFFFFFFFFFF AND DUP2 MSTORE PUSH1 0x20 ADD CALLER PUSH20 0xFFFFFFFFFFFFFFFFFFFFFFFFFFFFFFFFFFFFFFFF AND DUP2 MSTORE PUSH1 0x20 ADD TIMESTAMP DUP2 MSTORE PUSH1 0x20 ADD PUSH3 0xA8C00 TIMESTAMP PUSH2 0x8C8 SWAP2 SWAP1 PUSH2 0x161A JUMP JUMPDEST DUP2 MSTORE PUSH1 0x20 ADD PUSH0 DUP2 MSTORE PUSH1 0x20 ADD PUSH0 DUP2 MSTORE PUSH1 0x20 ADD PUSH0 PUSH1 0x3 DUP2 GT ISZERO PUSH2 0x8EC JUMPI PUSH2 0x8EB PUSH2 0x123C JUMP JUMPDEST JUMPDEST DUP2 MSTORE PUSH1 0x20 ADD PUSH0 PUSH1 0x2 DUP2 GT ISZERO PUSH2 0x904 JUMPI PUSH2 0x903 PUSH2 0x123C JUMP JUMPDEST JUMPDEST DUP2 MSTORE PUSH1 0x20 ADD PUSH0 ISZERO ISZERO DUP2 MSTORE POP PUSH1 0x2 PUSH0 DUP4 DUP2 MSTORE PUSH1 0x20 ADD SWAP1 DUP2 MSTORE PUSH1 0x20 ADD PUSH0 KECCAK256 PUSH0 DUP3 ADD MLOAD DUP2 PUSH0 ADD PUSH0 PUSH2 0x100 EXP DUP2 SLOAD DUP2 PUSH20 0xFFFFFFFFFFFFFFFFFFFFFFFFFFFFFFFFFFFFFFFF MUL NOT AND SWAP1 DUP4 PUSH20 0xFFFFFFFFFFFFFFFFFFFFFFFFFFFFFFFFFFFFFFFF AND MUL OR SWAP1 SSTORE POP PUSH1 0x20 DUP3 ADD MLOAD DUP2 PUSH1 0x1 ADD PUSH0 PUSH2 0x100 EXP DUP2 SLOAD DUP2 PUSH20 0xFFFFFFFFFFFFFFFFFFFFFFFFFFFFFFFFFFFFFFFF MUL NOT AND SWAP1 DUP4 PUSH20 0xFFFFFFFFFFFFFFFFFFFFFFFFFFFFFFFFFFFFFFFF AND MUL OR SWAP1 SSTORE POP PUSH1 0x40 DUP3 ADD MLOAD DUP2 PUSH1 0x2 ADD PUSH0 PUSH2 0x100 EXP DUP2 SLOAD DUP2 PUSH20 0xFFFFFFFFFFFFFFFFFFFFFFFFFFFFFFFFFFFFFFFF MUL NOT AND SWAP1 DUP4 PUSH20 0xFFFFFFFFFFFFFFFFFFFFFFFFFFFFFFFFFFFFFFFF AND MUL OR SWAP1 SSTORE POP PUSH1 0x60 DUP3 ADD MLOAD DUP2 PUSH1 0x3 ADD SSTORE PUSH1 0x80 DUP3 ADD MLOAD DUP2 PUSH1 0x4 ADD SSTORE PUSH1 0xA0 DUP3 ADD MLOAD DUP2 PUSH1 0x5 ADD SSTORE PUSH1 0xC0 DUP3 ADD MLOAD DUP2 PUSH1 0x6 ADD SSTORE PUSH1 0xE0 DUP3 ADD MLOAD DUP2 PUSH1 0x7 ADD PUSH0 PUSH2 0x100 EXP DUP2 SLOAD DUP2 PUSH1 0xFF MUL NOT AND SWAP1 DUP4 PUSH1 0x3 DUP2 GT ISZERO PUSH2 0xA42 JUMPI PUSH2 0xA41 PUSH2 0x123C JUMP JUMPDEST JUMPDEST MUL OR SWAP1 SSTORE POP PUSH2 0x100 DUP3 ADD MLOAD DUP2 PUSH1 0x7 ADD PUSH1 0x1 PUSH2 0x100 EXP DUP2 SLOAD DUP2 PUSH1 0xFF MUL NOT AND SWAP1 DUP4 PUSH1 0x2 DUP2 GT ISZERO PUSH2 0xA73 JUMPI PUSH2 0xA72 PUSH2 0x123C JUMP JUMPDEST JUMPDEST MUL OR SWAP1 SSTORE POP PUSH2 0x120 DUP3 ADD MLOAD DUP2 PUSH1 0x7 ADD PUSH1 0x2 PUSH2 0x100 EXP DUP2 SLOAD DUP2 PUSH1 0xFF MUL NOT AND SWAP1 DUP4 ISZERO ISZERO MUL OR SWAP1 SSTORE POP SWAP1 POP POP PUSH32 0xD6FD21A60C3540A4A80A924752F808251AA55566173CFDAFCC1EEA12E6B3CA88 DUP2 DUP5 DUP5 CALLER PUSH1 0x40 MLOAD PUSH2 0xAD1 SWAP5 SWAP4 SWAP3 SWAP2 SWAP1 PUSH2 0x1819 JUMP JUMPDEST PUSH1 0x40 MLOAD DUP1 SWAP2 SUB SWAP1 LOG1 POP POP POP JUMP JUMPDEST PUSH1 0x2 PUSH1 0x20 MSTORE DUP1 PUSH0 MSTORE PUSH1 0x40 PUSH0 KECCAK256 PUSH0 SWAP2 POP SWAP1 POP DUP1 PUSH0 ADD PUSH0 SWAP1 SLOAD SWAP1 PUSH2 0x100 EXP SWAP1 DIV PUSH20 0xFFFFFFFFFFFFFFFFFFFFFFFFFFFFFFFFFFFFFFFF AND SWAP1 DUP1 PUSH1 0x1 ADD PUSH0 SWAP1 SLOAD SWAP1 PUSH2 0x100 EXP SWAP1 DIV PUSH20 0xFFFFFFFFFFFFFFFFFFFFFFFFFFFFFFFFFFFFFFFF AND SWAP1 DUP1 PUSH1 0x2 ADD PUSH0 SWAP1 SLOAD SWAP1 PUSH2 0x100 EXP SWAP1 DIV PUSH20 0xFFFFFFFFFFFFFFFFFFFFFFFFFFFFFFFFFFFFFFFF AND SWAP1 DUP1 PUSH1 0x3 ADD SLOAD SWAP1 DUP1 PUSH1 0x4 ADD SLOAD SWAP1 DUP1 PUSH1 0x5 ADD SLOAD SWAP1 DUP1 PUSH1 0x6 ADD SLOAD SWAP1 DUP1 PUSH1 0x7 ADD PUSH0 SWAP1 SLOAD SWAP1 PUSH2 0x100 EXP SWAP1 DIV PUSH1 0xFF AND SWAP1 DUP1 PUSH1 0x7 ADD PUSH1 0x1 SWAP1 SLOAD SWAP1 PUSH2 0x100 EXP SWAP1 DIV PUSH1 0xFF AND SWAP1 DUP1 PUSH1 0x7 ADD PUSH1 0x2 SWAP1 SLOAD SWAP1 PUSH2 0x100 EXP SWAP1 DIV PUSH1 0xFF AND SWAP1 POP DUP11 JUMP JUMPDEST DUP2 PUSH1 0x2 DUP1 PUSH1 0x3 DUP2 GT ISZERO PUSH2 0xBC7 JUMPI PUSH2 0xBC6 PUSH2 0x123C JUMP JUMPDEST JUMPDEST PUSH1 0x2 PUSH0 DUP5 DUP2 MSTORE PUSH1 0x20 ADD SWAP1 DUP2 MSTORE PUSH1 0x20 ADD PUSH0 KECCAK256 PUSH1 0x7 ADD PUSH0 SWAP1 SLOAD SWAP1 PUSH2 0x100 EXP SWAP1 DIV PUSH1 0xFF AND PUSH1 0x3 DUP2 GT ISZERO PUSH2 0xBFA JUMPI PUSH2 0xBF9 PUSH2 0x123C JUMP JUMPDEST JUMPDEST EQ PUSH2 0xC3A JUMPI PUSH1 0x40 MLOAD PUSH32 0x8C379A000000000000000000000000000000000000000000000000000000000 DUP2 MSTORE PUSH1 0x4 ADD PUSH2 0xC31 SWAP1 PUSH2 0x1541 JUMP JUMPDEST PUSH1 0x40 MLOAD DUP1 SWAP2 SUB SWAP1 REVERT JUMPDEST PUSH1 0x2 PUSH0 DUP6 DUP2 MSTORE PUSH1 0x20 ADD SWAP1 DUP2 MSTORE PUSH1 0x20 ADD PUSH0 KECCAK256 PUSH0 ADD PUSH0 SWAP1 SLOAD SWAP1 PUSH2 0x100 EXP SWAP1 DIV PUSH20 0xFFFFFFFFFFFFFFFFFFFFFFFFFFFFFFFFFFFFFFFF AND PUSH20 0xFFFFFFFFFFFFFFFFFFFFFFFFFFFFFFFFFFFFFFFF AND CALLER PUSH20 0xFFFFFFFFFFFFFFFFFFFFFFFFFFFFFFFFFFFFFFFF AND EQ PUSH2 0xCDA JUMPI PUSH1 0x40 MLOAD PUSH32 0x8C379A000000000000000000000000000000000000000000000000000000000 DUP2 MSTORE PUSH1 0x4 ADD PUSH2 0xCD1 SWAP1 PUSH2 0x18A6 JUMP JUMPDEST PUSH1 0x40 MLOAD DUP1 SWAP2 SUB SWAP1 REVERT JUMPDEST PUSH1 0x1 PUSH1 0x2 PUSH0 DUP7 DUP2 MSTORE PUSH1 0x20 ADD SWAP1 DUP2 MSTORE PUSH1 0x20 ADD PUSH0 KECCAK256 PUSH1 0x7 ADD PUSH1 0x2 PUSH2 0x100 EXP DUP2 SLOAD DUP2 PUSH1 0xFF MUL NOT AND SWAP1 DUP4 ISZERO ISZERO MUL OR SWAP1 SSTORE POP DUP3 ISZERO PUSH2 0xEAC JUMPI PUSH1 0x5 PUSH1 0x3 PUSH0 PUSH1 0x2 PUSH0 DUP9 DUP2 MSTORE PUSH1 0x20 ADD SWAP1 DUP2 MSTORE PUSH1 0x20 ADD PUSH0 KECCAK256 PUSH0 ADD PUSH0 SWAP1 SLOAD SWAP1 PUSH2 0x100 EXP SWAP1 DIV PUSH20 0xFFFFFFFFFFFFFFFFFFFFFFFFFFFFFFFFFFFFFFFF AND PUSH20 0xFFFFFFFFFFFFFFFFFFFFFFFFFFFFFFFFFFFFFFFF AND PUSH20 0xFFFFFFFFFFFFFFFFFFFFFFFFFFFFFFFFFFFFFFFF AND DUP2 MSTORE PUSH1 0x20 ADD SWAP1 DUP2 MSTORE PUSH1 0x20 ADD PUSH0 KECCAK256 PUSH0 ADD PUSH0 DUP3 DUP3 SLOAD PUSH2 0xD8E SWAP2 SWAP1 PUSH2 0x161A JUMP JUMPDEST SWAP3 POP POP DUP2 SWAP1 SSTORE POP PUSH1 0x5 PUSH1 0x3 PUSH0 PUSH1 0x2 PUSH0 DUP9 DUP2 MSTORE PUSH1 0x20 ADD SWAP1 DUP2 MSTORE PUSH1 0x20 ADD PUSH0 KECCAK256 PUSH1 0x1 ADD PUSH0 SWAP1 SLOAD SWAP1 PUSH2 0x100 EXP SWAP1 DIV PUSH20 0xFFFFFFFFFFFFFFFFFFFFFFFFFFFFFFFFFFFFFFFF AND PUSH20 0xFFFFFFFFFFFFFFFFFFFFFFFFFFFFFFFFFFFFFFFF AND PUSH20 0xFFFFFFFFFFFFFFFFFFFFFFFFFFFFFFFFFFFFFFFF AND DUP2 MSTORE PUSH1 0x20 ADD SWAP1 DUP2 MSTORE PUSH1 0x20 ADD PUSH0 KECCAK256 PUSH0 ADD PUSH0 DUP3 DUP3 SLOAD PUSH2 0xE17 SWAP2 SWAP1 PUSH2 0x161A JUMP JUMPDEST SWAP3 POP POP DUP2 SWAP1 SSTORE POP PUSH1 0x5 PUSH1 0x3 PUSH0 PUSH1 0x2 PUSH0 DUP9 DUP2 MSTORE PUSH1 0x20 ADD SWAP1 DUP2 MSTORE PUSH1 0x20 ADD PUSH0 KECCAK256 PUSH1 0x2 ADD PUSH0 SWAP1 SLOAD SWAP1 PUSH2 0x100 EXP SWAP1 DIV PUSH20 0xFFFFFFFFFFFFFFFFFFFFFFFFFFFFFFFFFFFFFFFF AND PUSH20 0xFFFFFFFFFFFFFFFFFFFFFFFFFFFFFFFFFFFFFFFF AND PUSH20 0xFFFFFFFFFFFFFFFFFFFFFFFFFFFFFFFFFFFFFFFF AND DUP2 MSTORE PUSH1 0x20 ADD SWAP1 DUP2 MSTORE PUSH1 0x20 ADD PUSH0 KECCAK256 PUSH0 ADD PUSH0 DUP3 DUP3 SLOAD PUSH2 0xEA0 SWAP2 SWAP1 PUSH2 0x161A JUMP JUMPDEST SWAP3 POP POP DUP2 SWAP1 SSTORE POP PUSH2 0xF36 JUMP JUMPDEST PUSH1 0x5 PUSH1 0x3 PUSH0 PUSH1 0x2 PUSH0 DUP9 DUP2 MSTORE PUSH1 0x20 ADD SWAP1 DUP2 MSTORE PUSH1 0x20 ADD PUSH0 KECCAK256 PUSH1 0x1 ADD PUSH0 SWAP1 SLOAD SWAP1 PUSH2 0x100 EXP SWAP1 DIV PUSH20 0xFFFFFFFFFFFFFFFFFFFFFFFFFFFFFFFFFFFFFFFF AND PUSH20 0xFFFFFFFFFFFFFFFFFFFFFFFFFFFFFFFFFFFFFFFF AND PUSH20 0xFFFFFFFFFFFFFFFFFFFFFFFFFFFFFFFFFFFFFFFF AND DUP2 MSTORE PUSH1 0x20 ADD SWAP1 DUP2 MSTORE PUSH1 0x20 ADD PUSH0 KECCAK256 PUSH0 ADD PUSH0 DUP3 DUP3 SLOAD PUSH2 0xF2E SWAP2 SWAP1 PUSH2 0x18C4 JUMP JUMPDEST SWAP3 POP POP DUP2 SWAP1 SSTORE POP JUMPDEST PUSH32 0x19BF9CE0B6F41C705C17ECAD634E22187A9C311D4EA093B2A979703CE52AC86D DUP5 PUSH1 0x1 PUSH1 0x40 MLOAD PUSH2 0xF68 SWAP3 SWAP2 SWAP1 PUSH2 0x10C2 JUMP JUMPDEST PUSH1 0x40 MLOAD DUP1 SWAP2 SUB SWAP1 LOG1 POP POP POP POP JUMP JUMPDEST PUSH1 0x4 SLOAD DUP2 JUMP JUMPDEST PUSH1 0x60 PUSH1 0x1 DUP1 SLOAD DUP1 PUSH1 0x20 MUL PUSH1 0x20 ADD PUSH1 0x40 MLOAD SWAP1 DUP2 ADD PUSH1 0x40 MSTORE DUP1 SWAP3 SWAP2 SWAP1 DUP2 DUP2 MSTORE PUSH1 0x20 ADD DUP3 DUP1 SLOAD DUP1 ISZERO PUSH2 0xFFD JUMPI PUSH1 0x20 MUL DUP3 ADD SWAP2 SWAP1 PUSH0 MSTORE PUSH1 0x20 PUSH0 KECCAK256 SWAP1 JUMPDEST DUP2 PUSH0 SWAP1 SLOAD SWAP1 PUSH2 0x100 EXP SWAP1 DIV PUSH20 0xFFFFFFFFFFFFFFFFFFFFFFFFFFFFFFFFFFFFFFFF AND PUSH20 0xFFFFFFFFFFFFFFFFFFFFFFFFFFFFFFFFFFFFFFFF AND DUP2 MSTORE PUSH1 0x20 ADD SWAP1 PUSH1 0x1 ADD SWAP1 DUP1 DUP4 GT PUSH2 0xFB4 JUMPI JUMPDEST POP POP POP POP POP SWAP1 POP SWAP1 JUMP JUMPDEST PUSH0 DUP1 REVERT JUMPDEST PUSH0 PUSH20 0xFFFFFFFFFFFFFFFFFFFFFFFFFFFFFFFFFFFFFFFF DUP3 AND SWAP1 POP SWAP2 SWAP1 POP JUMP JUMPDEST PUSH0 PUSH2 0x1034 DUP3 PUSH2 0x100B JUMP JUMPDEST SWAP1 POP SWAP2 SWAP1 POP JUMP JUMPDEST PUSH2 0x1044 DUP2 PUSH2 0x102A JUMP JUMPDEST DUP2 EQ PUSH2 0x104E JUMPI PUSH0 DUP1 REVERT JUMPDEST POP JUMP JUMPDEST PUSH0 DUP2 CALLDATALOAD SWAP1 POP PUSH2 0x105F DUP2 PUSH2 0x103B JUMP JUMPDEST SWAP3 SWAP2 POP POP JUMP JUMPDEST PUSH0 PUSH1 0x20 DUP3 DUP5 SUB SLT ISZERO PUSH2 0x107A JUMPI PUSH2 0x1079 PUSH2 0x1007 JUMP JUMPDEST JUMPDEST PUSH0 PUSH2 0x1087 DUP5 DUP3 DUP6 ADD PUSH2 0x1051 JUMP JUMPDEST SWAP2 POP POP SWAP3 SWAP2 POP POP JUMP JUMPDEST PUSH0 DUP2 SWAP1 POP SWAP2 SWAP1 POP JUMP JUMPDEST PUSH2 0x10A2 DUP2 PUSH2 0x1090 JUMP JUMPDEST DUP3 MSTORE POP POP JUMP JUMPDEST PUSH0 DUP2 ISZERO ISZERO SWAP1 POP SWAP2 SWAP1 POP JUMP JUMPDEST PUSH2 0x10BC DUP2 PUSH2 0x10A8 JUMP JUMPDEST DUP3 MSTORE POP POP JUMP JUMPDEST PUSH0 PUSH1 0x40 DUP3 ADD SWAP1 POP PUSH2 0x10D5 PUSH0 DUP4 ADD DUP6 PUSH2 0x1099 JUMP JUMPDEST PUSH2 0x10E2 PUSH1 0x20 DUP4 ADD DUP5 PUSH2 0x10B3 JUMP JUMPDEST SWAP4 SWAP3 POP POP POP JUMP JUMPDEST PUSH2 0x10F2 DUP2 PUSH2 0x1090 JUMP JUMPDEST DUP2 EQ PUSH2 0x10FC JUMPI PUSH0 DUP1 REVERT JUMPDEST POP JUMP JUMPDEST PUSH0 DUP2 CALLDATALOAD SWAP1 POP PUSH2 0x110D DUP2 PUSH2 0x10E9 JUMP JUMPDEST SWAP3 SWAP2 POP POP JUMP JUMPDEST PUSH1 0x3 DUP2 LT PUSH2 0x111F JUMPI PUSH0 DUP1 REVERT JUMPDEST POP JUMP JUMPDEST PUSH0 DUP2 CALLDATALOAD SWAP1 POP PUSH2 0x1130 DUP2 PUSH2 0x1113 JUMP JUMPDEST SWAP3 SWAP2 POP POP JUMP JUMPDEST PUSH0 DUP1 PUSH0 PUSH1 0x60 DUP5 DUP7 SUB SLT ISZERO PUSH2 0x114D JUMPI PUSH2 0x114C PUSH2 0x1007 JUMP JUMPDEST JUMPDEST PUSH0 PUSH2 0x115A DUP7 DUP3 DUP8 ADD PUSH2 0x10FF JUMP JUMPDEST SWAP4 POP POP PUSH1 0x20 PUSH2 0x116B DUP7 DUP3 DUP8 ADD PUSH2 0x1122 JUMP JUMPDEST SWAP3 POP POP PUSH1 0x40 PUSH2 0x117C DUP7 DUP3 DUP8 ADD PUSH2 0x10FF JUMP JUMPDEST SWAP2 POP POP SWAP3 POP SWAP3 POP SWAP3 JUMP JUMPDEST PUSH0 PUSH1 0x20 DUP3 DUP5 SUB SLT ISZERO PUSH2 0x119B JUMPI PUSH2 0x119A PUSH2 0x1007 JUMP JUMPDEST JUMPDEST PUSH0 PUSH2 0x11A8 DUP5 DUP3 DUP6 ADD PUSH2 0x10FF JUMP JUMPDEST SWAP2 POP POP SWAP3 SWAP2 POP POP JUMP JUMPDEST PUSH0 DUP1 PUSH1 0x40 DUP4 DUP6 SUB SLT ISZERO PUSH2 0x11C7 JUMPI PUSH2 0x11C6 PUSH2 0x1007 JUMP JUMPDEST JUMPDEST PUSH0 PUSH2 0x11D4 DUP6 DUP3 DUP7 ADD PUSH2 0x10FF JUMP JUMPDEST SWAP3 POP POP PUSH1 0x20 PUSH2 0x11E5 DUP6 DUP3 DUP7 ADD PUSH2 0x10FF JUMP JUMPDEST SWAP2 POP POP SWAP3 POP SWAP3 SWAP1 POP JUMP JUMPDEST PUSH0 DUP1 PUSH1 0x40 DUP4 DUP6 SUB SLT ISZERO PUSH2 0x1205 JUMPI PUSH2 0x1204 PUSH2 0x1007 JUMP JUMPDEST JUMPDEST PUSH0 PUSH2 0x1212 DUP6 DUP3 DUP7 ADD PUSH2 0x1051 JUMP JUMPDEST SWAP3 POP POP PUSH1 0x20 PUSH2 0x1223 DUP6 DUP3 DUP7 ADD PUSH2 0x1051 JUMP JUMPDEST SWAP2 POP POP SWAP3 POP SWAP3 SWAP1 POP JUMP JUMPDEST PUSH2 0x1236 DUP2 PUSH2 0x102A JUMP JUMPDEST DUP3 MSTORE POP POP JUMP JUMPDEST PUSH32 0x4E487B7100000000000000000000000000000000000000000000000000000000 PUSH0 MSTORE PUSH1 0x21 PUSH1 0x4 MSTORE PUSH1 0x24 PUSH0 REVERT JUMPDEST PUSH1 0x4 DUP2 LT PUSH2 0x127A JUMPI PUSH2 0x1279 PUSH2 0x123C JUMP JUMPDEST JUMPDEST POP JUMP JUMPDEST PUSH0 DUP2 SWAP1 POP PUSH2 0x128A DUP3 PUSH2 0x1269 JUMP JUMPDEST SWAP2 SWAP1 POP JUMP JUMPDEST PUSH0 PUSH2 0x1299 DUP3 PUSH2 0x127D JUMP JUMPDEST SWAP1 POP SWAP2 SWAP1 POP JUMP JUMPDEST PUSH2 0x12A9 DUP2 PUSH2 0x128F JUMP JUMPDEST DUP3 MSTORE POP POP JUMP JUMPDEST PUSH1 0x3 DUP2 LT PUSH2 0x12C0 JUMPI PUSH2 0x12BF PUSH2 0x123C JUMP JUMPDEST JUMPDEST POP JUMP JUMPDEST PUSH0 DUP2 SWAP1 POP PUSH2 0x12D0 DUP3 PUSH2 0x12AF JUMP JUMPDEST SWAP2 SWAP1 POP JUMP JUMPDEST PUSH0 PUSH2 0x12DF DUP3 PUSH2 0x12C3 JUMP JUMPDEST SWAP1 POP SWAP2 SWAP1 POP JUMP JUMPDEST PUSH2 0x12EF DUP2 PUSH2 0x12D5 JUMP JUMPDEST DUP3 MSTORE POP POP JUMP JUMPDEST PUSH0 PUSH2 0x140 DUP3 ADD SWAP1 POP PUSH2 0x1309 PUSH0 DUP4 ADD DUP14 PUSH2 0x122D JUMP JUMPDEST PUSH2 0x1316 PUSH1 0x20 DUP4 ADD DUP13 PUSH2 0x122D JUMP JUMPDEST PUSH2 0x1323 PUSH1 0x40 DUP4 ADD DUP12 PUSH2 0x122D JUMP JUMPDEST PUSH2 0x1330 PUSH1 0x60 DUP4 ADD DUP11 PUSH2 0x1099 JUMP JUMPDEST PUSH2 0x133D PUSH1 0x80 DUP4 ADD DUP10 PUSH2 0x1099 JUMP JUMPDEST PUSH2 0x134A PUSH1 0xA0 DUP4 ADD DUP9 PUSH2 0x1099 JUMP JUMPDEST PUSH2 0x1357 PUSH1 0xC0 DUP4 ADD DUP8 PUSH2 0x1099 JUMP JUMPDEST PUSH2 0x1364 PUSH1 0xE0 DUP4 ADD DUP7 PUSH2 0x12A0 JUMP JUMPDEST PUSH2 0x1372 PUSH2 0x100 DUP4 ADD DUP6 PUSH2 0x12E6 JUMP JUMPDEST PUSH2 0x1380 PUSH2 0x120 DUP4 ADD DUP5 PUSH2 0x10B3 JUMP JUMPDEST SWAP12 SWAP11 POP POP POP POP POP POP POP POP POP POP POP JUMP JUMPDEST PUSH2 0x1398 DUP2 PUSH2 0x10A8 JUMP JUMPDEST DUP2 EQ PUSH2 0x13A2 JUMPI PUSH0 DUP1 REVERT JUMPDEST POP JUMP JUMPDEST PUSH0 DUP2 CALLDATALOAD SWAP1 POP PUSH2 0x13B3 DUP2 PUSH2 0x138F JUMP JUMPDEST SWAP3 SWAP2 POP POP JUMP JUMPDEST PUSH0 DUP1 PUSH1 0x40 DUP4 DUP6 SUB SLT ISZERO PUSH2 0x13CF JUMPI PUSH2 0x13CE PUSH2 0x1007 JUMP JUMPDEST JUMPDEST PUSH0 PUSH2 0x13DC DUP6 DUP3 DUP7 ADD PUSH2 0x10FF JUMP JUMPDEST SWAP3 POP POP PUSH1 0x20 PUSH2 0x13ED DUP6 DUP3 DUP7 ADD PUSH2 0x13A5 JUMP JUMPDEST SWAP2 POP POP SWAP3 POP SWAP3 SWAP1 POP JUMP JUMPDEST PUSH0 PUSH1 0x20 DUP3 ADD SWAP1 POP PUSH2 0x140A PUSH0 DUP4 ADD DUP5 PUSH2 0x1099 JUMP JUMPDEST SWAP3 SWAP2 POP POP JUMP JUMPDEST PUSH0 DUP2 MLOAD SWAP1 POP SWAP2 SWAP1 POP JUMP JUMPDEST PUSH0 DUP3 DUP3 MSTORE PUSH1 0x20 DUP3 ADD SWAP1 POP SWAP3 SWAP2 POP POP JUMP JUMPDEST PUSH0 DUP2 SWAP1 POP PUSH1 0x20 DUP3 ADD SWAP1 POP SWAP2 SWAP1 POP JUMP JUMPDEST PUSH2 0x1442 DUP2 PUSH2 0x102A JUMP JUMPDEST DUP3 MSTORE POP POP JUMP JUMPDEST PUSH0 PUSH2 0x1453 DUP4 DUP4 PUSH2 0x1439 JUMP JUMPDEST PUSH1 0x20 DUP4 ADD SWAP1 POP SWAP3 SWAP2 POP POP JUMP JUMPDEST PUSH0 PUSH1 0x20 DUP3 ADD SWAP1 POP SWAP2 SWAP1 POP JUMP JUMPDEST PUSH0 PUSH2 0x1475 DUP3 PUSH2 0x1410 JUMP JUMPDEST PUSH2 0x147F DUP2 DUP6 PUSH2 0x141A JUMP JUMPDEST SWAP4 POP PUSH2 0x148A DUP4 PUSH2 0x142A JUMP JUMPDEST DUP1 PUSH0 JUMPDEST DUP4 DUP2 LT ISZERO PUSH2 0x14BA JUMPI DUP2 MLOAD PUSH2 0x14A1 DUP9 DUP3 PUSH2 0x1448 JUMP JUMPDEST SWAP8 POP PUSH2 0x14AC DUP4 PUSH2 0x145F JUMP JUMPDEST SWAP3 POP POP PUSH1 0x1 DUP2 ADD SWAP1 POP PUSH2 0x148D JUMP JUMPDEST POP DUP6 SWAP4 POP POP POP POP SWAP3 SWAP2 POP POP JUMP JUMPDEST PUSH0 PUSH1 0x20 DUP3 ADD SWAP1 POP DUP2 DUP2 SUB PUSH0 DUP4 ADD MSTORE PUSH2 0x14DF DUP2 DUP5 PUSH2 0x146B JUMP JUMPDEST SWAP1 POP SWAP3 SWAP2 POP POP JUMP JUMPDEST PUSH0 DUP3 DUP3 MSTORE PUSH1 0x20 DUP3 ADD SWAP1 POP SWAP3 SWAP2 POP POP JUMP JUMPDEST PUSH32 0x496E76616C696420737461746520666F72207468697320616374696F6E000000 PUSH0 DUP3 ADD MSTORE POP JUMP JUMPDEST PUSH0 PUSH2 0x152B PUSH1 0x1D DUP4 PUSH2 0x14E7 JUMP JUMPDEST SWAP2 POP PUSH2 0x1536 DUP3 PUSH2 0x14F7 JUMP JUMPDEST PUSH1 0x20 DUP3 ADD SWAP1 POP SWAP2 SWAP1 POP JUMP JUMPDEST PUSH0 PUSH1 0x20 DUP3 ADD SWAP1 POP DUP2 DUP2 SUB PUSH0 DUP4 ADD MSTORE PUSH2 0x1558 DUP2 PUSH2 0x151F JUMP JUMPDEST SWAP1 POP SWAP2 SWAP1 POP JUMP JUMPDEST PUSH32 0x4F6E6C79206D61726B6574706C6163652063616E207570646174652064656C69 PUSH0 DUP3 ADD MSTORE PUSH32 0x7665727920737461746500000000000000000000000000000000000000000000 PUSH1 0x20 DUP3 ADD MSTORE POP JUMP JUMPDEST PUSH0 PUSH2 0x15B9 PUSH1 0x2A DUP4 PUSH2 0x14E7 JUMP JUMPDEST SWAP2 POP PUSH2 0x15C4 DUP3 PUSH2 0x155F JUMP JUMPDEST PUSH1 0x40 DUP3 ADD SWAP1 POP SWAP2 SWAP1 POP JUMP JUMPDEST PUSH0 PUSH1 0x20 DUP3 ADD SWAP1 POP DUP2 DUP2 SUB PUSH0 DUP4 ADD MSTORE PUSH2 0x15E6 DUP2 PUSH2 0x15AD JUMP JUMPDEST SWAP1 POP SWAP2 SWAP1 POP JUMP JUMPDEST PUSH32 0x4E487B7100000000000000000000000000000000000000000000000000000000 PUSH0 MSTORE PUSH1 0x11 PUSH1 0x4 MSTORE PUSH1 0x24 PUSH0 REVERT JUMPDEST PUSH0 PUSH2 0x1624 DUP3 PUSH2 0x1090 JUMP JUMPDEST SWAP2 POP PUSH2 0x162F DUP4 PUSH2 0x1090 JUMP JUMPDEST SWAP3 POP DUP3 DUP3 ADD SWAP1 POP DUP1 DUP3 GT ISZERO PUSH2 0x1647 JUMPI PUSH2 0x1646 PUSH2 0x15ED JUMP JUMPDEST JUMPDEST SWAP3 SWAP2 POP POP JUMP JUMPDEST PUSH0 PUSH1 0x40 DUP3 ADD SWAP1 POP PUSH2 0x1660 PUSH0 DUP4 ADD DUP6 PUSH2 0x1099 JUMP JUMPDEST PUSH2 0x166D PUSH1 0x20 DUP4 ADD DUP5 PUSH2 0x12A0 JUMP JUMPDEST SWAP4 SWAP3 POP POP POP JUMP JUMPDEST PUSH32 0x5573657220616C72656164792072656769737465726564000000000000000000 PUSH0 DUP3 ADD MSTORE POP JUMP JUMPDEST PUSH0 PUSH2 0x16A8 PUSH1 0x17 DUP4 PUSH2 0x14E7 JUMP JUMPDEST SWAP2 POP PUSH2 0x16B3 DUP3 PUSH2 0x1674 JUMP JUMPDEST PUSH1 0x20 DUP3 ADD SWAP1 POP SWAP2 SWAP1 POP JUMP JUMPDEST PUSH0 PUSH1 0x20 DUP3 ADD SWAP1 POP DUP2 DUP2 SUB PUSH0 DUP4 ADD MSTORE PUSH2 0x16D5 DUP2 PUSH2 0x169C JUMP JUMPDEST SWAP1 POP SWAP2 SWAP1 POP JUMP JUMPDEST PUSH32 0x416374696F6E206973206E6F206C6F6E67657220616C6C6F7765640000000000 PUSH0 DUP3 ADD MSTORE POP JUMP JUMPDEST PUSH0 PUSH2 0x1710 PUSH1 0x1B DUP4 PUSH2 0x14E7 JUMP JUMPDEST SWAP2 POP PUSH2 0x171B DUP3 PUSH2 0x16DC JUMP JUMPDEST PUSH1 0x20 DUP3 ADD SWAP1 POP SWAP2 SWAP1 POP JUMP JUMPDEST PUSH0 PUSH1 0x20 DUP3 ADD SWAP1 POP DUP2 DUP2 SUB PUSH0 DUP4 ADD MSTORE PUSH2 0x173D DUP2 PUSH2 0x1704 JUMP JUMPDEST SWAP1 POP SWAP2 SWAP1 POP JUMP JUMPDEST PUSH32 0x4F6E6C79206D61726B6574706C6163652063616E20636F6E6669726D20736869 PUSH0 DUP3 ADD MSTORE PUSH32 0x7070696E67000000000000000000000000000000000000000000000000000000 PUSH1 0x20 DUP3 ADD MSTORE POP JUMP JUMPDEST PUSH0 PUSH2 0x179E PUSH1 0x25 DUP4 PUSH2 0x14E7 JUMP JUMPDEST SWAP2 POP PUSH2 0x17A9 DUP3 PUSH2 0x1744 JUMP JUMPDEST PUSH1 0x40 DUP3 ADD SWAP1 POP SWAP2 SWAP1 POP JUMP JUMPDEST PUSH0 PUSH1 0x20 DUP3 ADD SWAP1 POP DUP2 DUP2 SUB PUSH0 DUP4 ADD MSTORE PUSH2 0x17CB DUP2 PUSH2 0x1792 JUMP JUMPDEST SWAP1 POP SWAP2 SWAP1 POP JUMP JUMPDEST PUSH0 PUSH2 0x17DC DUP3 PUSH2 0x1090 JUMP JUMPDEST SWAP2 POP PUSH32 0xFFFFFFFFFFFFFFFFFFFFFFFFFFFFFFFFFFFFFFFFFFFFFFFFFFFFFFFFFFFFFFFF DUP3 SUB PUSH2 0x180E JUMPI PUSH2 0x180D PUSH2 0x15ED JUMP JUMPDEST JUMPDEST PUSH1 0x1 DUP3 ADD SWAP1 POP SWAP2 SWAP1 POP JUMP JUMPDEST PUSH0 PUSH1 0x80 DUP3 ADD SWAP1 POP PUSH2 0x182C PUSH0 DUP4 ADD DUP8 PUSH2 0x1099 JUMP JUMPDEST PUSH2 0x1839 PUSH1 0x20 DUP4 ADD DUP7 PUSH2 0x122D JUMP JUMPDEST PUSH2 0x1846 PUSH1 0x40 DUP4 ADD DUP6 PUSH2 0x122D JUMP JUMPDEST PUSH2 0x1853 PUSH1 0x60 DUP4 ADD DUP5 PUSH2 0x122D JUMP JUMPDEST SWAP6 SWAP5 POP POP POP POP POP JUMP JUMPDEST PUSH32 0x4F6E6C792062757965722063616E20636F6E6669726D20676F6F647300000000 PUSH0 DUP3 ADD MSTORE POP JUMP JUMPDEST PUSH0 PUSH2 0x1890 PUSH1 0x1C DUP4 PUSH2 0x14E7 JUMP JUMPDEST SWAP2 POP PUSH2 0x189B DUP3 PUSH2 0x185C JUMP JUMPDEST PUSH1 0x20 DUP3 ADD SWAP1 POP SWAP2 SWAP1 POP JUMP JUMPDEST PUSH0 PUSH1 0x20 DUP3 ADD SWAP1 POP DUP2 DUP2 SUB PUSH0 DUP4 ADD MSTORE PUSH2 0x18BD DUP2 PUSH2 0x1884 JUMP JUMPDEST SWAP1 POP SWAP2 SWAP1 POP JUMP JUMPDEST PUSH0 PUSH2 0x18CE DUP3 PUSH2 0x1090 JUMP JUMPDEST SWAP2 POP PUSH2 0x18D9 DUP4 PUSH2 0x1090 JUMP JUMPDEST SWAP3 POP DUP3 DUP3 SUB SWAP1 POP DUP2 DUP2 GT ISZERO PUSH2 0x18F1 JUMPI PUSH2 0x18F0 PUSH2 0x15ED JUMP JUMPDEST JUMPDEST SWAP3 SWAP2 POP POP JUMP INVALID LOG2 PUSH5 0x6970667358 0x22 SLT KECCAK256 0xCE REVERT 0xD7 0xCB GASLIMIT 0xDB SLT SWAP2 GAS 0xEE 0xEB PUSH10 0xAF3D3AC14D22BEDDD321 XOR 0xB4 SHL SWAP12 BLOBHASH SHL 0xC 0xA7 0x2B SELFBALANCE PUSH5 0x736F6C6343 STOP ADDMOD BYTE STOP CALLER "
				},
				"gasEstimates": {
					"creation": {
						"codeDepositCost": "1289000",
						"executionCost": "1340",
						"totalCost": "1290340"
					},
					"external": {
						"BuyerConfirmGoods(uint256,bool)": "infinite",
						"cancelTransaction(uint256)": "infinite",
						"confirmShipping(uint256,uint256)": "infinite",
						"getAllUsers()": "infinite",
						"initiateTransaction(address,address)": "infinite",
						"registerUser()": "80494",
						"reputations(address)": "5068",
						"transactionCount()": "2491",
						"transactions(uint256)": "infinite",
						"updateDeliveryState(uint256,uint8,uint256)": "infinite"
					}
				},
				"methodIdentifiers": {
					"BuyerConfirmGoods(uint256,bool)": "a54be1ef",
					"cancelTransaction(uint256)": "3380c0d8",
					"confirmShipping(uint256,uint256)": "51fe3f3d",
					"getAllUsers()": "e2842d79",
					"initiateTransaction(address,address)": "8cc4df45",
					"registerUser()": "4d3820eb",
					"reputations(address)": "06fa15a7",
					"transactionCount()": "b77bf600",
					"transactions(uint256)": "9ace38c2",
					"updateDeliveryState(uint256,uint8,uint256)": "2e2ed75e"
				}
			},
			"storageLayout": {
				"storage": [
					{
						"astId": 43,
						"contract": "trustScore2-2.sol:ReputationStateMachine",
						"label": "users",
						"offset": 0,
						"slot": "0",
						"type": "t_mapping(t_address,t_struct(Reputation)38_storage)"
					},
					{
						"astId": 46,
						"contract": "trustScore2-2.sol:ReputationStateMachine",
						"label": "userAddresses",
						"offset": 0,
						"slot": "1",
						"type": "t_array(t_address)dyn_storage"
					},
					{
						"astId": 51,
						"contract": "trustScore2-2.sol:ReputationStateMachine",
						"label": "transactions",
						"offset": 0,
						"slot": "2",
						"type": "t_mapping(t_uint256,t_struct(Transaction)33_storage)"
					},
					{
						"astId": 56,
						"contract": "trustScore2-2.sol:ReputationStateMachine",
						"label": "reputations",
						"offset": 0,
						"slot": "3",
						"type": "t_mapping(t_address,t_struct(Reputation)38_storage)"
					},
					{
						"astId": 58,
						"contract": "trustScore2-2.sol:ReputationStateMachine",
						"label": "transactionCount",
						"offset": 0,
						"slot": "4",
						"type": "t_uint256"
					}
				],
				"types": {
					"t_address": {
						"encoding": "inplace",
						"label": "address",
						"numberOfBytes": "20"
					},
					"t_array(t_address)dyn_storage": {
						"base": "t_address",
						"encoding": "dynamic_array",
						"label": "address[]",
						"numberOfBytes": "32"
					},
					"t_bool": {
						"encoding": "inplace",
						"label": "bool",
						"numberOfBytes": "1"
					},
					"t_enum(DeliveryState)10": {
						"encoding": "inplace",
						"label": "enum ReputationStateMachine.DeliveryState",
						"numberOfBytes": "1"
					},
					"t_enum(State)6": {
						"encoding": "inplace",
						"label": "enum ReputationStateMachine.State",
						"numberOfBytes": "1"
					},
					"t_mapping(t_address,t_struct(Reputation)38_storage)": {
						"encoding": "mapping",
						"key": "t_address",
						"label": "mapping(address => struct ReputationStateMachine.Reputation)",
						"numberOfBytes": "32",
						"value": "t_struct(Reputation)38_storage"
					},
					"t_mapping(t_uint256,t_struct(Transaction)33_storage)": {
						"encoding": "mapping",
						"key": "t_uint256",
						"label": "mapping(uint256 => struct ReputationStateMachine.Transaction)",
						"numberOfBytes": "32",
						"value": "t_struct(Transaction)33_storage"
					},
					"t_struct(Reputation)38_storage": {
						"encoding": "inplace",
						"label": "struct ReputationStateMachine.Reputation",
						"members": [
							{
								"astId": 35,
								"contract": "trustScore2-2.sol:ReputationStateMachine",
								"label": "score",
								"offset": 0,
								"slot": "0",
								"type": "t_uint256"
							},
							{
								"astId": 37,
								"contract": "trustScore2-2.sol:ReputationStateMachine",
								"label": "exists",
								"offset": 0,
								"slot": "1",
								"type": "t_bool"
							}
						],
						"numberOfBytes": "64"
					},
					"t_struct(Transaction)33_storage": {
						"encoding": "inplace",
						"label": "struct ReputationStateMachine.Transaction",
						"members": [
							{
								"astId": 12,
								"contract": "trustScore2-2.sol:ReputationStateMachine",
								"label": "buyer",
								"offset": 0,
								"slot": "0",
								"type": "t_address"
							},
							{
								"astId": 14,
								"contract": "trustScore2-2.sol:ReputationStateMachine",
								"label": "seller",
								"offset": 0,
								"slot": "1",
								"type": "t_address"
							},
							{
								"astId": 16,
								"contract": "trustScore2-2.sol:ReputationStateMachine",
								"label": "marketplace",
								"offset": 0,
								"slot": "2",
								"type": "t_address"
							},
							{
								"astId": 18,
								"contract": "trustScore2-2.sol:ReputationStateMachine",
								"label": "startTime",
								"offset": 0,
								"slot": "3",
								"type": "t_uint256"
							},
							{
								"astId": 20,
								"contract": "trustScore2-2.sol:ReputationStateMachine",
								"label": "phase1EndTime",
								"offset": 0,
								"slot": "4",
								"type": "t_uint256"
							},
							{
								"astId": 22,
								"contract": "trustScore2-2.sol:ReputationStateMachine",
								"label": "phase2EndTime",
								"offset": 0,
								"slot": "5",
								"type": "t_uint256"
							},
							{
								"astId": 24,
								"contract": "trustScore2-2.sol:ReputationStateMachine",
								"label": "phase3EndTime",
								"offset": 0,
								"slot": "6",
								"type": "t_uint256"
							},
							{
								"astId": 27,
								"contract": "trustScore2-2.sol:ReputationStateMachine",
								"label": "currentState",
								"offset": 0,
								"slot": "7",
								"type": "t_enum(State)6"
							},
							{
								"astId": 30,
								"contract": "trustScore2-2.sol:ReputationStateMachine",
								"label": "deliveryState",
								"offset": 1,
								"slot": "7",
								"type": "t_enum(DeliveryState)10"
							},
							{
								"astId": 32,
								"contract": "trustScore2-2.sol:ReputationStateMachine",
								"label": "finalized",
								"offset": 2,
								"slot": "7",
								"type": "t_bool"
							}
						],
						"numberOfBytes": "256"
					},
					"t_uint256": {
						"encoding": "inplace",
						"label": "uint256",
						"numberOfBytes": "32"
					}
				}
			},
			"userdoc": {
				"kind": "user",
				"methods": {},
				"version": 1
			}
		}
	}
}